{"contracts/Prediction/polyv3.sol":{"Option":{"abi":[{"inputs":[{"internalType":"address","name":"account","type":"address"}],"name":"UnauthorizedAccount","type":"error"},{"anonymous":false,"inputs":[{"indexed":true,"internalType":"string","name":"conditionId","type":"string"},{"indexed":true,"internalType":"uint256","name":"position","type":"uint256"},{"indexed":false,"internalType":"address","name":"payoutAddress","type":"address"}],"name":"ConditionPayout","type":"event"},{"anonymous":false,"inputs":[{"indexed":true,"internalType":"string","name":"conditionId","type":"string"},{"indexed":true,"internalType":"uint256","name":"position","type":"uint256"},{"indexed":false,"internalType":"uint256","name":"amount","type":"uint256"}],"name":"ConditionPlace","type":"event"},{"anonymous":false,"inputs":[{"indexed":true,"internalType":"string","name":"conditionId","type":"string"},{"indexed":false,"internalType":"uint256","name":"outcomeSlotCount","type":"uint256"}],"name":"ConditionPreparation","type":"event"},{"anonymous":false,"inputs":[{"indexed":true,"internalType":"address","name":"previousOwner","type":"address"},{"indexed":true,"internalType":"address","name":"newOwner","type":"address"}],"name":"OwnershipTransferred","type":"event"},{"anonymous":false,"inputs":[{"indexed":false,"internalType":"address","name":"olderToken","type":"address"},{"indexed":false,"internalType":"address","name":"newToken","type":"address"}],"name":"casinoChipsChanged","type":"event"},{"anonymous":false,"inputs":[{"indexed":false,"internalType":"uint256","name":"feeAmount","type":"uint256"}],"name":"feeAmountChanged","type":"event"},{"anonymous":false,"inputs":[{"indexed":false,"internalType":"address","name":"olderReceiver","type":"address"},{"indexed":false,"internalType":"address","name":"newReceiver","type":"address"}],"name":"feeReceiverChanged","type":"event"},{"anonymous":false,"inputs":[{"indexed":true,"internalType":"string","name":"conditionId","type":"string"}],"name":"optionCanceled","type":"event"},{"inputs":[],"name":"_feeAmount","outputs":[{"internalType":"uint256","name":"","type":"uint256"}],"stateMutability":"view","type":"function"},{"inputs":[{"internalType":"string","name":"conditionId","type":"string"}],"name":"cancelOption","outputs":[],"stateMutability":"nonpayable","type":"function"},{"inputs":[],"name":"casinoChips","outputs":[{"internalType":"address","name":"","type":"address"}],"stateMutability":"view","type":"function"},{"inputs":[{"internalType":"address","name":"_newFeeReceiver","type":"address"}],"name":"changeFeeReceiver","outputs":[],"stateMutability":"nonpayable","type":"function"},{"inputs":[],"name":"contractOwner","outputs":[{"internalType":"address","name":"","type":"address"}],"stateMutability":"view","type":"function"},{"inputs":[],"name":"feeTo","outputs":[{"internalType":"address","name":"","type":"address"}],"stateMutability":"view","type":"function"},{"inputs":[{"internalType":"string","name":"conditionId","type":"string"}],"name":"getOrderInfo","outputs":[{"internalType":"uint256","name":"total","type":"uint256"},{"components":[{"internalType":"uint256","name":"amount","type":"uint256"},{"internalType":"uint256","name":"toWin","type":"uint256"}],"internalType":"struct Option.conditionInfo[]","name":"details","type":"tuple[]"}],"stateMutability":"view","type":"function"},{"inputs":[{"internalType":"address","name":"token","type":"address"},{"internalType":"address","name":"_feeTo","type":"address"}],"name":"initialize","outputs":[],"stateMutability":"nonpayable","type":"function"},{"inputs":[],"name":"isOwner","outputs":[{"internalType":"bool","name":"","type":"bool"}],"stateMutability":"view","type":"function"},{"inputs":[{"internalType":"string","name":"","type":"string"}],"name":"optionStatus","outputs":[{"internalType":"uint256","name":"","type":"uint256"}],"stateMutability":"view","type":"function"},{"inputs":[{"internalType":"string","name":"","type":"string"},{"internalType":"uint256","name":"","type":"uint256"}],"name":"payoutNumerators","outputs":[{"internalType":"uint256","name":"","type":"uint256"}],"stateMutability":"view","type":"function"},{"inputs":[{"internalType":"string","name":"","type":"string"}],"name":"payoutPosition","outputs":[{"internalType":"address","name":"","type":"address"}],"stateMutability":"view","type":"function"},{"inputs":[{"internalType":"string","name":"conditionId","type":"string"},{"internalType":"uint256","name":"position","type":"uint256"},{"internalType":"uint256","name":"amount","type":"uint256"}],"name":"placeOrder","outputs":[],"stateMutability":"nonpayable","type":"function"},{"inputs":[{"internalType":"string","name":"conditionId","type":"string"},{"internalType":"uint256","name":"outcomeSlotCount","type":"uint256"}],"name":"prepareCondition","outputs":[],"stateMutability":"nonpayable","type":"function"},{"inputs":[],"name":"renounceOwnership","outputs":[],"stateMutability":"nonpayable","type":"function"},{"inputs":[{"internalType":"string","name":"conditionId","type":"string"},{"internalType":"uint256","name":"position","type":"uint256"}],"name":"reportPayouts","outputs":[],"stateMutability":"nonpayable","type":"function"},{"inputs":[{"internalType":"address","name":"_newTokenAddr","type":"address"}],"name":"setCasinoChips","outputs":[],"stateMutability":"nonpayable","type":"function"},{"inputs":[{"internalType":"uint256","name":"_fee","type":"uint256"}],"name":"setFeeAmount","outputs":[],"stateMutability":"nonpayable","type":"function"},{"inputs":[{"internalType":"string","name":"","type":"string"}],"name":"totalAmountBet","outputs":[{"internalType":"uint256","name":"","type":"uint256"}],"stateMutability":"view","type":"function"},{"inputs":[{"internalType":"address","name":"newOwner","type":"address"}],"name":"transferOwnership","outputs":[],"stateMutability":"nonpayable","type":"function"}],"evm":{"bytecode":{"linkReferences":{},"object":"608060405234801561001057600080fd5b50612c0e806100206000396000f3fe608060405234801561001057600080fd5b506004361061012c5760003560e01c80636b392680116100ad5780638dcd9503116100715780638dcd95031461031a5780638f32d59b1461034a5780639ba829f714610368578063ce606ee014610384578063f2fde38b146103a25761012c565b80636b392680146102a0578063715018a6146102bc5780637c08b964146102c657806383d7cd95146102e257806388b922d5146102fe5761012c565b8063466cf93a116100f4578063466cf93a14610210578063485cc9551461022c5780635a9e497d14610248578063621bbef714610266578063694b3367146102845761012c565b8063017e7e58146101315780631062d8611461014f57806315eb3f301461017f5780632762b602146101b0578063320979a2146101e0575b600080fd5b6101396103be565b6040516101469190611c3e565b60405180910390f35b61016960048036038101906101649190611de9565b6103e4565b6040516101769190611e54565b60405180910390f35b61019960048036038101906101949190611ecf565b61042b565b6040516101a7929190612009565b60405180910390f35b6101ca60048036038101906101c59190612039565b6105f6565b6040516101d79190611e54565b60405180910390f35b6101fa60048036038101906101f59190612039565b610624565b6040516102079190611e54565b60405180910390f35b61022a600480360381019061022591906120ae565b610652565b005b610246600480360381019061024191906120db565b6107ad565b005b6102506108ca565b60405161025d9190611e54565b60405180910390f35b61026e6108d0565b60405161027b9190611c3e565b60405180910390f35b61029e60048036038101906102999190611ecf565b6108f6565b005b6102ba60048036038101906102b5919061211b565b610b35565b005b6102c4610bca565b005b6102e060048036038101906102db91906120ae565b610cd2565b005b6102fc60048036038101906102f79190612148565b610e2d565b005b610318600480360381019061031391906121a8565b611085565b005b610334600480360381019061032f9190612039565b611412565b6040516103419190611c3e565b60405180910390f35b61035261145b565b60405161035f9190612237565b60405180910390f35b610382600480360381019061037d9190612148565b6114b3565b005b61038c611667565b6040516103999190611c3e565b60405180910390f35b6103bc60048036038101906103b791906120ae565b611691565b005b600860009054906101000a900473ffffffffffffffffffffffffffffffffffffffff1681565b600382805160208101820180518482526020830160208501208183528095505050505050818154811061041657600080fd5b90600052602060002001600091509150505481565b6000606060048484604051610441929190612282565b9081526020016040518091039020549150600060038585604051610466929190612282565b90815260200160405180910390208054806020026020016040519081016040528092919081815260200182805480156104be57602002820191906000526020600020905b8154815260200190600101908083116104aa575b50505050509050805167ffffffffffffffff8111156104e0576104df611c88565b5b60405190808252806020026020018201604052801561051957816020015b610506611b79565b8152602001906001900390816104fe5790505b50915060005b81518110156105ed57600082828151811061053d5761053c61229b565b5b6020026020010151146105e05781818151811061055d5761055c61229b565b5b60200260200101518382815181106105785761057761229b565b5b6020026020010151600001818152505081818151811061059b5761059a61229b565b5b6020026020010151620f4240856105b291906122f9565b6105bc919061236a565b8382815181106105cf576105ce61229b565b5b602002602001015160200181815250505b808060010191505061051f565b50509250929050565b6004818051602081018201805184825260208301602085012081835280955050505050506000915090505481565b6006818051602081018201805184825260208301602085012081835280955050505050506000915090505481565b61065a61145b565b610699576040517f08c379a0000000000000000000000000000000000000000000000000000000008152600401610690906123f8565b60405180910390fd5b600073ffffffffffffffffffffffffffffffffffffffff168173ffffffffffffffffffffffffffffffffffffffff1603610708576040517f08c379a00000000000000000000000000000000000000000000000000000000081526004016106ff90612464565b60405180910390fd5b6000600760009054906101000a900473ffffffffffffffffffffffffffffffffffffffff16905081600760006101000a81548173ffffffffffffffffffffffffffffffffffffffff021916908373ffffffffffffffffffffffffffffffffffffffff1602179055507f47bbed8023ac1a0fe3025394c8f6b641a067058c37bc4eb3b7ccd0c68a7606b881836040516107a1929190612484565b60405180910390a15050565b600073ffffffffffffffffffffffffffffffffffffffff1660008054906101000a900473ffffffffffffffffffffffffffffffffffffffff1673ffffffffffffffffffffffffffffffffffffffff160361083c576040517f08c379a0000000000000000000000000000000000000000000000000000000008152600401610833906124f9565b60405180910390fd5b6108446116e4565b81600760006101000a81548173ffffffffffffffffffffffffffffffffffffffff021916908373ffffffffffffffffffffffffffffffffffffffff16021790555080600860006101000a81548173ffffffffffffffffffffffffffffffffffffffff021916908373ffffffffffffffffffffffffffffffffffffffff1602179055505050565b60095481565b600760009054906101000a900473ffffffffffffffffffffffffffffffffffffffff1681565b6108fe61145b565b61093d576040517f08c379a0000000000000000000000000000000000000000000000000000000008152600401610934906123f8565b60405180910390fd5b600160068383604051610951929190612282565b908152602001604051809103902054146109a0576040517f08c379a000000000000000000000000000000000000000000000000000000000815260040161099790612565565b60405180910390fd5b6003600683836040516109b4929190612282565b9081526020016040518091039020819055506000600483836040516109da929190612282565b9081526020016040518091039020549050600760009054906101000a900473ffffffffffffffffffffffffffffffffffffffff1673ffffffffffffffffffffffffffffffffffffffff1663a9059cbb600860009054906101000a900473ffffffffffffffffffffffffffffffffffffffff16836040518363ffffffff1660e01b8152600401610a6a929190612585565b6020604051808303816000875af1158015610a89573d6000803e3d6000fd5b505050506040513d601f19601f82011682018060405250810190610aad91906125da565b610aec576040517f08c379a0000000000000000000000000000000000000000000000000000000008152600401610ae390612653565b60405180910390fd5b8282604051610afc929190612282565b60405180910390207fde1e9c86643c2400be5c0076c1fe395547c541d659999212b4e9f05639975b6f60405160405180910390a2505050565b610b3d61145b565b610b7c576040517f08c379a0000000000000000000000000000000000000000000000000000000008152600401610b73906123f8565b60405180910390fd5b6000811015610bc0576040517f08c379a0000000000000000000000000000000000000000000000000000000008152600401610bb7906126bf565b60405180910390fd5b8060098190555050565b610bd261145b565b610c11576040517f08c379a0000000000000000000000000000000000000000000000000000000008152600401610c08906123f8565b60405180910390fd5b600073ffffffffffffffffffffffffffffffffffffffff16600260009054906101000a900473ffffffffffffffffffffffffffffffffffffffff1673ffffffffffffffffffffffffffffffffffffffff167f8be0079c531659141344cd1fd0a4f28419497f9722a3daafe3b4186f6b6457e060405160405180910390a36000600260006101000a81548173ffffffffffffffffffffffffffffffffffffffff021916908373ffffffffffffffffffffffffffffffffffffffff160217905550565b610cda61145b565b610d19576040517f08c379a0000000000000000000000000000000000000000000000000000000008152600401610d10906123f8565b60405180910390fd5b600073ffffffffffffffffffffffffffffffffffffffff168173ffffffffffffffffffffffffffffffffffffffff1603610d88576040517f08c379a0000000000000000000000000000000000000000000000000000000008152600401610d7f90612464565b60405180910390fd5b6000600860009054906101000a900473ffffffffffffffffffffffffffffffffffffffff16905081600860006101000a81548173ffffffffffffffffffffffffffffffffffffffff021916908373ffffffffffffffffffffffffffffffffffffffff1602179055507f47bbed8023ac1a0fe3025394c8f6b641a067058c37bc4eb3b7ccd0c68a7606b88183604051610e21929190612484565b60405180910390a15050565b610e3561145b565b610e74576040517f08c379a0000000000000000000000000000000000000000000000000000000008152600401610e6b906123f8565b60405180910390fd5b610100811115610eb9576040517f08c379a0000000000000000000000000000000000000000000000000000000008152600401610eb09061272b565b60405180910390fd5b60018111610efc576040517f08c379a0000000000000000000000000000000000000000000000000000000008152600401610ef3906127bd565b60405180910390fd5b600060038484604051610f10929190612282565b908152602001604051809103902080549050148015610f4f5750600060068484604051610f3e929190612282565b908152602001604051809103902054145b610f8e576040517f08c379a0000000000000000000000000000000000000000000000000000000008152600401610f8590612829565b60405180910390fd5b600160068484604051610fa2929190612282565b9081526020016040518091039020819055508067ffffffffffffffff811115610fce57610fcd611c88565b5b604051908082528060200260200182016040528015610ffc5781602001602082028036833780820191505090505b506003848460405161100f929190612282565b90815260200160405180910390209080519060200190611030929190611b93565b508282604051611041929190612282565b60405180910390207fa32de6189e144edec4436e11cc70ceffd6475771373eb877b6368f066bde691e826040516110789190611e54565b60405180910390a2505050565b61108d61145b565b6110cc576040517f08c379a00000000000000000000000000000000000000000000000000000000081526004016110c3906123f8565b60405180910390fd5b6001600685856040516110e0929190612282565b9081526020016040518091039020541461112f576040517f08c379a000000000000000000000000000000000000000000000000000000000815260040161112690612895565b60405180910390fd5b80600760009054906101000a900473ffffffffffffffffffffffffffffffffffffffff1673ffffffffffffffffffffffffffffffffffffffff166370a08231600260009054906101000a900473ffffffffffffffffffffffffffffffffffffffff166040518263ffffffff1660e01b81526004016111ad9190611c3e565b602060405180830381865afa1580156111ca573d6000803e3d6000fd5b505050506040513d601f19601f820116820180604052508101906111ee91906128ca565b101561122f576040517f08c379a000000000000000000000000000000000000000000000000000000000815260040161122690612943565b60405180910390fd5b600760009054906101000a900473ffffffffffffffffffffffffffffffffffffffff1673ffffffffffffffffffffffffffffffffffffffff166323b872dd600260009054906101000a900473ffffffffffffffffffffffffffffffffffffffff1630846040518463ffffffff1660e01b81526004016112b093929190612963565b6020604051808303816000875af11580156112cf573d6000803e3d6000fd5b505050506040513d601f19601f820116820180604052508101906112f391906125da565b611332576040517f08c379a0000000000000000000000000000000000000000000000000000000008152600401611329906129e6565b60405180910390fd5b8060048585604051611345929190612282565b908152602001604051809103902060008282546113629190612a06565b92505081905550806003858560405161137c929190612282565b9081526020016040518091039020838154811061139c5761139b61229b565b5b9060005260206000200160008282546113b59190612a06565b925050819055508184846040516113cd929190612282565b60405180910390207f9b6a62a6be19f8204c05044b3e9d17d2b27487807e7e76b5e279ba0d6531a946836040516114049190611e54565b60405180910390a350505050565b6005818051602081018201805184825260208301602085012081835280955050505050506000915054906101000a900473ffffffffffffffffffffffffffffffffffffffff1681565b6000600260009054906101000a900473ffffffffffffffffffffffffffffffffffffffff1673ffffffffffffffffffffffffffffffffffffffff163373ffffffffffffffffffffffffffffffffffffffff1614905090565b6114bb61145b565b6114fa576040517f08c379a00000000000000000000000000000000000000000000000000000000081526004016114f1906123f8565b60405180910390fd5b60006003848460405161150e929190612282565b9081526020016040518091039020805490501415801561154e575060016006848460405161153d929190612282565b908152602001604051809103902054145b61158d576040517f08c379a000000000000000000000000000000000000000000000000000000000815260040161158490612565565b60405180910390fd5b6002600684846040516115a1929190612282565b908152602001604051809103902081905550600260009054906101000a900473ffffffffffffffffffffffffffffffffffffffff16600584846040516115e8929190612282565b908152602001604051809103902060006101000a81548173ffffffffffffffffffffffffffffffffffffffff021916908373ffffffffffffffffffffffffffffffffffffffff1602179055506116628383600260009054906101000a900473ffffffffffffffffffffffffffffffffffffffff16846117a4565b505050565b6000600260009054906101000a900473ffffffffffffffffffffffffffffffffffffffff16905090565b61169961145b565b6116d8576040517f08c379a00000000000000000000000000000000000000000000000000000000081526004016116cf906123f8565b60405180910390fd5b6116e181611a4a565b50565b33600260006101000a81548173ffffffffffffffffffffffffffffffffffffffff021916908373ffffffffffffffffffffffffffffffffffffffff160217905550600260009054906101000a900473ffffffffffffffffffffffffffffffffffffffff1673ffffffffffffffffffffffffffffffffffffffff16600073ffffffffffffffffffffffffffffffffffffffff167f8be0079c531659141344cd1fd0a4f28419497f9722a3daafe3b4186f6b6457e060405160405180910390a3565b60006064600954600487876040516117bd929190612282565b9081526020016040518091039020546117d691906122f9565b6117e0919061236a565b9050600081600487876040516117f7929190612282565b9081526020016040518091039020546118109190612a3a565b9050600760009054906101000a900473ffffffffffffffffffffffffffffffffffffffff1673ffffffffffffffffffffffffffffffffffffffff1663a9059cbb600860009054906101000a900473ffffffffffffffffffffffffffffffffffffffff16846040518363ffffffff1660e01b8152600401611891929190612585565b6020604051808303816000875af11580156118b0573d6000803e3d6000fd5b505050506040513d601f19601f820116820180604052508101906118d491906125da565b611913576040517f08c379a000000000000000000000000000000000000000000000000000000000815260040161190a90612aba565b60405180910390fd5b600760009054906101000a900473ffffffffffffffffffffffffffffffffffffffff1673ffffffffffffffffffffffffffffffffffffffff1663a9059cbb85836040518363ffffffff1660e01b8152600401611970929190612585565b6020604051808303816000875af115801561198f573d6000803e3d6000fd5b505050506040513d601f19601f820116820180604052508101906119b391906125da565b6119f2576040517f08c379a00000000000000000000000000000000000000000000000000000000081526004016119e990612b26565b60405180910390fd5b828686604051611a03929190612282565b60405180910390207f8fde3b360b5e31dab83d1d7f31a1766b7a8b1a7791a9fb92851c3554b42c3fe486604051611a3a9190611c3e565b60405180910390a3505050505050565b600073ffffffffffffffffffffffffffffffffffffffff168173ffffffffffffffffffffffffffffffffffffffff1603611ab9576040517f08c379a0000000000000000000000000000000000000000000000000000000008152600401611ab090612bb8565b60405180910390fd5b8073ffffffffffffffffffffffffffffffffffffffff16600260009054906101000a900473ffffffffffffffffffffffffffffffffffffffff1673ffffffffffffffffffffffffffffffffffffffff167f8be0079c531659141344cd1fd0a4f28419497f9722a3daafe3b4186f6b6457e060405160405180910390a380600260006101000a81548173ffffffffffffffffffffffffffffffffffffffff021916908373ffffffffffffffffffffffffffffffffffffffff16021790555050565b604051806040016040528060008152602001600081525090565b828054828255906000526020600020908101928215611bcf579160200282015b82811115611bce578251825591602001919060010190611bb3565b5b509050611bdc9190611be0565b5090565b5b80821115611bf9576000816000905550600101611be1565b5090565b600073ffffffffffffffffffffffffffffffffffffffff82169050919050565b6000611c2882611bfd565b9050919050565b611c3881611c1d565b82525050565b6000602082019050611c536000830184611c2f565b92915050565b6000604051905090565b600080fd5b600080fd5b600080fd5b600080fd5b6000601f19601f8301169050919050565b7f4e487b7100000000000000000000000000000000000000000000000000000000600052604160045260246000fd5b611cc082611c77565b810181811067ffffffffffffffff82111715611cdf57611cde611c88565b5b80604052505050565b6000611cf2611c59565b9050611cfe8282611cb7565b919050565b600067ffffffffffffffff821115611d1e57611d1d611c88565b5b611d2782611c77565b9050602081019050919050565b82818337600083830152505050565b6000611d56611d5184611d03565b611ce8565b905082815260208101848484011115611d7257611d71611c72565b5b611d7d848285611d34565b509392505050565b600082601f830112611d9a57611d99611c6d565b5b8135611daa848260208601611d43565b91505092915050565b6000819050919050565b611dc681611db3565b8114611dd157600080fd5b50565b600081359050611de381611dbd565b92915050565b60008060408385031215611e0057611dff611c63565b5b600083013567ffffffffffffffff811115611e1e57611e1d611c68565b5b611e2a85828601611d85565b9250506020611e3b85828601611dd4565b9150509250929050565b611e4e81611db3565b82525050565b6000602082019050611e696000830184611e45565b92915050565b600080fd5b600080fd5b60008083601f840112611e8f57611e8e611c6d565b5b8235905067ffffffffffffffff811115611eac57611eab611e6f565b5b602083019150836001820283011115611ec857611ec7611e74565b5b9250929050565b60008060208385031215611ee657611ee5611c63565b5b600083013567ffffffffffffffff811115611f0457611f03611c68565b5b611f1085828601611e79565b92509250509250929050565b600081519050919050565b600082825260208201905092915050565b6000819050602082019050919050565b611f5181611db3565b82525050565b604082016000820151611f6d6000850182611f48565b506020820151611f806020850182611f48565b50505050565b6000611f928383611f57565b60408301905092915050565b6000602082019050919050565b6000611fb682611f1c565b611fc08185611f27565b9350611fcb83611f38565b8060005b83811015611ffc578151611fe38882611f86565b9750611fee83611f9e565b925050600181019050611fcf565b5085935050505092915050565b600060408201905061201e6000830185611e45565b81810360208301526120308184611fab565b90509392505050565b60006020828403121561204f5761204e611c63565b5b600082013567ffffffffffffffff81111561206d5761206c611c68565b5b61207984828501611d85565b91505092915050565b61208b81611c1d565b811461209657600080fd5b50565b6000813590506120a881612082565b92915050565b6000602082840312156120c4576120c3611c63565b5b60006120d284828501612099565b91505092915050565b600080604083850312156120f2576120f1611c63565b5b600061210085828601612099565b925050602061211185828601612099565b9150509250929050565b60006020828403121561213157612130611c63565b5b600061213f84828501611dd4565b91505092915050565b60008060006040848603121561216157612160611c63565b5b600084013567ffffffffffffffff81111561217f5761217e611c68565b5b61218b86828701611e79565b9350935050602061219e86828701611dd4565b9150509250925092565b600080600080606085870312156121c2576121c1611c63565b5b600085013567ffffffffffffffff8111156121e0576121df611c68565b5b6121ec87828801611e79565b945094505060206121ff87828801611dd4565b925050604061221087828801611dd4565b91505092959194509250565b60008115159050919050565b6122318161221c565b82525050565b600060208201905061224c6000830184612228565b92915050565b600081905092915050565b60006122698385612252565b9350612276838584611d34565b82840190509392505050565b600061228f82848661225d565b91508190509392505050565b7f4e487b7100000000000000000000000000000000000000000000000000000000600052603260045260246000fd5b7f4e487b7100000000000000000000000000000000000000000000000000000000600052601160045260246000fd5b600061230482611db3565b915061230f83611db3565b925082820261231d81611db3565b91508282048414831517612334576123336122ca565b5b5092915050565b7f4e487b7100000000000000000000000000000000000000000000000000000000600052601260045260246000fd5b600061237582611db3565b915061238083611db3565b9250826123905761238f61233b565b5b828204905092915050565b600082825260208201905092915050565b7f4f776e61626c653a2063616c6c6572206973206e6f7420746865206f776e6572600082015250565b60006123e260208361239b565b91506123ed826123ac565b602082019050919050565b60006020820190508181036000830152612411816123d5565b9050919050565b7f496e76616c696420616464726573733a207a65726f2061646472657373000000600082015250565b600061244e601d8361239b565b915061245982612418565b602082019050919050565b6000602082019050818103600083015261247d81612441565b9050919050565b60006040820190506124996000830185611c2f565b6124a66020830184611c2f565b9392505050565b7f4d75737420626520696e697469616c697a65642066726f6d2070726f78790000600082015250565b60006124e3601e8361239b565b91506124ee826124ad565b602082019050919050565b60006020820190508181036000830152612512816124d6565b9050919050565b7f636f6e646974696f6e206e6f7420707265706172656400000000000000000000600082015250565b600061254f60168361239b565b915061255a82612519565b602082019050919050565b6000602082019050818103600083015261257e81612542565b9050919050565b600060408201905061259a6000830185611c2f565b6125a76020830184611e45565b9392505050565b6125b78161221c565b81146125c257600080fd5b50565b6000815190506125d4816125ae565b92915050565b6000602082840312156125f0576125ef611c63565b5b60006125fe848285016125c5565b91505092915050565b7f5472616e73666572206661696c65640000000000000000000000000000000000600082015250565b600061263d600f8361239b565b915061264882612607565b602082019050919050565b6000602082019050818103600083015261266c81612630565b9050919050565b7f4665652063616e6e6f74206265206c657373207468616e203000000000000000600082015250565b60006126a960198361239b565b91506126b482612673565b602082019050919050565b600060208201905081810360008301526126d88161269c565b9050919050565b7f746f6f206d616e79206f7574636f6d6520736c6f747300000000000000000000600082015250565b600061271560168361239b565b9150612720826126df565b602082019050919050565b6000602082019050818103600083015261274481612708565b9050919050565b7f74686572652073686f756c64206265206d6f7265207468616e206f6e65206f7560008201527f74636f6d6520736c6f7400000000000000000000000000000000000000000000602082015250565b60006127a7602a8361239b565b91506127b28261274b565b604082019050919050565b600060208201905081810360008301526127d68161279a565b9050919050565b7f636f6e646974696f6e20616c7265616479207072657061726564000000000000600082015250565b6000612813601a8361239b565b915061281e826127dd565b602082019050919050565b6000602082019050818103600083015261284281612806565b9050919050565b7f6e6f742070726570617265640000000000000000000000000000000000000000600082015250565b600061287f600c8361239b565b915061288a82612849565b602082019050919050565b600060208201905081810360008301526128ae81612872565b9050919050565b6000815190506128c481611dbd565b92915050565b6000602082840312156128e0576128df611c63565b5b60006128ee848285016128b5565b91505092915050565b7f496e73756666696369656e7420746f6b656e2062616c616e6365000000000000600082015250565b600061292d601a8361239b565b9150612938826128f7565b602082019050919050565b6000602082019050818103600083015261295c81612920565b9050919050565b60006060820190506129786000830186611c2f565b6129856020830185611c2f565b6129926040830184611e45565b949350505050565b7f546f6b656e207472616e73666572206661696c65640000000000000000000000600082015250565b60006129d060158361239b565b91506129db8261299a565b602082019050919050565b600060208201905081810360008301526129ff816129c3565b9050919050565b6000612a1182611db3565b9150612a1c83611db3565b9250828201905080821115612a3457612a336122ca565b5b92915050565b6000612a4582611db3565b9150612a5083611db3565b9250828203905081811115612a6857612a676122ca565b5b92915050565b7f466565207472616e73666572206661696c656400000000000000000000000000600082015250565b6000612aa460138361239b565b9150612aaf82612a6e565b602082019050919050565b60006020820190508181036000830152612ad381612a97565b9050919050565b7f5769746864726177207472616e73666572206661696c65640000000000000000600082015250565b6000612b1060188361239b565b9150612b1b82612ada565b602082019050919050565b60006020820190508181036000830152612b3f81612b03565b9050919050565b7f4f776e61626c653a206e6577206f776e657220697320746865207a65726f206160008201527f6464726573730000000000000000000000000000000000000000000000000000602082015250565b6000612ba260268361239b565b9150612bad82612b46565b604082019050919050565b60006020820190508181036000830152612bd181612b95565b905091905056fea26469706673582212201877303251704622711d7819c1a0421c9874bd8348660ac7e70e553a7df6db5464736f6c63430008180033","opcodes":"PUSH1 0x80 PUSH1 0x40 MSTORE CALLVALUE DUP1 ISZERO PUSH2 0x10 JUMPI PUSH1 0x0 DUP1 REVERT JUMPDEST POP PUSH2 0x2C0E DUP1 PUSH2 0x20 PUSH1 0x0 CODECOPY PUSH1 0x0 RETURN INVALID PUSH1 0x80 PUSH1 0x40 MSTORE CALLVALUE DUP1 ISZERO PUSH2 0x10 JUMPI PUSH1 0x0 DUP1 REVERT JUMPDEST POP PUSH1 0x4 CALLDATASIZE LT PUSH2 0x12C JUMPI PUSH1 0x0 CALLDATALOAD PUSH1 0xE0 SHR DUP1 PUSH4 0x6B392680 GT PUSH2 0xAD JUMPI DUP1 PUSH4 0x8DCD9503 GT PUSH2 0x71 JUMPI DUP1 PUSH4 0x8DCD9503 EQ PUSH2 0x31A JUMPI DUP1 PUSH4 0x8F32D59B EQ PUSH2 0x34A JUMPI DUP1 PUSH4 0x9BA829F7 EQ PUSH2 0x368 JUMPI DUP1 PUSH4 0xCE606EE0 EQ PUSH2 0x384 JUMPI DUP1 PUSH4 0xF2FDE38B EQ PUSH2 0x3A2 JUMPI PUSH2 0x12C JUMP JUMPDEST DUP1 PUSH4 0x6B392680 EQ PUSH2 0x2A0 JUMPI DUP1 PUSH4 0x715018A6 EQ PUSH2 0x2BC JUMPI DUP1 PUSH4 0x7C08B964 EQ PUSH2 0x2C6 JUMPI DUP1 PUSH4 0x83D7CD95 EQ PUSH2 0x2E2 JUMPI DUP1 PUSH4 0x88B922D5 EQ PUSH2 0x2FE JUMPI PUSH2 0x12C JUMP JUMPDEST DUP1 PUSH4 0x466CF93A GT PUSH2 0xF4 JUMPI DUP1 PUSH4 0x466CF93A EQ PUSH2 0x210 JUMPI DUP1 PUSH4 0x485CC955 EQ PUSH2 0x22C JUMPI DUP1 PUSH4 0x5A9E497D EQ PUSH2 0x248 JUMPI DUP1 PUSH4 0x621BBEF7 EQ PUSH2 0x266 JUMPI DUP1 PUSH4 0x694B3367 EQ PUSH2 0x284 JUMPI PUSH2 0x12C JUMP JUMPDEST DUP1 PUSH4 0x17E7E58 EQ PUSH2 0x131 JUMPI DUP1 PUSH4 0x1062D861 EQ PUSH2 0x14F JUMPI DUP1 PUSH4 0x15EB3F30 EQ PUSH2 0x17F JUMPI DUP1 PUSH4 0x2762B602 EQ PUSH2 0x1B0 JUMPI DUP1 PUSH4 0x320979A2 EQ PUSH2 0x1E0 JUMPI JUMPDEST PUSH1 0x0 DUP1 REVERT JUMPDEST PUSH2 0x139 PUSH2 0x3BE JUMP JUMPDEST PUSH1 0x40 MLOAD PUSH2 0x146 SWAP2 SWAP1 PUSH2 0x1C3E JUMP JUMPDEST PUSH1 0x40 MLOAD DUP1 SWAP2 SUB SWAP1 RETURN JUMPDEST PUSH2 0x169 PUSH1 0x4 DUP1 CALLDATASIZE SUB DUP2 ADD SWAP1 PUSH2 0x164 SWAP2 SWAP1 PUSH2 0x1DE9 JUMP JUMPDEST PUSH2 0x3E4 JUMP JUMPDEST PUSH1 0x40 MLOAD PUSH2 0x176 SWAP2 SWAP1 PUSH2 0x1E54 JUMP JUMPDEST PUSH1 0x40 MLOAD DUP1 SWAP2 SUB SWAP1 RETURN JUMPDEST PUSH2 0x199 PUSH1 0x4 DUP1 CALLDATASIZE SUB DUP2 ADD SWAP1 PUSH2 0x194 SWAP2 SWAP1 PUSH2 0x1ECF JUMP JUMPDEST PUSH2 0x42B JUMP JUMPDEST PUSH1 0x40 MLOAD PUSH2 0x1A7 SWAP3 SWAP2 SWAP1 PUSH2 0x2009 JUMP JUMPDEST PUSH1 0x40 MLOAD DUP1 SWAP2 SUB SWAP1 RETURN JUMPDEST PUSH2 0x1CA PUSH1 0x4 DUP1 CALLDATASIZE SUB DUP2 ADD SWAP1 PUSH2 0x1C5 SWAP2 SWAP1 PUSH2 0x2039 JUMP JUMPDEST PUSH2 0x5F6 JUMP JUMPDEST PUSH1 0x40 MLOAD PUSH2 0x1D7 SWAP2 SWAP1 PUSH2 0x1E54 JUMP JUMPDEST PUSH1 0x40 MLOAD DUP1 SWAP2 SUB SWAP1 RETURN JUMPDEST PUSH2 0x1FA PUSH1 0x4 DUP1 CALLDATASIZE SUB DUP2 ADD SWAP1 PUSH2 0x1F5 SWAP2 SWAP1 PUSH2 0x2039 JUMP JUMPDEST PUSH2 0x624 JUMP JUMPDEST PUSH1 0x40 MLOAD PUSH2 0x207 SWAP2 SWAP1 PUSH2 0x1E54 JUMP JUMPDEST PUSH1 0x40 MLOAD DUP1 SWAP2 SUB SWAP1 RETURN JUMPDEST PUSH2 0x22A PUSH1 0x4 DUP1 CALLDATASIZE SUB DUP2 ADD SWAP1 PUSH2 0x225 SWAP2 SWAP1 PUSH2 0x20AE JUMP JUMPDEST PUSH2 0x652 JUMP JUMPDEST STOP JUMPDEST PUSH2 0x246 PUSH1 0x4 DUP1 CALLDATASIZE SUB DUP2 ADD SWAP1 PUSH2 0x241 SWAP2 SWAP1 PUSH2 0x20DB JUMP JUMPDEST PUSH2 0x7AD JUMP JUMPDEST STOP JUMPDEST PUSH2 0x250 PUSH2 0x8CA JUMP JUMPDEST PUSH1 0x40 MLOAD PUSH2 0x25D SWAP2 SWAP1 PUSH2 0x1E54 JUMP JUMPDEST PUSH1 0x40 MLOAD DUP1 SWAP2 SUB SWAP1 RETURN JUMPDEST PUSH2 0x26E PUSH2 0x8D0 JUMP JUMPDEST PUSH1 0x40 MLOAD PUSH2 0x27B SWAP2 SWAP1 PUSH2 0x1C3E JUMP JUMPDEST PUSH1 0x40 MLOAD DUP1 SWAP2 SUB SWAP1 RETURN JUMPDEST PUSH2 0x29E PUSH1 0x4 DUP1 CALLDATASIZE SUB DUP2 ADD SWAP1 PUSH2 0x299 SWAP2 SWAP1 PUSH2 0x1ECF JUMP JUMPDEST PUSH2 0x8F6 JUMP JUMPDEST STOP JUMPDEST PUSH2 0x2BA PUSH1 0x4 DUP1 CALLDATASIZE SUB DUP2 ADD SWAP1 PUSH2 0x2B5 SWAP2 SWAP1 PUSH2 0x211B JUMP JUMPDEST PUSH2 0xB35 JUMP JUMPDEST STOP JUMPDEST PUSH2 0x2C4 PUSH2 0xBCA JUMP JUMPDEST STOP JUMPDEST PUSH2 0x2E0 PUSH1 0x4 DUP1 CALLDATASIZE SUB DUP2 ADD SWAP1 PUSH2 0x2DB SWAP2 SWAP1 PUSH2 0x20AE JUMP JUMPDEST PUSH2 0xCD2 JUMP JUMPDEST STOP JUMPDEST PUSH2 0x2FC PUSH1 0x4 DUP1 CALLDATASIZE SUB DUP2 ADD SWAP1 PUSH2 0x2F7 SWAP2 SWAP1 PUSH2 0x2148 JUMP JUMPDEST PUSH2 0xE2D JUMP JUMPDEST STOP JUMPDEST PUSH2 0x318 PUSH1 0x4 DUP1 CALLDATASIZE SUB DUP2 ADD SWAP1 PUSH2 0x313 SWAP2 SWAP1 PUSH2 0x21A8 JUMP JUMPDEST PUSH2 0x1085 JUMP JUMPDEST STOP JUMPDEST PUSH2 0x334 PUSH1 0x4 DUP1 CALLDATASIZE SUB DUP2 ADD SWAP1 PUSH2 0x32F SWAP2 SWAP1 PUSH2 0x2039 JUMP JUMPDEST PUSH2 0x1412 JUMP JUMPDEST PUSH1 0x40 MLOAD PUSH2 0x341 SWAP2 SWAP1 PUSH2 0x1C3E JUMP JUMPDEST PUSH1 0x40 MLOAD DUP1 SWAP2 SUB SWAP1 RETURN JUMPDEST PUSH2 0x352 PUSH2 0x145B JUMP JUMPDEST PUSH1 0x40 MLOAD PUSH2 0x35F SWAP2 SWAP1 PUSH2 0x2237 JUMP JUMPDEST PUSH1 0x40 MLOAD DUP1 SWAP2 SUB SWAP1 RETURN JUMPDEST PUSH2 0x382 PUSH1 0x4 DUP1 CALLDATASIZE SUB DUP2 ADD SWAP1 PUSH2 0x37D SWAP2 SWAP1 PUSH2 0x2148 JUMP JUMPDEST PUSH2 0x14B3 JUMP JUMPDEST STOP JUMPDEST PUSH2 0x38C PUSH2 0x1667 JUMP JUMPDEST PUSH1 0x40 MLOAD PUSH2 0x399 SWAP2 SWAP1 PUSH2 0x1C3E JUMP JUMPDEST PUSH1 0x40 MLOAD DUP1 SWAP2 SUB SWAP1 RETURN JUMPDEST PUSH2 0x3BC PUSH1 0x4 DUP1 CALLDATASIZE SUB DUP2 ADD SWAP1 PUSH2 0x3B7 SWAP2 SWAP1 PUSH2 0x20AE JUMP JUMPDEST PUSH2 0x1691 JUMP JUMPDEST STOP JUMPDEST PUSH1 0x8 PUSH1 0x0 SWAP1 SLOAD SWAP1 PUSH2 0x100 EXP SWAP1 DIV PUSH20 0xFFFFFFFFFFFFFFFFFFFFFFFFFFFFFFFFFFFFFFFF AND DUP2 JUMP JUMPDEST PUSH1 0x3 DUP3 DUP1 MLOAD PUSH1 0x20 DUP2 ADD DUP3 ADD DUP1 MLOAD DUP5 DUP3 MSTORE PUSH1 0x20 DUP4 ADD PUSH1 0x20 DUP6 ADD KECCAK256 DUP2 DUP4 MSTORE DUP1 SWAP6 POP POP POP POP POP POP DUP2 DUP2 SLOAD DUP2 LT PUSH2 0x416 JUMPI PUSH1 0x0 DUP1 REVERT JUMPDEST SWAP1 PUSH1 0x0 MSTORE PUSH1 0x20 PUSH1 0x0 KECCAK256 ADD PUSH1 0x0 SWAP2 POP SWAP2 POP POP SLOAD DUP2 JUMP JUMPDEST PUSH1 0x0 PUSH1 0x60 PUSH1 0x4 DUP5 DUP5 PUSH1 0x40 MLOAD PUSH2 0x441 SWAP3 SWAP2 SWAP1 PUSH2 0x2282 JUMP JUMPDEST SWAP1 DUP2 MSTORE PUSH1 0x20 ADD PUSH1 0x40 MLOAD DUP1 SWAP2 SUB SWAP1 KECCAK256 SLOAD SWAP2 POP PUSH1 0x0 PUSH1 0x3 DUP6 DUP6 PUSH1 0x40 MLOAD PUSH2 0x466 SWAP3 SWAP2 SWAP1 PUSH2 0x2282 JUMP JUMPDEST SWAP1 DUP2 MSTORE PUSH1 0x20 ADD PUSH1 0x40 MLOAD DUP1 SWAP2 SUB SWAP1 KECCAK256 DUP1 SLOAD DUP1 PUSH1 0x20 MUL PUSH1 0x20 ADD PUSH1 0x40 MLOAD SWAP1 DUP2 ADD PUSH1 0x40 MSTORE DUP1 SWAP3 SWAP2 SWAP1 DUP2 DUP2 MSTORE PUSH1 0x20 ADD DUP3 DUP1 SLOAD DUP1 ISZERO PUSH2 0x4BE JUMPI PUSH1 0x20 MUL DUP3 ADD SWAP2 SWAP1 PUSH1 0x0 MSTORE PUSH1 0x20 PUSH1 0x0 KECCAK256 SWAP1 JUMPDEST DUP2 SLOAD DUP2 MSTORE PUSH1 0x20 ADD SWAP1 PUSH1 0x1 ADD SWAP1 DUP1 DUP4 GT PUSH2 0x4AA JUMPI JUMPDEST POP POP POP POP POP SWAP1 POP DUP1 MLOAD PUSH8 0xFFFFFFFFFFFFFFFF DUP2 GT ISZERO PUSH2 0x4E0 JUMPI PUSH2 0x4DF PUSH2 0x1C88 JUMP JUMPDEST JUMPDEST PUSH1 0x40 MLOAD SWAP1 DUP1 DUP3 MSTORE DUP1 PUSH1 0x20 MUL PUSH1 0x20 ADD DUP3 ADD PUSH1 0x40 MSTORE DUP1 ISZERO PUSH2 0x519 JUMPI DUP2 PUSH1 0x20 ADD JUMPDEST PUSH2 0x506 PUSH2 0x1B79 JUMP JUMPDEST DUP2 MSTORE PUSH1 0x20 ADD SWAP1 PUSH1 0x1 SWAP1 SUB SWAP1 DUP2 PUSH2 0x4FE JUMPI SWAP1 POP JUMPDEST POP SWAP2 POP PUSH1 0x0 JUMPDEST DUP2 MLOAD DUP2 LT ISZERO PUSH2 0x5ED JUMPI PUSH1 0x0 DUP3 DUP3 DUP2 MLOAD DUP2 LT PUSH2 0x53D JUMPI PUSH2 0x53C PUSH2 0x229B JUMP JUMPDEST JUMPDEST PUSH1 0x20 MUL PUSH1 0x20 ADD ADD MLOAD EQ PUSH2 0x5E0 JUMPI DUP2 DUP2 DUP2 MLOAD DUP2 LT PUSH2 0x55D JUMPI PUSH2 0x55C PUSH2 0x229B JUMP JUMPDEST JUMPDEST PUSH1 0x20 MUL PUSH1 0x20 ADD ADD MLOAD DUP4 DUP3 DUP2 MLOAD DUP2 LT PUSH2 0x578 JUMPI PUSH2 0x577 PUSH2 0x229B JUMP JUMPDEST JUMPDEST PUSH1 0x20 MUL PUSH1 0x20 ADD ADD MLOAD PUSH1 0x0 ADD DUP2 DUP2 MSTORE POP POP DUP2 DUP2 DUP2 MLOAD DUP2 LT PUSH2 0x59B JUMPI PUSH2 0x59A PUSH2 0x229B JUMP JUMPDEST JUMPDEST PUSH1 0x20 MUL PUSH1 0x20 ADD ADD MLOAD PUSH3 0xF4240 DUP6 PUSH2 0x5B2 SWAP2 SWAP1 PUSH2 0x22F9 JUMP JUMPDEST PUSH2 0x5BC SWAP2 SWAP1 PUSH2 0x236A JUMP JUMPDEST DUP4 DUP3 DUP2 MLOAD DUP2 LT PUSH2 0x5CF JUMPI PUSH2 0x5CE PUSH2 0x229B JUMP JUMPDEST JUMPDEST PUSH1 0x20 MUL PUSH1 0x20 ADD ADD MLOAD PUSH1 0x20 ADD DUP2 DUP2 MSTORE POP POP JUMPDEST DUP1 DUP1 PUSH1 0x1 ADD SWAP2 POP POP PUSH2 0x51F JUMP JUMPDEST POP POP SWAP3 POP SWAP3 SWAP1 POP JUMP JUMPDEST PUSH1 0x4 DUP2 DUP1 MLOAD PUSH1 0x20 DUP2 ADD DUP3 ADD DUP1 MLOAD DUP5 DUP3 MSTORE PUSH1 0x20 DUP4 ADD PUSH1 0x20 DUP6 ADD KECCAK256 DUP2 DUP4 MSTORE DUP1 SWAP6 POP POP POP POP POP POP PUSH1 0x0 SWAP2 POP SWAP1 POP SLOAD DUP2 JUMP JUMPDEST PUSH1 0x6 DUP2 DUP1 MLOAD PUSH1 0x20 DUP2 ADD DUP3 ADD DUP1 MLOAD DUP5 DUP3 MSTORE PUSH1 0x20 DUP4 ADD PUSH1 0x20 DUP6 ADD KECCAK256 DUP2 DUP4 MSTORE DUP1 SWAP6 POP POP POP POP POP POP PUSH1 0x0 SWAP2 POP SWAP1 POP SLOAD DUP2 JUMP JUMPDEST PUSH2 0x65A PUSH2 0x145B JUMP JUMPDEST PUSH2 0x699 JUMPI PUSH1 0x40 MLOAD PUSH32 0x8C379A000000000000000000000000000000000000000000000000000000000 DUP2 MSTORE PUSH1 0x4 ADD PUSH2 0x690 SWAP1 PUSH2 0x23F8 JUMP JUMPDEST PUSH1 0x40 MLOAD DUP1 SWAP2 SUB SWAP1 REVERT JUMPDEST PUSH1 0x0 PUSH20 0xFFFFFFFFFFFFFFFFFFFFFFFFFFFFFFFFFFFFFFFF AND DUP2 PUSH20 0xFFFFFFFFFFFFFFFFFFFFFFFFFFFFFFFFFFFFFFFF AND SUB PUSH2 0x708 JUMPI PUSH1 0x40 MLOAD PUSH32 0x8C379A000000000000000000000000000000000000000000000000000000000 DUP2 MSTORE PUSH1 0x4 ADD PUSH2 0x6FF SWAP1 PUSH2 0x2464 JUMP JUMPDEST PUSH1 0x40 MLOAD DUP1 SWAP2 SUB SWAP1 REVERT JUMPDEST PUSH1 0x0 PUSH1 0x7 PUSH1 0x0 SWAP1 SLOAD SWAP1 PUSH2 0x100 EXP SWAP1 DIV PUSH20 0xFFFFFFFFFFFFFFFFFFFFFFFFFFFFFFFFFFFFFFFF AND SWAP1 POP DUP2 PUSH1 0x7 PUSH1 0x0 PUSH2 0x100 EXP DUP2 SLOAD DUP2 PUSH20 0xFFFFFFFFFFFFFFFFFFFFFFFFFFFFFFFFFFFFFFFF MUL NOT AND SWAP1 DUP4 PUSH20 0xFFFFFFFFFFFFFFFFFFFFFFFFFFFFFFFFFFFFFFFF AND MUL OR SWAP1 SSTORE POP PUSH32 0x47BBED8023AC1A0FE3025394C8F6B641A067058C37BC4EB3B7CCD0C68A7606B8 DUP2 DUP4 PUSH1 0x40 MLOAD PUSH2 0x7A1 SWAP3 SWAP2 SWAP1 PUSH2 0x2484 JUMP JUMPDEST PUSH1 0x40 MLOAD DUP1 SWAP2 SUB SWAP1 LOG1 POP POP JUMP JUMPDEST PUSH1 0x0 PUSH20 0xFFFFFFFFFFFFFFFFFFFFFFFFFFFFFFFFFFFFFFFF AND PUSH1 0x0 DUP1 SLOAD SWAP1 PUSH2 0x100 EXP SWAP1 DIV PUSH20 0xFFFFFFFFFFFFFFFFFFFFFFFFFFFFFFFFFFFFFFFF AND PUSH20 0xFFFFFFFFFFFFFFFFFFFFFFFFFFFFFFFFFFFFFFFF AND SUB PUSH2 0x83C JUMPI PUSH1 0x40 MLOAD PUSH32 0x8C379A000000000000000000000000000000000000000000000000000000000 DUP2 MSTORE PUSH1 0x4 ADD PUSH2 0x833 SWAP1 PUSH2 0x24F9 JUMP JUMPDEST PUSH1 0x40 MLOAD DUP1 SWAP2 SUB SWAP1 REVERT JUMPDEST PUSH2 0x844 PUSH2 0x16E4 JUMP JUMPDEST DUP2 PUSH1 0x7 PUSH1 0x0 PUSH2 0x100 EXP DUP2 SLOAD DUP2 PUSH20 0xFFFFFFFFFFFFFFFFFFFFFFFFFFFFFFFFFFFFFFFF MUL NOT AND SWAP1 DUP4 PUSH20 0xFFFFFFFFFFFFFFFFFFFFFFFFFFFFFFFFFFFFFFFF AND MUL OR SWAP1 SSTORE POP DUP1 PUSH1 0x8 PUSH1 0x0 PUSH2 0x100 EXP DUP2 SLOAD DUP2 PUSH20 0xFFFFFFFFFFFFFFFFFFFFFFFFFFFFFFFFFFFFFFFF MUL NOT AND SWAP1 DUP4 PUSH20 0xFFFFFFFFFFFFFFFFFFFFFFFFFFFFFFFFFFFFFFFF AND MUL OR SWAP1 SSTORE POP POP POP JUMP JUMPDEST PUSH1 0x9 SLOAD DUP2 JUMP JUMPDEST PUSH1 0x7 PUSH1 0x0 SWAP1 SLOAD SWAP1 PUSH2 0x100 EXP SWAP1 DIV PUSH20 0xFFFFFFFFFFFFFFFFFFFFFFFFFFFFFFFFFFFFFFFF AND DUP2 JUMP JUMPDEST PUSH2 0x8FE PUSH2 0x145B JUMP JUMPDEST PUSH2 0x93D JUMPI PUSH1 0x40 MLOAD PUSH32 0x8C379A000000000000000000000000000000000000000000000000000000000 DUP2 MSTORE PUSH1 0x4 ADD PUSH2 0x934 SWAP1 PUSH2 0x23F8 JUMP JUMPDEST PUSH1 0x40 MLOAD DUP1 SWAP2 SUB SWAP1 REVERT JUMPDEST PUSH1 0x1 PUSH1 0x6 DUP4 DUP4 PUSH1 0x40 MLOAD PUSH2 0x951 SWAP3 SWAP2 SWAP1 PUSH2 0x2282 JUMP JUMPDEST SWAP1 DUP2 MSTORE PUSH1 0x20 ADD PUSH1 0x40 MLOAD DUP1 SWAP2 SUB SWAP1 KECCAK256 SLOAD EQ PUSH2 0x9A0 JUMPI PUSH1 0x40 MLOAD PUSH32 0x8C379A000000000000000000000000000000000000000000000000000000000 DUP2 MSTORE PUSH1 0x4 ADD PUSH2 0x997 SWAP1 PUSH2 0x2565 JUMP JUMPDEST PUSH1 0x40 MLOAD DUP1 SWAP2 SUB SWAP1 REVERT JUMPDEST PUSH1 0x3 PUSH1 0x6 DUP4 DUP4 PUSH1 0x40 MLOAD PUSH2 0x9B4 SWAP3 SWAP2 SWAP1 PUSH2 0x2282 JUMP JUMPDEST SWAP1 DUP2 MSTORE PUSH1 0x20 ADD PUSH1 0x40 MLOAD DUP1 SWAP2 SUB SWAP1 KECCAK256 DUP2 SWAP1 SSTORE POP PUSH1 0x0 PUSH1 0x4 DUP4 DUP4 PUSH1 0x40 MLOAD PUSH2 0x9DA SWAP3 SWAP2 SWAP1 PUSH2 0x2282 JUMP JUMPDEST SWAP1 DUP2 MSTORE PUSH1 0x20 ADD PUSH1 0x40 MLOAD DUP1 SWAP2 SUB SWAP1 KECCAK256 SLOAD SWAP1 POP PUSH1 0x7 PUSH1 0x0 SWAP1 SLOAD SWAP1 PUSH2 0x100 EXP SWAP1 DIV PUSH20 0xFFFFFFFFFFFFFFFFFFFFFFFFFFFFFFFFFFFFFFFF AND PUSH20 0xFFFFFFFFFFFFFFFFFFFFFFFFFFFFFFFFFFFFFFFF AND PUSH4 0xA9059CBB PUSH1 0x8 PUSH1 0x0 SWAP1 SLOAD SWAP1 PUSH2 0x100 EXP SWAP1 DIV PUSH20 0xFFFFFFFFFFFFFFFFFFFFFFFFFFFFFFFFFFFFFFFF AND DUP4 PUSH1 0x40 MLOAD DUP4 PUSH4 0xFFFFFFFF AND PUSH1 0xE0 SHL DUP2 MSTORE PUSH1 0x4 ADD PUSH2 0xA6A SWAP3 SWAP2 SWAP1 PUSH2 0x2585 JUMP JUMPDEST PUSH1 0x20 PUSH1 0x40 MLOAD DUP1 DUP4 SUB DUP2 PUSH1 0x0 DUP8 GAS CALL ISZERO DUP1 ISZERO PUSH2 0xA89 JUMPI RETURNDATASIZE PUSH1 0x0 DUP1 RETURNDATACOPY RETURNDATASIZE PUSH1 0x0 REVERT JUMPDEST POP POP POP POP PUSH1 0x40 MLOAD RETURNDATASIZE PUSH1 0x1F NOT PUSH1 0x1F DUP3 ADD AND DUP3 ADD DUP1 PUSH1 0x40 MSTORE POP DUP2 ADD SWAP1 PUSH2 0xAAD SWAP2 SWAP1 PUSH2 0x25DA JUMP JUMPDEST PUSH2 0xAEC JUMPI PUSH1 0x40 MLOAD PUSH32 0x8C379A000000000000000000000000000000000000000000000000000000000 DUP2 MSTORE PUSH1 0x4 ADD PUSH2 0xAE3 SWAP1 PUSH2 0x2653 JUMP JUMPDEST PUSH1 0x40 MLOAD DUP1 SWAP2 SUB SWAP1 REVERT JUMPDEST DUP3 DUP3 PUSH1 0x40 MLOAD PUSH2 0xAFC SWAP3 SWAP2 SWAP1 PUSH2 0x2282 JUMP JUMPDEST PUSH1 0x40 MLOAD DUP1 SWAP2 SUB SWAP1 KECCAK256 PUSH32 0xDE1E9C86643C2400BE5C0076C1FE395547C541D659999212B4E9F05639975B6F PUSH1 0x40 MLOAD PUSH1 0x40 MLOAD DUP1 SWAP2 SUB SWAP1 LOG2 POP POP POP JUMP JUMPDEST PUSH2 0xB3D PUSH2 0x145B JUMP JUMPDEST PUSH2 0xB7C JUMPI PUSH1 0x40 MLOAD PUSH32 0x8C379A000000000000000000000000000000000000000000000000000000000 DUP2 MSTORE PUSH1 0x4 ADD PUSH2 0xB73 SWAP1 PUSH2 0x23F8 JUMP JUMPDEST PUSH1 0x40 MLOAD DUP1 SWAP2 SUB SWAP1 REVERT JUMPDEST PUSH1 0x0 DUP2 LT ISZERO PUSH2 0xBC0 JUMPI PUSH1 0x40 MLOAD PUSH32 0x8C379A000000000000000000000000000000000000000000000000000000000 DUP2 MSTORE PUSH1 0x4 ADD PUSH2 0xBB7 SWAP1 PUSH2 0x26BF JUMP JUMPDEST PUSH1 0x40 MLOAD DUP1 SWAP2 SUB SWAP1 REVERT JUMPDEST DUP1 PUSH1 0x9 DUP2 SWAP1 SSTORE POP POP JUMP JUMPDEST PUSH2 0xBD2 PUSH2 0x145B JUMP JUMPDEST PUSH2 0xC11 JUMPI PUSH1 0x40 MLOAD PUSH32 0x8C379A000000000000000000000000000000000000000000000000000000000 DUP2 MSTORE PUSH1 0x4 ADD PUSH2 0xC08 SWAP1 PUSH2 0x23F8 JUMP JUMPDEST PUSH1 0x40 MLOAD DUP1 SWAP2 SUB SWAP1 REVERT JUMPDEST PUSH1 0x0 PUSH20 0xFFFFFFFFFFFFFFFFFFFFFFFFFFFFFFFFFFFFFFFF AND PUSH1 0x2 PUSH1 0x0 SWAP1 SLOAD SWAP1 PUSH2 0x100 EXP SWAP1 DIV PUSH20 0xFFFFFFFFFFFFFFFFFFFFFFFFFFFFFFFFFFFFFFFF AND PUSH20 0xFFFFFFFFFFFFFFFFFFFFFFFFFFFFFFFFFFFFFFFF AND PUSH32 0x8BE0079C531659141344CD1FD0A4F28419497F9722A3DAAFE3B4186F6B6457E0 PUSH1 0x40 MLOAD PUSH1 0x40 MLOAD DUP1 SWAP2 SUB SWAP1 LOG3 PUSH1 0x0 PUSH1 0x2 PUSH1 0x0 PUSH2 0x100 EXP DUP2 SLOAD DUP2 PUSH20 0xFFFFFFFFFFFFFFFFFFFFFFFFFFFFFFFFFFFFFFFF MUL NOT AND SWAP1 DUP4 PUSH20 0xFFFFFFFFFFFFFFFFFFFFFFFFFFFFFFFFFFFFFFFF AND MUL OR SWAP1 SSTORE POP JUMP JUMPDEST PUSH2 0xCDA PUSH2 0x145B JUMP JUMPDEST PUSH2 0xD19 JUMPI PUSH1 0x40 MLOAD PUSH32 0x8C379A000000000000000000000000000000000000000000000000000000000 DUP2 MSTORE PUSH1 0x4 ADD PUSH2 0xD10 SWAP1 PUSH2 0x23F8 JUMP JUMPDEST PUSH1 0x40 MLOAD DUP1 SWAP2 SUB SWAP1 REVERT JUMPDEST PUSH1 0x0 PUSH20 0xFFFFFFFFFFFFFFFFFFFFFFFFFFFFFFFFFFFFFFFF AND DUP2 PUSH20 0xFFFFFFFFFFFFFFFFFFFFFFFFFFFFFFFFFFFFFFFF AND SUB PUSH2 0xD88 JUMPI PUSH1 0x40 MLOAD PUSH32 0x8C379A000000000000000000000000000000000000000000000000000000000 DUP2 MSTORE PUSH1 0x4 ADD PUSH2 0xD7F SWAP1 PUSH2 0x2464 JUMP JUMPDEST PUSH1 0x40 MLOAD DUP1 SWAP2 SUB SWAP1 REVERT JUMPDEST PUSH1 0x0 PUSH1 0x8 PUSH1 0x0 SWAP1 SLOAD SWAP1 PUSH2 0x100 EXP SWAP1 DIV PUSH20 0xFFFFFFFFFFFFFFFFFFFFFFFFFFFFFFFFFFFFFFFF AND SWAP1 POP DUP2 PUSH1 0x8 PUSH1 0x0 PUSH2 0x100 EXP DUP2 SLOAD DUP2 PUSH20 0xFFFFFFFFFFFFFFFFFFFFFFFFFFFFFFFFFFFFFFFF MUL NOT AND SWAP1 DUP4 PUSH20 0xFFFFFFFFFFFFFFFFFFFFFFFFFFFFFFFFFFFFFFFF AND MUL OR SWAP1 SSTORE POP PUSH32 0x47BBED8023AC1A0FE3025394C8F6B641A067058C37BC4EB3B7CCD0C68A7606B8 DUP2 DUP4 PUSH1 0x40 MLOAD PUSH2 0xE21 SWAP3 SWAP2 SWAP1 PUSH2 0x2484 JUMP JUMPDEST PUSH1 0x40 MLOAD DUP1 SWAP2 SUB SWAP1 LOG1 POP POP JUMP JUMPDEST PUSH2 0xE35 PUSH2 0x145B JUMP JUMPDEST PUSH2 0xE74 JUMPI PUSH1 0x40 MLOAD PUSH32 0x8C379A000000000000000000000000000000000000000000000000000000000 DUP2 MSTORE PUSH1 0x4 ADD PUSH2 0xE6B SWAP1 PUSH2 0x23F8 JUMP JUMPDEST PUSH1 0x40 MLOAD DUP1 SWAP2 SUB SWAP1 REVERT JUMPDEST PUSH2 0x100 DUP2 GT ISZERO PUSH2 0xEB9 JUMPI PUSH1 0x40 MLOAD PUSH32 0x8C379A000000000000000000000000000000000000000000000000000000000 DUP2 MSTORE PUSH1 0x4 ADD PUSH2 0xEB0 SWAP1 PUSH2 0x272B JUMP JUMPDEST PUSH1 0x40 MLOAD DUP1 SWAP2 SUB SWAP1 REVERT JUMPDEST PUSH1 0x1 DUP2 GT PUSH2 0xEFC JUMPI PUSH1 0x40 MLOAD PUSH32 0x8C379A000000000000000000000000000000000000000000000000000000000 DUP2 MSTORE PUSH1 0x4 ADD PUSH2 0xEF3 SWAP1 PUSH2 0x27BD JUMP JUMPDEST PUSH1 0x40 MLOAD DUP1 SWAP2 SUB SWAP1 REVERT JUMPDEST PUSH1 0x0 PUSH1 0x3 DUP5 DUP5 PUSH1 0x40 MLOAD PUSH2 0xF10 SWAP3 SWAP2 SWAP1 PUSH2 0x2282 JUMP JUMPDEST SWAP1 DUP2 MSTORE PUSH1 0x20 ADD PUSH1 0x40 MLOAD DUP1 SWAP2 SUB SWAP1 KECCAK256 DUP1 SLOAD SWAP1 POP EQ DUP1 ISZERO PUSH2 0xF4F JUMPI POP PUSH1 0x0 PUSH1 0x6 DUP5 DUP5 PUSH1 0x40 MLOAD PUSH2 0xF3E SWAP3 SWAP2 SWAP1 PUSH2 0x2282 JUMP JUMPDEST SWAP1 DUP2 MSTORE PUSH1 0x20 ADD PUSH1 0x40 MLOAD DUP1 SWAP2 SUB SWAP1 KECCAK256 SLOAD EQ JUMPDEST PUSH2 0xF8E JUMPI PUSH1 0x40 MLOAD PUSH32 0x8C379A000000000000000000000000000000000000000000000000000000000 DUP2 MSTORE PUSH1 0x4 ADD PUSH2 0xF85 SWAP1 PUSH2 0x2829 JUMP JUMPDEST PUSH1 0x40 MLOAD DUP1 SWAP2 SUB SWAP1 REVERT JUMPDEST PUSH1 0x1 PUSH1 0x6 DUP5 DUP5 PUSH1 0x40 MLOAD PUSH2 0xFA2 SWAP3 SWAP2 SWAP1 PUSH2 0x2282 JUMP JUMPDEST SWAP1 DUP2 MSTORE PUSH1 0x20 ADD PUSH1 0x40 MLOAD DUP1 SWAP2 SUB SWAP1 KECCAK256 DUP2 SWAP1 SSTORE POP DUP1 PUSH8 0xFFFFFFFFFFFFFFFF DUP2 GT ISZERO PUSH2 0xFCE JUMPI PUSH2 0xFCD PUSH2 0x1C88 JUMP JUMPDEST JUMPDEST PUSH1 0x40 MLOAD SWAP1 DUP1 DUP3 MSTORE DUP1 PUSH1 0x20 MUL PUSH1 0x20 ADD DUP3 ADD PUSH1 0x40 MSTORE DUP1 ISZERO PUSH2 0xFFC JUMPI DUP2 PUSH1 0x20 ADD PUSH1 0x20 DUP3 MUL DUP1 CALLDATASIZE DUP4 CALLDATACOPY DUP1 DUP3 ADD SWAP2 POP POP SWAP1 POP JUMPDEST POP PUSH1 0x3 DUP5 DUP5 PUSH1 0x40 MLOAD PUSH2 0x100F SWAP3 SWAP2 SWAP1 PUSH2 0x2282 JUMP JUMPDEST SWAP1 DUP2 MSTORE PUSH1 0x20 ADD PUSH1 0x40 MLOAD DUP1 SWAP2 SUB SWAP1 KECCAK256 SWAP1 DUP1 MLOAD SWAP1 PUSH1 0x20 ADD SWAP1 PUSH2 0x1030 SWAP3 SWAP2 SWAP1 PUSH2 0x1B93 JUMP JUMPDEST POP DUP3 DUP3 PUSH1 0x40 MLOAD PUSH2 0x1041 SWAP3 SWAP2 SWAP1 PUSH2 0x2282 JUMP JUMPDEST PUSH1 0x40 MLOAD DUP1 SWAP2 SUB SWAP1 KECCAK256 PUSH32 0xA32DE6189E144EDEC4436E11CC70CEFFD6475771373EB877B6368F066BDE691E DUP3 PUSH1 0x40 MLOAD PUSH2 0x1078 SWAP2 SWAP1 PUSH2 0x1E54 JUMP JUMPDEST PUSH1 0x40 MLOAD DUP1 SWAP2 SUB SWAP1 LOG2 POP POP POP JUMP JUMPDEST PUSH2 0x108D PUSH2 0x145B JUMP JUMPDEST PUSH2 0x10CC JUMPI PUSH1 0x40 MLOAD PUSH32 0x8C379A000000000000000000000000000000000000000000000000000000000 DUP2 MSTORE PUSH1 0x4 ADD PUSH2 0x10C3 SWAP1 PUSH2 0x23F8 JUMP JUMPDEST PUSH1 0x40 MLOAD DUP1 SWAP2 SUB SWAP1 REVERT JUMPDEST PUSH1 0x1 PUSH1 0x6 DUP6 DUP6 PUSH1 0x40 MLOAD PUSH2 0x10E0 SWAP3 SWAP2 SWAP1 PUSH2 0x2282 JUMP JUMPDEST SWAP1 DUP2 MSTORE PUSH1 0x20 ADD PUSH1 0x40 MLOAD DUP1 SWAP2 SUB SWAP1 KECCAK256 SLOAD EQ PUSH2 0x112F JUMPI PUSH1 0x40 MLOAD PUSH32 0x8C379A000000000000000000000000000000000000000000000000000000000 DUP2 MSTORE PUSH1 0x4 ADD PUSH2 0x1126 SWAP1 PUSH2 0x2895 JUMP JUMPDEST PUSH1 0x40 MLOAD DUP1 SWAP2 SUB SWAP1 REVERT JUMPDEST DUP1 PUSH1 0x7 PUSH1 0x0 SWAP1 SLOAD SWAP1 PUSH2 0x100 EXP SWAP1 DIV PUSH20 0xFFFFFFFFFFFFFFFFFFFFFFFFFFFFFFFFFFFFFFFF AND PUSH20 0xFFFFFFFFFFFFFFFFFFFFFFFFFFFFFFFFFFFFFFFF AND PUSH4 0x70A08231 PUSH1 0x2 PUSH1 0x0 SWAP1 SLOAD SWAP1 PUSH2 0x100 EXP SWAP1 DIV PUSH20 0xFFFFFFFFFFFFFFFFFFFFFFFFFFFFFFFFFFFFFFFF AND PUSH1 0x40 MLOAD DUP3 PUSH4 0xFFFFFFFF AND PUSH1 0xE0 SHL DUP2 MSTORE PUSH1 0x4 ADD PUSH2 0x11AD SWAP2 SWAP1 PUSH2 0x1C3E JUMP JUMPDEST PUSH1 0x20 PUSH1 0x40 MLOAD DUP1 DUP4 SUB DUP2 DUP7 GAS STATICCALL ISZERO DUP1 ISZERO PUSH2 0x11CA JUMPI RETURNDATASIZE PUSH1 0x0 DUP1 RETURNDATACOPY RETURNDATASIZE PUSH1 0x0 REVERT JUMPDEST POP POP POP POP PUSH1 0x40 MLOAD RETURNDATASIZE PUSH1 0x1F NOT PUSH1 0x1F DUP3 ADD AND DUP3 ADD DUP1 PUSH1 0x40 MSTORE POP DUP2 ADD SWAP1 PUSH2 0x11EE SWAP2 SWAP1 PUSH2 0x28CA JUMP JUMPDEST LT ISZERO PUSH2 0x122F JUMPI PUSH1 0x40 MLOAD PUSH32 0x8C379A000000000000000000000000000000000000000000000000000000000 DUP2 MSTORE PUSH1 0x4 ADD PUSH2 0x1226 SWAP1 PUSH2 0x2943 JUMP JUMPDEST PUSH1 0x40 MLOAD DUP1 SWAP2 SUB SWAP1 REVERT JUMPDEST PUSH1 0x7 PUSH1 0x0 SWAP1 SLOAD SWAP1 PUSH2 0x100 EXP SWAP1 DIV PUSH20 0xFFFFFFFFFFFFFFFFFFFFFFFFFFFFFFFFFFFFFFFF AND PUSH20 0xFFFFFFFFFFFFFFFFFFFFFFFFFFFFFFFFFFFFFFFF AND PUSH4 0x23B872DD PUSH1 0x2 PUSH1 0x0 SWAP1 SLOAD SWAP1 PUSH2 0x100 EXP SWAP1 DIV PUSH20 0xFFFFFFFFFFFFFFFFFFFFFFFFFFFFFFFFFFFFFFFF AND ADDRESS DUP5 PUSH1 0x40 MLOAD DUP5 PUSH4 0xFFFFFFFF AND PUSH1 0xE0 SHL DUP2 MSTORE PUSH1 0x4 ADD PUSH2 0x12B0 SWAP4 SWAP3 SWAP2 SWAP1 PUSH2 0x2963 JUMP JUMPDEST PUSH1 0x20 PUSH1 0x40 MLOAD DUP1 DUP4 SUB DUP2 PUSH1 0x0 DUP8 GAS CALL ISZERO DUP1 ISZERO PUSH2 0x12CF JUMPI RETURNDATASIZE PUSH1 0x0 DUP1 RETURNDATACOPY RETURNDATASIZE PUSH1 0x0 REVERT JUMPDEST POP POP POP POP PUSH1 0x40 MLOAD RETURNDATASIZE PUSH1 0x1F NOT PUSH1 0x1F DUP3 ADD AND DUP3 ADD DUP1 PUSH1 0x40 MSTORE POP DUP2 ADD SWAP1 PUSH2 0x12F3 SWAP2 SWAP1 PUSH2 0x25DA JUMP JUMPDEST PUSH2 0x1332 JUMPI PUSH1 0x40 MLOAD PUSH32 0x8C379A000000000000000000000000000000000000000000000000000000000 DUP2 MSTORE PUSH1 0x4 ADD PUSH2 0x1329 SWAP1 PUSH2 0x29E6 JUMP JUMPDEST PUSH1 0x40 MLOAD DUP1 SWAP2 SUB SWAP1 REVERT JUMPDEST DUP1 PUSH1 0x4 DUP6 DUP6 PUSH1 0x40 MLOAD PUSH2 0x1345 SWAP3 SWAP2 SWAP1 PUSH2 0x2282 JUMP JUMPDEST SWAP1 DUP2 MSTORE PUSH1 0x20 ADD PUSH1 0x40 MLOAD DUP1 SWAP2 SUB SWAP1 KECCAK256 PUSH1 0x0 DUP3 DUP3 SLOAD PUSH2 0x1362 SWAP2 SWAP1 PUSH2 0x2A06 JUMP JUMPDEST SWAP3 POP POP DUP2 SWAP1 SSTORE POP DUP1 PUSH1 0x3 DUP6 DUP6 PUSH1 0x40 MLOAD PUSH2 0x137C SWAP3 SWAP2 SWAP1 PUSH2 0x2282 JUMP JUMPDEST SWAP1 DUP2 MSTORE PUSH1 0x20 ADD PUSH1 0x40 MLOAD DUP1 SWAP2 SUB SWAP1 KECCAK256 DUP4 DUP2 SLOAD DUP2 LT PUSH2 0x139C JUMPI PUSH2 0x139B PUSH2 0x229B JUMP JUMPDEST JUMPDEST SWAP1 PUSH1 0x0 MSTORE PUSH1 0x20 PUSH1 0x0 KECCAK256 ADD PUSH1 0x0 DUP3 DUP3 SLOAD PUSH2 0x13B5 SWAP2 SWAP1 PUSH2 0x2A06 JUMP JUMPDEST SWAP3 POP POP DUP2 SWAP1 SSTORE POP DUP2 DUP5 DUP5 PUSH1 0x40 MLOAD PUSH2 0x13CD SWAP3 SWAP2 SWAP1 PUSH2 0x2282 JUMP JUMPDEST PUSH1 0x40 MLOAD DUP1 SWAP2 SUB SWAP1 KECCAK256 PUSH32 0x9B6A62A6BE19F8204C05044B3E9D17D2B27487807E7E76B5E279BA0D6531A946 DUP4 PUSH1 0x40 MLOAD PUSH2 0x1404 SWAP2 SWAP1 PUSH2 0x1E54 JUMP JUMPDEST PUSH1 0x40 MLOAD DUP1 SWAP2 SUB SWAP1 LOG3 POP POP POP POP JUMP JUMPDEST PUSH1 0x5 DUP2 DUP1 MLOAD PUSH1 0x20 DUP2 ADD DUP3 ADD DUP1 MLOAD DUP5 DUP3 MSTORE PUSH1 0x20 DUP4 ADD PUSH1 0x20 DUP6 ADD KECCAK256 DUP2 DUP4 MSTORE DUP1 SWAP6 POP POP POP POP POP POP PUSH1 0x0 SWAP2 POP SLOAD SWAP1 PUSH2 0x100 EXP SWAP1 DIV PUSH20 0xFFFFFFFFFFFFFFFFFFFFFFFFFFFFFFFFFFFFFFFF AND DUP2 JUMP JUMPDEST PUSH1 0x0 PUSH1 0x2 PUSH1 0x0 SWAP1 SLOAD SWAP1 PUSH2 0x100 EXP SWAP1 DIV PUSH20 0xFFFFFFFFFFFFFFFFFFFFFFFFFFFFFFFFFFFFFFFF AND PUSH20 0xFFFFFFFFFFFFFFFFFFFFFFFFFFFFFFFFFFFFFFFF AND CALLER PUSH20 0xFFFFFFFFFFFFFFFFFFFFFFFFFFFFFFFFFFFFFFFF AND EQ SWAP1 POP SWAP1 JUMP JUMPDEST PUSH2 0x14BB PUSH2 0x145B JUMP JUMPDEST PUSH2 0x14FA JUMPI PUSH1 0x40 MLOAD PUSH32 0x8C379A000000000000000000000000000000000000000000000000000000000 DUP2 MSTORE PUSH1 0x4 ADD PUSH2 0x14F1 SWAP1 PUSH2 0x23F8 JUMP JUMPDEST PUSH1 0x40 MLOAD DUP1 SWAP2 SUB SWAP1 REVERT JUMPDEST PUSH1 0x0 PUSH1 0x3 DUP5 DUP5 PUSH1 0x40 MLOAD PUSH2 0x150E SWAP3 SWAP2 SWAP1 PUSH2 0x2282 JUMP JUMPDEST SWAP1 DUP2 MSTORE PUSH1 0x20 ADD PUSH1 0x40 MLOAD DUP1 SWAP2 SUB SWAP1 KECCAK256 DUP1 SLOAD SWAP1 POP EQ ISZERO DUP1 ISZERO PUSH2 0x154E JUMPI POP PUSH1 0x1 PUSH1 0x6 DUP5 DUP5 PUSH1 0x40 MLOAD PUSH2 0x153D SWAP3 SWAP2 SWAP1 PUSH2 0x2282 JUMP JUMPDEST SWAP1 DUP2 MSTORE PUSH1 0x20 ADD PUSH1 0x40 MLOAD DUP1 SWAP2 SUB SWAP1 KECCAK256 SLOAD EQ JUMPDEST PUSH2 0x158D JUMPI PUSH1 0x40 MLOAD PUSH32 0x8C379A000000000000000000000000000000000000000000000000000000000 DUP2 MSTORE PUSH1 0x4 ADD PUSH2 0x1584 SWAP1 PUSH2 0x2565 JUMP JUMPDEST PUSH1 0x40 MLOAD DUP1 SWAP2 SUB SWAP1 REVERT JUMPDEST PUSH1 0x2 PUSH1 0x6 DUP5 DUP5 PUSH1 0x40 MLOAD PUSH2 0x15A1 SWAP3 SWAP2 SWAP1 PUSH2 0x2282 JUMP JUMPDEST SWAP1 DUP2 MSTORE PUSH1 0x20 ADD PUSH1 0x40 MLOAD DUP1 SWAP2 SUB SWAP1 KECCAK256 DUP2 SWAP1 SSTORE POP PUSH1 0x2 PUSH1 0x0 SWAP1 SLOAD SWAP1 PUSH2 0x100 EXP SWAP1 DIV PUSH20 0xFFFFFFFFFFFFFFFFFFFFFFFFFFFFFFFFFFFFFFFF AND PUSH1 0x5 DUP5 DUP5 PUSH1 0x40 MLOAD PUSH2 0x15E8 SWAP3 SWAP2 SWAP1 PUSH2 0x2282 JUMP JUMPDEST SWAP1 DUP2 MSTORE PUSH1 0x20 ADD PUSH1 0x40 MLOAD DUP1 SWAP2 SUB SWAP1 KECCAK256 PUSH1 0x0 PUSH2 0x100 EXP DUP2 SLOAD DUP2 PUSH20 0xFFFFFFFFFFFFFFFFFFFFFFFFFFFFFFFFFFFFFFFF MUL NOT AND SWAP1 DUP4 PUSH20 0xFFFFFFFFFFFFFFFFFFFFFFFFFFFFFFFFFFFFFFFF AND MUL OR SWAP1 SSTORE POP PUSH2 0x1662 DUP4 DUP4 PUSH1 0x2 PUSH1 0x0 SWAP1 SLOAD SWAP1 PUSH2 0x100 EXP SWAP1 DIV PUSH20 0xFFFFFFFFFFFFFFFFFFFFFFFFFFFFFFFFFFFFFFFF AND DUP5 PUSH2 0x17A4 JUMP JUMPDEST POP POP POP JUMP JUMPDEST PUSH1 0x0 PUSH1 0x2 PUSH1 0x0 SWAP1 SLOAD SWAP1 PUSH2 0x100 EXP SWAP1 DIV PUSH20 0xFFFFFFFFFFFFFFFFFFFFFFFFFFFFFFFFFFFFFFFF AND SWAP1 POP SWAP1 JUMP JUMPDEST PUSH2 0x1699 PUSH2 0x145B JUMP JUMPDEST PUSH2 0x16D8 JUMPI PUSH1 0x40 MLOAD PUSH32 0x8C379A000000000000000000000000000000000000000000000000000000000 DUP2 MSTORE PUSH1 0x4 ADD PUSH2 0x16CF SWAP1 PUSH2 0x23F8 JUMP JUMPDEST PUSH1 0x40 MLOAD DUP1 SWAP2 SUB SWAP1 REVERT JUMPDEST PUSH2 0x16E1 DUP2 PUSH2 0x1A4A JUMP JUMPDEST POP JUMP JUMPDEST CALLER PUSH1 0x2 PUSH1 0x0 PUSH2 0x100 EXP DUP2 SLOAD DUP2 PUSH20 0xFFFFFFFFFFFFFFFFFFFFFFFFFFFFFFFFFFFFFFFF MUL NOT AND SWAP1 DUP4 PUSH20 0xFFFFFFFFFFFFFFFFFFFFFFFFFFFFFFFFFFFFFFFF AND MUL OR SWAP1 SSTORE POP PUSH1 0x2 PUSH1 0x0 SWAP1 SLOAD SWAP1 PUSH2 0x100 EXP SWAP1 DIV PUSH20 0xFFFFFFFFFFFFFFFFFFFFFFFFFFFFFFFFFFFFFFFF AND PUSH20 0xFFFFFFFFFFFFFFFFFFFFFFFFFFFFFFFFFFFFFFFF AND PUSH1 0x0 PUSH20 0xFFFFFFFFFFFFFFFFFFFFFFFFFFFFFFFFFFFFFFFF AND PUSH32 0x8BE0079C531659141344CD1FD0A4F28419497F9722A3DAAFE3B4186F6B6457E0 PUSH1 0x40 MLOAD PUSH1 0x40 MLOAD DUP1 SWAP2 SUB SWAP1 LOG3 JUMP JUMPDEST PUSH1 0x0 PUSH1 0x64 PUSH1 0x9 SLOAD PUSH1 0x4 DUP8 DUP8 PUSH1 0x40 MLOAD PUSH2 0x17BD SWAP3 SWAP2 SWAP1 PUSH2 0x2282 JUMP JUMPDEST SWAP1 DUP2 MSTORE PUSH1 0x20 ADD PUSH1 0x40 MLOAD DUP1 SWAP2 SUB SWAP1 KECCAK256 SLOAD PUSH2 0x17D6 SWAP2 SWAP1 PUSH2 0x22F9 JUMP JUMPDEST PUSH2 0x17E0 SWAP2 SWAP1 PUSH2 0x236A JUMP JUMPDEST SWAP1 POP PUSH1 0x0 DUP2 PUSH1 0x4 DUP8 DUP8 PUSH1 0x40 MLOAD PUSH2 0x17F7 SWAP3 SWAP2 SWAP1 PUSH2 0x2282 JUMP JUMPDEST SWAP1 DUP2 MSTORE PUSH1 0x20 ADD PUSH1 0x40 MLOAD DUP1 SWAP2 SUB SWAP1 KECCAK256 SLOAD PUSH2 0x1810 SWAP2 SWAP1 PUSH2 0x2A3A JUMP JUMPDEST SWAP1 POP PUSH1 0x7 PUSH1 0x0 SWAP1 SLOAD SWAP1 PUSH2 0x100 EXP SWAP1 DIV PUSH20 0xFFFFFFFFFFFFFFFFFFFFFFFFFFFFFFFFFFFFFFFF AND PUSH20 0xFFFFFFFFFFFFFFFFFFFFFFFFFFFFFFFFFFFFFFFF AND PUSH4 0xA9059CBB PUSH1 0x8 PUSH1 0x0 SWAP1 SLOAD SWAP1 PUSH2 0x100 EXP SWAP1 DIV PUSH20 0xFFFFFFFFFFFFFFFFFFFFFFFFFFFFFFFFFFFFFFFF AND DUP5 PUSH1 0x40 MLOAD DUP4 PUSH4 0xFFFFFFFF AND PUSH1 0xE0 SHL DUP2 MSTORE PUSH1 0x4 ADD PUSH2 0x1891 SWAP3 SWAP2 SWAP1 PUSH2 0x2585 JUMP JUMPDEST PUSH1 0x20 PUSH1 0x40 MLOAD DUP1 DUP4 SUB DUP2 PUSH1 0x0 DUP8 GAS CALL ISZERO DUP1 ISZERO PUSH2 0x18B0 JUMPI RETURNDATASIZE PUSH1 0x0 DUP1 RETURNDATACOPY RETURNDATASIZE PUSH1 0x0 REVERT JUMPDEST POP POP POP POP PUSH1 0x40 MLOAD RETURNDATASIZE PUSH1 0x1F NOT PUSH1 0x1F DUP3 ADD AND DUP3 ADD DUP1 PUSH1 0x40 MSTORE POP DUP2 ADD SWAP1 PUSH2 0x18D4 SWAP2 SWAP1 PUSH2 0x25DA JUMP JUMPDEST PUSH2 0x1913 JUMPI PUSH1 0x40 MLOAD PUSH32 0x8C379A000000000000000000000000000000000000000000000000000000000 DUP2 MSTORE PUSH1 0x4 ADD PUSH2 0x190A SWAP1 PUSH2 0x2ABA JUMP JUMPDEST PUSH1 0x40 MLOAD DUP1 SWAP2 SUB SWAP1 REVERT JUMPDEST PUSH1 0x7 PUSH1 0x0 SWAP1 SLOAD SWAP1 PUSH2 0x100 EXP SWAP1 DIV PUSH20 0xFFFFFFFFFFFFFFFFFFFFFFFFFFFFFFFFFFFFFFFF AND PUSH20 0xFFFFFFFFFFFFFFFFFFFFFFFFFFFFFFFFFFFFFFFF AND PUSH4 0xA9059CBB DUP6 DUP4 PUSH1 0x40 MLOAD DUP4 PUSH4 0xFFFFFFFF AND PUSH1 0xE0 SHL DUP2 MSTORE PUSH1 0x4 ADD PUSH2 0x1970 SWAP3 SWAP2 SWAP1 PUSH2 0x2585 JUMP JUMPDEST PUSH1 0x20 PUSH1 0x40 MLOAD DUP1 DUP4 SUB DUP2 PUSH1 0x0 DUP8 GAS CALL ISZERO DUP1 ISZERO PUSH2 0x198F JUMPI RETURNDATASIZE PUSH1 0x0 DUP1 RETURNDATACOPY RETURNDATASIZE PUSH1 0x0 REVERT JUMPDEST POP POP POP POP PUSH1 0x40 MLOAD RETURNDATASIZE PUSH1 0x1F NOT PUSH1 0x1F DUP3 ADD AND DUP3 ADD DUP1 PUSH1 0x40 MSTORE POP DUP2 ADD SWAP1 PUSH2 0x19B3 SWAP2 SWAP1 PUSH2 0x25DA JUMP JUMPDEST PUSH2 0x19F2 JUMPI PUSH1 0x40 MLOAD PUSH32 0x8C379A000000000000000000000000000000000000000000000000000000000 DUP2 MSTORE PUSH1 0x4 ADD PUSH2 0x19E9 SWAP1 PUSH2 0x2B26 JUMP JUMPDEST PUSH1 0x40 MLOAD DUP1 SWAP2 SUB SWAP1 REVERT JUMPDEST DUP3 DUP7 DUP7 PUSH1 0x40 MLOAD PUSH2 0x1A03 SWAP3 SWAP2 SWAP1 PUSH2 0x2282 JUMP JUMPDEST PUSH1 0x40 MLOAD DUP1 SWAP2 SUB SWAP1 KECCAK256 PUSH32 0x8FDE3B360B5E31DAB83D1D7F31A1766B7A8B1A7791A9FB92851C3554B42C3FE4 DUP7 PUSH1 0x40 MLOAD PUSH2 0x1A3A SWAP2 SWAP1 PUSH2 0x1C3E JUMP JUMPDEST PUSH1 0x40 MLOAD DUP1 SWAP2 SUB SWAP1 LOG3 POP POP POP POP POP POP JUMP JUMPDEST PUSH1 0x0 PUSH20 0xFFFFFFFFFFFFFFFFFFFFFFFFFFFFFFFFFFFFFFFF AND DUP2 PUSH20 0xFFFFFFFFFFFFFFFFFFFFFFFFFFFFFFFFFFFFFFFF AND SUB PUSH2 0x1AB9 JUMPI PUSH1 0x40 MLOAD PUSH32 0x8C379A000000000000000000000000000000000000000000000000000000000 DUP2 MSTORE PUSH1 0x4 ADD PUSH2 0x1AB0 SWAP1 PUSH2 0x2BB8 JUMP JUMPDEST PUSH1 0x40 MLOAD DUP1 SWAP2 SUB SWAP1 REVERT JUMPDEST DUP1 PUSH20 0xFFFFFFFFFFFFFFFFFFFFFFFFFFFFFFFFFFFFFFFF AND PUSH1 0x2 PUSH1 0x0 SWAP1 SLOAD SWAP1 PUSH2 0x100 EXP SWAP1 DIV PUSH20 0xFFFFFFFFFFFFFFFFFFFFFFFFFFFFFFFFFFFFFFFF AND PUSH20 0xFFFFFFFFFFFFFFFFFFFFFFFFFFFFFFFFFFFFFFFF AND PUSH32 0x8BE0079C531659141344CD1FD0A4F28419497F9722A3DAAFE3B4186F6B6457E0 PUSH1 0x40 MLOAD PUSH1 0x40 MLOAD DUP1 SWAP2 SUB SWAP1 LOG3 DUP1 PUSH1 0x2 PUSH1 0x0 PUSH2 0x100 EXP DUP2 SLOAD DUP2 PUSH20 0xFFFFFFFFFFFFFFFFFFFFFFFFFFFFFFFFFFFFFFFF MUL NOT AND SWAP1 DUP4 PUSH20 0xFFFFFFFFFFFFFFFFFFFFFFFFFFFFFFFFFFFFFFFF AND MUL OR SWAP1 SSTORE POP POP JUMP JUMPDEST PUSH1 0x40 MLOAD DUP1 PUSH1 0x40 ADD PUSH1 0x40 MSTORE DUP1 PUSH1 0x0 DUP2 MSTORE PUSH1 0x20 ADD PUSH1 0x0 DUP2 MSTORE POP SWAP1 JUMP JUMPDEST DUP3 DUP1 SLOAD DUP3 DUP3 SSTORE SWAP1 PUSH1 0x0 MSTORE PUSH1 0x20 PUSH1 0x0 KECCAK256 SWAP1 DUP2 ADD SWAP3 DUP3 ISZERO PUSH2 0x1BCF JUMPI SWAP2 PUSH1 0x20 MUL DUP3 ADD JUMPDEST DUP3 DUP2 GT ISZERO PUSH2 0x1BCE JUMPI DUP3 MLOAD DUP3 SSTORE SWAP2 PUSH1 0x20 ADD SWAP2 SWAP1 PUSH1 0x1 ADD SWAP1 PUSH2 0x1BB3 JUMP JUMPDEST JUMPDEST POP SWAP1 POP PUSH2 0x1BDC SWAP2 SWAP1 PUSH2 0x1BE0 JUMP JUMPDEST POP SWAP1 JUMP JUMPDEST JUMPDEST DUP1 DUP3 GT ISZERO PUSH2 0x1BF9 JUMPI PUSH1 0x0 DUP2 PUSH1 0x0 SWAP1 SSTORE POP PUSH1 0x1 ADD PUSH2 0x1BE1 JUMP JUMPDEST POP SWAP1 JUMP JUMPDEST PUSH1 0x0 PUSH20 0xFFFFFFFFFFFFFFFFFFFFFFFFFFFFFFFFFFFFFFFF DUP3 AND SWAP1 POP SWAP2 SWAP1 POP JUMP JUMPDEST PUSH1 0x0 PUSH2 0x1C28 DUP3 PUSH2 0x1BFD JUMP JUMPDEST SWAP1 POP SWAP2 SWAP1 POP JUMP JUMPDEST PUSH2 0x1C38 DUP2 PUSH2 0x1C1D JUMP JUMPDEST DUP3 MSTORE POP POP JUMP JUMPDEST PUSH1 0x0 PUSH1 0x20 DUP3 ADD SWAP1 POP PUSH2 0x1C53 PUSH1 0x0 DUP4 ADD DUP5 PUSH2 0x1C2F JUMP JUMPDEST SWAP3 SWAP2 POP POP JUMP JUMPDEST PUSH1 0x0 PUSH1 0x40 MLOAD SWAP1 POP SWAP1 JUMP JUMPDEST PUSH1 0x0 DUP1 REVERT JUMPDEST PUSH1 0x0 DUP1 REVERT JUMPDEST PUSH1 0x0 DUP1 REVERT JUMPDEST PUSH1 0x0 DUP1 REVERT JUMPDEST PUSH1 0x0 PUSH1 0x1F NOT PUSH1 0x1F DUP4 ADD AND SWAP1 POP SWAP2 SWAP1 POP JUMP JUMPDEST PUSH32 0x4E487B7100000000000000000000000000000000000000000000000000000000 PUSH1 0x0 MSTORE PUSH1 0x41 PUSH1 0x4 MSTORE PUSH1 0x24 PUSH1 0x0 REVERT JUMPDEST PUSH2 0x1CC0 DUP3 PUSH2 0x1C77 JUMP JUMPDEST DUP2 ADD DUP2 DUP2 LT PUSH8 0xFFFFFFFFFFFFFFFF DUP3 GT OR ISZERO PUSH2 0x1CDF JUMPI PUSH2 0x1CDE PUSH2 0x1C88 JUMP JUMPDEST JUMPDEST DUP1 PUSH1 0x40 MSTORE POP POP POP JUMP JUMPDEST PUSH1 0x0 PUSH2 0x1CF2 PUSH2 0x1C59 JUMP JUMPDEST SWAP1 POP PUSH2 0x1CFE DUP3 DUP3 PUSH2 0x1CB7 JUMP JUMPDEST SWAP2 SWAP1 POP JUMP JUMPDEST PUSH1 0x0 PUSH8 0xFFFFFFFFFFFFFFFF DUP3 GT ISZERO PUSH2 0x1D1E JUMPI PUSH2 0x1D1D PUSH2 0x1C88 JUMP JUMPDEST JUMPDEST PUSH2 0x1D27 DUP3 PUSH2 0x1C77 JUMP JUMPDEST SWAP1 POP PUSH1 0x20 DUP2 ADD SWAP1 POP SWAP2 SWAP1 POP JUMP JUMPDEST DUP3 DUP2 DUP4 CALLDATACOPY PUSH1 0x0 DUP4 DUP4 ADD MSTORE POP POP POP JUMP JUMPDEST PUSH1 0x0 PUSH2 0x1D56 PUSH2 0x1D51 DUP5 PUSH2 0x1D03 JUMP JUMPDEST PUSH2 0x1CE8 JUMP JUMPDEST SWAP1 POP DUP3 DUP2 MSTORE PUSH1 0x20 DUP2 ADD DUP5 DUP5 DUP5 ADD GT ISZERO PUSH2 0x1D72 JUMPI PUSH2 0x1D71 PUSH2 0x1C72 JUMP JUMPDEST JUMPDEST PUSH2 0x1D7D DUP5 DUP3 DUP6 PUSH2 0x1D34 JUMP JUMPDEST POP SWAP4 SWAP3 POP POP POP JUMP JUMPDEST PUSH1 0x0 DUP3 PUSH1 0x1F DUP4 ADD SLT PUSH2 0x1D9A JUMPI PUSH2 0x1D99 PUSH2 0x1C6D JUMP JUMPDEST JUMPDEST DUP2 CALLDATALOAD PUSH2 0x1DAA DUP5 DUP3 PUSH1 0x20 DUP7 ADD PUSH2 0x1D43 JUMP JUMPDEST SWAP2 POP POP SWAP3 SWAP2 POP POP JUMP JUMPDEST PUSH1 0x0 DUP2 SWAP1 POP SWAP2 SWAP1 POP JUMP JUMPDEST PUSH2 0x1DC6 DUP2 PUSH2 0x1DB3 JUMP JUMPDEST DUP2 EQ PUSH2 0x1DD1 JUMPI PUSH1 0x0 DUP1 REVERT JUMPDEST POP JUMP JUMPDEST PUSH1 0x0 DUP2 CALLDATALOAD SWAP1 POP PUSH2 0x1DE3 DUP2 PUSH2 0x1DBD JUMP JUMPDEST SWAP3 SWAP2 POP POP JUMP JUMPDEST PUSH1 0x0 DUP1 PUSH1 0x40 DUP4 DUP6 SUB SLT ISZERO PUSH2 0x1E00 JUMPI PUSH2 0x1DFF PUSH2 0x1C63 JUMP JUMPDEST JUMPDEST PUSH1 0x0 DUP4 ADD CALLDATALOAD PUSH8 0xFFFFFFFFFFFFFFFF DUP2 GT ISZERO PUSH2 0x1E1E JUMPI PUSH2 0x1E1D PUSH2 0x1C68 JUMP JUMPDEST JUMPDEST PUSH2 0x1E2A DUP6 DUP3 DUP7 ADD PUSH2 0x1D85 JUMP JUMPDEST SWAP3 POP POP PUSH1 0x20 PUSH2 0x1E3B DUP6 DUP3 DUP7 ADD PUSH2 0x1DD4 JUMP JUMPDEST SWAP2 POP POP SWAP3 POP SWAP3 SWAP1 POP JUMP JUMPDEST PUSH2 0x1E4E DUP2 PUSH2 0x1DB3 JUMP JUMPDEST DUP3 MSTORE POP POP JUMP JUMPDEST PUSH1 0x0 PUSH1 0x20 DUP3 ADD SWAP1 POP PUSH2 0x1E69 PUSH1 0x0 DUP4 ADD DUP5 PUSH2 0x1E45 JUMP JUMPDEST SWAP3 SWAP2 POP POP JUMP JUMPDEST PUSH1 0x0 DUP1 REVERT JUMPDEST PUSH1 0x0 DUP1 REVERT JUMPDEST PUSH1 0x0 DUP1 DUP4 PUSH1 0x1F DUP5 ADD SLT PUSH2 0x1E8F JUMPI PUSH2 0x1E8E PUSH2 0x1C6D JUMP JUMPDEST JUMPDEST DUP3 CALLDATALOAD SWAP1 POP PUSH8 0xFFFFFFFFFFFFFFFF DUP2 GT ISZERO PUSH2 0x1EAC JUMPI PUSH2 0x1EAB PUSH2 0x1E6F JUMP JUMPDEST JUMPDEST PUSH1 0x20 DUP4 ADD SWAP2 POP DUP4 PUSH1 0x1 DUP3 MUL DUP4 ADD GT ISZERO PUSH2 0x1EC8 JUMPI PUSH2 0x1EC7 PUSH2 0x1E74 JUMP JUMPDEST JUMPDEST SWAP3 POP SWAP3 SWAP1 POP JUMP JUMPDEST PUSH1 0x0 DUP1 PUSH1 0x20 DUP4 DUP6 SUB SLT ISZERO PUSH2 0x1EE6 JUMPI PUSH2 0x1EE5 PUSH2 0x1C63 JUMP JUMPDEST JUMPDEST PUSH1 0x0 DUP4 ADD CALLDATALOAD PUSH8 0xFFFFFFFFFFFFFFFF DUP2 GT ISZERO PUSH2 0x1F04 JUMPI PUSH2 0x1F03 PUSH2 0x1C68 JUMP JUMPDEST JUMPDEST PUSH2 0x1F10 DUP6 DUP3 DUP7 ADD PUSH2 0x1E79 JUMP JUMPDEST SWAP3 POP SWAP3 POP POP SWAP3 POP SWAP3 SWAP1 POP JUMP JUMPDEST PUSH1 0x0 DUP2 MLOAD SWAP1 POP SWAP2 SWAP1 POP JUMP JUMPDEST PUSH1 0x0 DUP3 DUP3 MSTORE PUSH1 0x20 DUP3 ADD SWAP1 POP SWAP3 SWAP2 POP POP JUMP JUMPDEST PUSH1 0x0 DUP2 SWAP1 POP PUSH1 0x20 DUP3 ADD SWAP1 POP SWAP2 SWAP1 POP JUMP JUMPDEST PUSH2 0x1F51 DUP2 PUSH2 0x1DB3 JUMP JUMPDEST DUP3 MSTORE POP POP JUMP JUMPDEST PUSH1 0x40 DUP3 ADD PUSH1 0x0 DUP3 ADD MLOAD PUSH2 0x1F6D PUSH1 0x0 DUP6 ADD DUP3 PUSH2 0x1F48 JUMP JUMPDEST POP PUSH1 0x20 DUP3 ADD MLOAD PUSH2 0x1F80 PUSH1 0x20 DUP6 ADD DUP3 PUSH2 0x1F48 JUMP JUMPDEST POP POP POP POP JUMP JUMPDEST PUSH1 0x0 PUSH2 0x1F92 DUP4 DUP4 PUSH2 0x1F57 JUMP JUMPDEST PUSH1 0x40 DUP4 ADD SWAP1 POP SWAP3 SWAP2 POP POP JUMP JUMPDEST PUSH1 0x0 PUSH1 0x20 DUP3 ADD SWAP1 POP SWAP2 SWAP1 POP JUMP JUMPDEST PUSH1 0x0 PUSH2 0x1FB6 DUP3 PUSH2 0x1F1C JUMP JUMPDEST PUSH2 0x1FC0 DUP2 DUP6 PUSH2 0x1F27 JUMP JUMPDEST SWAP4 POP PUSH2 0x1FCB DUP4 PUSH2 0x1F38 JUMP JUMPDEST DUP1 PUSH1 0x0 JUMPDEST DUP4 DUP2 LT ISZERO PUSH2 0x1FFC JUMPI DUP2 MLOAD PUSH2 0x1FE3 DUP9 DUP3 PUSH2 0x1F86 JUMP JUMPDEST SWAP8 POP PUSH2 0x1FEE DUP4 PUSH2 0x1F9E JUMP JUMPDEST SWAP3 POP POP PUSH1 0x1 DUP2 ADD SWAP1 POP PUSH2 0x1FCF JUMP JUMPDEST POP DUP6 SWAP4 POP POP POP POP SWAP3 SWAP2 POP POP JUMP JUMPDEST PUSH1 0x0 PUSH1 0x40 DUP3 ADD SWAP1 POP PUSH2 0x201E PUSH1 0x0 DUP4 ADD DUP6 PUSH2 0x1E45 JUMP JUMPDEST DUP2 DUP2 SUB PUSH1 0x20 DUP4 ADD MSTORE PUSH2 0x2030 DUP2 DUP5 PUSH2 0x1FAB JUMP JUMPDEST SWAP1 POP SWAP4 SWAP3 POP POP POP JUMP JUMPDEST PUSH1 0x0 PUSH1 0x20 DUP3 DUP5 SUB SLT ISZERO PUSH2 0x204F JUMPI PUSH2 0x204E PUSH2 0x1C63 JUMP JUMPDEST JUMPDEST PUSH1 0x0 DUP3 ADD CALLDATALOAD PUSH8 0xFFFFFFFFFFFFFFFF DUP2 GT ISZERO PUSH2 0x206D JUMPI PUSH2 0x206C PUSH2 0x1C68 JUMP JUMPDEST JUMPDEST PUSH2 0x2079 DUP5 DUP3 DUP6 ADD PUSH2 0x1D85 JUMP JUMPDEST SWAP2 POP POP SWAP3 SWAP2 POP POP JUMP JUMPDEST PUSH2 0x208B DUP2 PUSH2 0x1C1D JUMP JUMPDEST DUP2 EQ PUSH2 0x2096 JUMPI PUSH1 0x0 DUP1 REVERT JUMPDEST POP JUMP JUMPDEST PUSH1 0x0 DUP2 CALLDATALOAD SWAP1 POP PUSH2 0x20A8 DUP2 PUSH2 0x2082 JUMP JUMPDEST SWAP3 SWAP2 POP POP JUMP JUMPDEST PUSH1 0x0 PUSH1 0x20 DUP3 DUP5 SUB SLT ISZERO PUSH2 0x20C4 JUMPI PUSH2 0x20C3 PUSH2 0x1C63 JUMP JUMPDEST JUMPDEST PUSH1 0x0 PUSH2 0x20D2 DUP5 DUP3 DUP6 ADD PUSH2 0x2099 JUMP JUMPDEST SWAP2 POP POP SWAP3 SWAP2 POP POP JUMP JUMPDEST PUSH1 0x0 DUP1 PUSH1 0x40 DUP4 DUP6 SUB SLT ISZERO PUSH2 0x20F2 JUMPI PUSH2 0x20F1 PUSH2 0x1C63 JUMP JUMPDEST JUMPDEST PUSH1 0x0 PUSH2 0x2100 DUP6 DUP3 DUP7 ADD PUSH2 0x2099 JUMP JUMPDEST SWAP3 POP POP PUSH1 0x20 PUSH2 0x2111 DUP6 DUP3 DUP7 ADD PUSH2 0x2099 JUMP JUMPDEST SWAP2 POP POP SWAP3 POP SWAP3 SWAP1 POP JUMP JUMPDEST PUSH1 0x0 PUSH1 0x20 DUP3 DUP5 SUB SLT ISZERO PUSH2 0x2131 JUMPI PUSH2 0x2130 PUSH2 0x1C63 JUMP JUMPDEST JUMPDEST PUSH1 0x0 PUSH2 0x213F DUP5 DUP3 DUP6 ADD PUSH2 0x1DD4 JUMP JUMPDEST SWAP2 POP POP SWAP3 SWAP2 POP POP JUMP JUMPDEST PUSH1 0x0 DUP1 PUSH1 0x0 PUSH1 0x40 DUP5 DUP7 SUB SLT ISZERO PUSH2 0x2161 JUMPI PUSH2 0x2160 PUSH2 0x1C63 JUMP JUMPDEST JUMPDEST PUSH1 0x0 DUP5 ADD CALLDATALOAD PUSH8 0xFFFFFFFFFFFFFFFF DUP2 GT ISZERO PUSH2 0x217F JUMPI PUSH2 0x217E PUSH2 0x1C68 JUMP JUMPDEST JUMPDEST PUSH2 0x218B DUP7 DUP3 DUP8 ADD PUSH2 0x1E79 JUMP JUMPDEST SWAP4 POP SWAP4 POP POP PUSH1 0x20 PUSH2 0x219E DUP7 DUP3 DUP8 ADD PUSH2 0x1DD4 JUMP JUMPDEST SWAP2 POP POP SWAP3 POP SWAP3 POP SWAP3 JUMP JUMPDEST PUSH1 0x0 DUP1 PUSH1 0x0 DUP1 PUSH1 0x60 DUP6 DUP8 SUB SLT ISZERO PUSH2 0x21C2 JUMPI PUSH2 0x21C1 PUSH2 0x1C63 JUMP JUMPDEST JUMPDEST PUSH1 0x0 DUP6 ADD CALLDATALOAD PUSH8 0xFFFFFFFFFFFFFFFF DUP2 GT ISZERO PUSH2 0x21E0 JUMPI PUSH2 0x21DF PUSH2 0x1C68 JUMP JUMPDEST JUMPDEST PUSH2 0x21EC DUP8 DUP3 DUP9 ADD PUSH2 0x1E79 JUMP JUMPDEST SWAP5 POP SWAP5 POP POP PUSH1 0x20 PUSH2 0x21FF DUP8 DUP3 DUP9 ADD PUSH2 0x1DD4 JUMP JUMPDEST SWAP3 POP POP PUSH1 0x40 PUSH2 0x2210 DUP8 DUP3 DUP9 ADD PUSH2 0x1DD4 JUMP JUMPDEST SWAP2 POP POP SWAP3 SWAP6 SWAP2 SWAP5 POP SWAP3 POP JUMP JUMPDEST PUSH1 0x0 DUP2 ISZERO ISZERO SWAP1 POP SWAP2 SWAP1 POP JUMP JUMPDEST PUSH2 0x2231 DUP2 PUSH2 0x221C JUMP JUMPDEST DUP3 MSTORE POP POP JUMP JUMPDEST PUSH1 0x0 PUSH1 0x20 DUP3 ADD SWAP1 POP PUSH2 0x224C PUSH1 0x0 DUP4 ADD DUP5 PUSH2 0x2228 JUMP JUMPDEST SWAP3 SWAP2 POP POP JUMP JUMPDEST PUSH1 0x0 DUP2 SWAP1 POP SWAP3 SWAP2 POP POP JUMP JUMPDEST PUSH1 0x0 PUSH2 0x2269 DUP4 DUP6 PUSH2 0x2252 JUMP JUMPDEST SWAP4 POP PUSH2 0x2276 DUP4 DUP6 DUP5 PUSH2 0x1D34 JUMP JUMPDEST DUP3 DUP5 ADD SWAP1 POP SWAP4 SWAP3 POP POP POP JUMP JUMPDEST PUSH1 0x0 PUSH2 0x228F DUP3 DUP5 DUP7 PUSH2 0x225D JUMP JUMPDEST SWAP2 POP DUP2 SWAP1 POP SWAP4 SWAP3 POP POP POP JUMP JUMPDEST PUSH32 0x4E487B7100000000000000000000000000000000000000000000000000000000 PUSH1 0x0 MSTORE PUSH1 0x32 PUSH1 0x4 MSTORE PUSH1 0x24 PUSH1 0x0 REVERT JUMPDEST PUSH32 0x4E487B7100000000000000000000000000000000000000000000000000000000 PUSH1 0x0 MSTORE PUSH1 0x11 PUSH1 0x4 MSTORE PUSH1 0x24 PUSH1 0x0 REVERT JUMPDEST PUSH1 0x0 PUSH2 0x2304 DUP3 PUSH2 0x1DB3 JUMP JUMPDEST SWAP2 POP PUSH2 0x230F DUP4 PUSH2 0x1DB3 JUMP JUMPDEST SWAP3 POP DUP3 DUP3 MUL PUSH2 0x231D DUP2 PUSH2 0x1DB3 JUMP JUMPDEST SWAP2 POP DUP3 DUP3 DIV DUP5 EQ DUP4 ISZERO OR PUSH2 0x2334 JUMPI PUSH2 0x2333 PUSH2 0x22CA JUMP JUMPDEST JUMPDEST POP SWAP3 SWAP2 POP POP JUMP JUMPDEST PUSH32 0x4E487B7100000000000000000000000000000000000000000000000000000000 PUSH1 0x0 MSTORE PUSH1 0x12 PUSH1 0x4 MSTORE PUSH1 0x24 PUSH1 0x0 REVERT JUMPDEST PUSH1 0x0 PUSH2 0x2375 DUP3 PUSH2 0x1DB3 JUMP JUMPDEST SWAP2 POP PUSH2 0x2380 DUP4 PUSH2 0x1DB3 JUMP JUMPDEST SWAP3 POP DUP3 PUSH2 0x2390 JUMPI PUSH2 0x238F PUSH2 0x233B JUMP JUMPDEST JUMPDEST DUP3 DUP3 DIV SWAP1 POP SWAP3 SWAP2 POP POP JUMP JUMPDEST PUSH1 0x0 DUP3 DUP3 MSTORE PUSH1 0x20 DUP3 ADD SWAP1 POP SWAP3 SWAP2 POP POP JUMP JUMPDEST PUSH32 0x4F776E61626C653A2063616C6C6572206973206E6F7420746865206F776E6572 PUSH1 0x0 DUP3 ADD MSTORE POP JUMP JUMPDEST PUSH1 0x0 PUSH2 0x23E2 PUSH1 0x20 DUP4 PUSH2 0x239B JUMP JUMPDEST SWAP2 POP PUSH2 0x23ED DUP3 PUSH2 0x23AC JUMP JUMPDEST PUSH1 0x20 DUP3 ADD SWAP1 POP SWAP2 SWAP1 POP JUMP JUMPDEST PUSH1 0x0 PUSH1 0x20 DUP3 ADD SWAP1 POP DUP2 DUP2 SUB PUSH1 0x0 DUP4 ADD MSTORE PUSH2 0x2411 DUP2 PUSH2 0x23D5 JUMP JUMPDEST SWAP1 POP SWAP2 SWAP1 POP JUMP JUMPDEST PUSH32 0x496E76616C696420616464726573733A207A65726F2061646472657373000000 PUSH1 0x0 DUP3 ADD MSTORE POP JUMP JUMPDEST PUSH1 0x0 PUSH2 0x244E PUSH1 0x1D DUP4 PUSH2 0x239B JUMP JUMPDEST SWAP2 POP PUSH2 0x2459 DUP3 PUSH2 0x2418 JUMP JUMPDEST PUSH1 0x20 DUP3 ADD SWAP1 POP SWAP2 SWAP1 POP JUMP JUMPDEST PUSH1 0x0 PUSH1 0x20 DUP3 ADD SWAP1 POP DUP2 DUP2 SUB PUSH1 0x0 DUP4 ADD MSTORE PUSH2 0x247D DUP2 PUSH2 0x2441 JUMP JUMPDEST SWAP1 POP SWAP2 SWAP1 POP JUMP JUMPDEST PUSH1 0x0 PUSH1 0x40 DUP3 ADD SWAP1 POP PUSH2 0x2499 PUSH1 0x0 DUP4 ADD DUP6 PUSH2 0x1C2F JUMP JUMPDEST PUSH2 0x24A6 PUSH1 0x20 DUP4 ADD DUP5 PUSH2 0x1C2F JUMP JUMPDEST SWAP4 SWAP3 POP POP POP JUMP JUMPDEST PUSH32 0x4D75737420626520696E697469616C697A65642066726F6D2070726F78790000 PUSH1 0x0 DUP3 ADD MSTORE POP JUMP JUMPDEST PUSH1 0x0 PUSH2 0x24E3 PUSH1 0x1E DUP4 PUSH2 0x239B JUMP JUMPDEST SWAP2 POP PUSH2 0x24EE DUP3 PUSH2 0x24AD JUMP JUMPDEST PUSH1 0x20 DUP3 ADD SWAP1 POP SWAP2 SWAP1 POP JUMP JUMPDEST PUSH1 0x0 PUSH1 0x20 DUP3 ADD SWAP1 POP DUP2 DUP2 SUB PUSH1 0x0 DUP4 ADD MSTORE PUSH2 0x2512 DUP2 PUSH2 0x24D6 JUMP JUMPDEST SWAP1 POP SWAP2 SWAP1 POP JUMP JUMPDEST PUSH32 0x636F6E646974696F6E206E6F7420707265706172656400000000000000000000 PUSH1 0x0 DUP3 ADD MSTORE POP JUMP JUMPDEST PUSH1 0x0 PUSH2 0x254F PUSH1 0x16 DUP4 PUSH2 0x239B JUMP JUMPDEST SWAP2 POP PUSH2 0x255A DUP3 PUSH2 0x2519 JUMP JUMPDEST PUSH1 0x20 DUP3 ADD SWAP1 POP SWAP2 SWAP1 POP JUMP JUMPDEST PUSH1 0x0 PUSH1 0x20 DUP3 ADD SWAP1 POP DUP2 DUP2 SUB PUSH1 0x0 DUP4 ADD MSTORE PUSH2 0x257E DUP2 PUSH2 0x2542 JUMP JUMPDEST SWAP1 POP SWAP2 SWAP1 POP JUMP JUMPDEST PUSH1 0x0 PUSH1 0x40 DUP3 ADD SWAP1 POP PUSH2 0x259A PUSH1 0x0 DUP4 ADD DUP6 PUSH2 0x1C2F JUMP JUMPDEST PUSH2 0x25A7 PUSH1 0x20 DUP4 ADD DUP5 PUSH2 0x1E45 JUMP JUMPDEST SWAP4 SWAP3 POP POP POP JUMP JUMPDEST PUSH2 0x25B7 DUP2 PUSH2 0x221C JUMP JUMPDEST DUP2 EQ PUSH2 0x25C2 JUMPI PUSH1 0x0 DUP1 REVERT JUMPDEST POP JUMP JUMPDEST PUSH1 0x0 DUP2 MLOAD SWAP1 POP PUSH2 0x25D4 DUP2 PUSH2 0x25AE JUMP JUMPDEST SWAP3 SWAP2 POP POP JUMP JUMPDEST PUSH1 0x0 PUSH1 0x20 DUP3 DUP5 SUB SLT ISZERO PUSH2 0x25F0 JUMPI PUSH2 0x25EF PUSH2 0x1C63 JUMP JUMPDEST JUMPDEST PUSH1 0x0 PUSH2 0x25FE DUP5 DUP3 DUP6 ADD PUSH2 0x25C5 JUMP JUMPDEST SWAP2 POP POP SWAP3 SWAP2 POP POP JUMP JUMPDEST PUSH32 0x5472616E73666572206661696C65640000000000000000000000000000000000 PUSH1 0x0 DUP3 ADD MSTORE POP JUMP JUMPDEST PUSH1 0x0 PUSH2 0x263D PUSH1 0xF DUP4 PUSH2 0x239B JUMP JUMPDEST SWAP2 POP PUSH2 0x2648 DUP3 PUSH2 0x2607 JUMP JUMPDEST PUSH1 0x20 DUP3 ADD SWAP1 POP SWAP2 SWAP1 POP JUMP JUMPDEST PUSH1 0x0 PUSH1 0x20 DUP3 ADD SWAP1 POP DUP2 DUP2 SUB PUSH1 0x0 DUP4 ADD MSTORE PUSH2 0x266C DUP2 PUSH2 0x2630 JUMP JUMPDEST SWAP1 POP SWAP2 SWAP1 POP JUMP JUMPDEST PUSH32 0x4665652063616E6E6F74206265206C657373207468616E203000000000000000 PUSH1 0x0 DUP3 ADD MSTORE POP JUMP JUMPDEST PUSH1 0x0 PUSH2 0x26A9 PUSH1 0x19 DUP4 PUSH2 0x239B JUMP JUMPDEST SWAP2 POP PUSH2 0x26B4 DUP3 PUSH2 0x2673 JUMP JUMPDEST PUSH1 0x20 DUP3 ADD SWAP1 POP SWAP2 SWAP1 POP JUMP JUMPDEST PUSH1 0x0 PUSH1 0x20 DUP3 ADD SWAP1 POP DUP2 DUP2 SUB PUSH1 0x0 DUP4 ADD MSTORE PUSH2 0x26D8 DUP2 PUSH2 0x269C JUMP JUMPDEST SWAP1 POP SWAP2 SWAP1 POP JUMP JUMPDEST PUSH32 0x746F6F206D616E79206F7574636F6D6520736C6F747300000000000000000000 PUSH1 0x0 DUP3 ADD MSTORE POP JUMP JUMPDEST PUSH1 0x0 PUSH2 0x2715 PUSH1 0x16 DUP4 PUSH2 0x239B JUMP JUMPDEST SWAP2 POP PUSH2 0x2720 DUP3 PUSH2 0x26DF JUMP JUMPDEST PUSH1 0x20 DUP3 ADD SWAP1 POP SWAP2 SWAP1 POP JUMP JUMPDEST PUSH1 0x0 PUSH1 0x20 DUP3 ADD SWAP1 POP DUP2 DUP2 SUB PUSH1 0x0 DUP4 ADD MSTORE PUSH2 0x2744 DUP2 PUSH2 0x2708 JUMP JUMPDEST SWAP1 POP SWAP2 SWAP1 POP JUMP JUMPDEST PUSH32 0x74686572652073686F756C64206265206D6F7265207468616E206F6E65206F75 PUSH1 0x0 DUP3 ADD MSTORE PUSH32 0x74636F6D6520736C6F7400000000000000000000000000000000000000000000 PUSH1 0x20 DUP3 ADD MSTORE POP JUMP JUMPDEST PUSH1 0x0 PUSH2 0x27A7 PUSH1 0x2A DUP4 PUSH2 0x239B JUMP JUMPDEST SWAP2 POP PUSH2 0x27B2 DUP3 PUSH2 0x274B JUMP JUMPDEST PUSH1 0x40 DUP3 ADD SWAP1 POP SWAP2 SWAP1 POP JUMP JUMPDEST PUSH1 0x0 PUSH1 0x20 DUP3 ADD SWAP1 POP DUP2 DUP2 SUB PUSH1 0x0 DUP4 ADD MSTORE PUSH2 0x27D6 DUP2 PUSH2 0x279A JUMP JUMPDEST SWAP1 POP SWAP2 SWAP1 POP JUMP JUMPDEST PUSH32 0x636F6E646974696F6E20616C7265616479207072657061726564000000000000 PUSH1 0x0 DUP3 ADD MSTORE POP JUMP JUMPDEST PUSH1 0x0 PUSH2 0x2813 PUSH1 0x1A DUP4 PUSH2 0x239B JUMP JUMPDEST SWAP2 POP PUSH2 0x281E DUP3 PUSH2 0x27DD JUMP JUMPDEST PUSH1 0x20 DUP3 ADD SWAP1 POP SWAP2 SWAP1 POP JUMP JUMPDEST PUSH1 0x0 PUSH1 0x20 DUP3 ADD SWAP1 POP DUP2 DUP2 SUB PUSH1 0x0 DUP4 ADD MSTORE PUSH2 0x2842 DUP2 PUSH2 0x2806 JUMP JUMPDEST SWAP1 POP SWAP2 SWAP1 POP JUMP JUMPDEST PUSH32 0x6E6F742070726570617265640000000000000000000000000000000000000000 PUSH1 0x0 DUP3 ADD MSTORE POP JUMP JUMPDEST PUSH1 0x0 PUSH2 0x287F PUSH1 0xC DUP4 PUSH2 0x239B JUMP JUMPDEST SWAP2 POP PUSH2 0x288A DUP3 PUSH2 0x2849 JUMP JUMPDEST PUSH1 0x20 DUP3 ADD SWAP1 POP SWAP2 SWAP1 POP JUMP JUMPDEST PUSH1 0x0 PUSH1 0x20 DUP3 ADD SWAP1 POP DUP2 DUP2 SUB PUSH1 0x0 DUP4 ADD MSTORE PUSH2 0x28AE DUP2 PUSH2 0x2872 JUMP JUMPDEST SWAP1 POP SWAP2 SWAP1 POP JUMP JUMPDEST PUSH1 0x0 DUP2 MLOAD SWAP1 POP PUSH2 0x28C4 DUP2 PUSH2 0x1DBD JUMP JUMPDEST SWAP3 SWAP2 POP POP JUMP JUMPDEST PUSH1 0x0 PUSH1 0x20 DUP3 DUP5 SUB SLT ISZERO PUSH2 0x28E0 JUMPI PUSH2 0x28DF PUSH2 0x1C63 JUMP JUMPDEST JUMPDEST PUSH1 0x0 PUSH2 0x28EE DUP5 DUP3 DUP6 ADD PUSH2 0x28B5 JUMP JUMPDEST SWAP2 POP POP SWAP3 SWAP2 POP POP JUMP JUMPDEST PUSH32 0x496E73756666696369656E7420746F6B656E2062616C616E6365000000000000 PUSH1 0x0 DUP3 ADD MSTORE POP JUMP JUMPDEST PUSH1 0x0 PUSH2 0x292D PUSH1 0x1A DUP4 PUSH2 0x239B JUMP JUMPDEST SWAP2 POP PUSH2 0x2938 DUP3 PUSH2 0x28F7 JUMP JUMPDEST PUSH1 0x20 DUP3 ADD SWAP1 POP SWAP2 SWAP1 POP JUMP JUMPDEST PUSH1 0x0 PUSH1 0x20 DUP3 ADD SWAP1 POP DUP2 DUP2 SUB PUSH1 0x0 DUP4 ADD MSTORE PUSH2 0x295C DUP2 PUSH2 0x2920 JUMP JUMPDEST SWAP1 POP SWAP2 SWAP1 POP JUMP JUMPDEST PUSH1 0x0 PUSH1 0x60 DUP3 ADD SWAP1 POP PUSH2 0x2978 PUSH1 0x0 DUP4 ADD DUP7 PUSH2 0x1C2F JUMP JUMPDEST PUSH2 0x2985 PUSH1 0x20 DUP4 ADD DUP6 PUSH2 0x1C2F JUMP JUMPDEST PUSH2 0x2992 PUSH1 0x40 DUP4 ADD DUP5 PUSH2 0x1E45 JUMP JUMPDEST SWAP5 SWAP4 POP POP POP POP JUMP JUMPDEST PUSH32 0x546F6B656E207472616E73666572206661696C65640000000000000000000000 PUSH1 0x0 DUP3 ADD MSTORE POP JUMP JUMPDEST PUSH1 0x0 PUSH2 0x29D0 PUSH1 0x15 DUP4 PUSH2 0x239B JUMP JUMPDEST SWAP2 POP PUSH2 0x29DB DUP3 PUSH2 0x299A JUMP JUMPDEST PUSH1 0x20 DUP3 ADD SWAP1 POP SWAP2 SWAP1 POP JUMP JUMPDEST PUSH1 0x0 PUSH1 0x20 DUP3 ADD SWAP1 POP DUP2 DUP2 SUB PUSH1 0x0 DUP4 ADD MSTORE PUSH2 0x29FF DUP2 PUSH2 0x29C3 JUMP JUMPDEST SWAP1 POP SWAP2 SWAP1 POP JUMP JUMPDEST PUSH1 0x0 PUSH2 0x2A11 DUP3 PUSH2 0x1DB3 JUMP JUMPDEST SWAP2 POP PUSH2 0x2A1C DUP4 PUSH2 0x1DB3 JUMP JUMPDEST SWAP3 POP DUP3 DUP3 ADD SWAP1 POP DUP1 DUP3 GT ISZERO PUSH2 0x2A34 JUMPI PUSH2 0x2A33 PUSH2 0x22CA JUMP JUMPDEST JUMPDEST SWAP3 SWAP2 POP POP JUMP JUMPDEST PUSH1 0x0 PUSH2 0x2A45 DUP3 PUSH2 0x1DB3 JUMP JUMPDEST SWAP2 POP PUSH2 0x2A50 DUP4 PUSH2 0x1DB3 JUMP JUMPDEST SWAP3 POP DUP3 DUP3 SUB SWAP1 POP DUP2 DUP2 GT ISZERO PUSH2 0x2A68 JUMPI PUSH2 0x2A67 PUSH2 0x22CA JUMP JUMPDEST JUMPDEST SWAP3 SWAP2 POP POP JUMP JUMPDEST PUSH32 0x466565207472616E73666572206661696C656400000000000000000000000000 PUSH1 0x0 DUP3 ADD MSTORE POP JUMP JUMPDEST PUSH1 0x0 PUSH2 0x2AA4 PUSH1 0x13 DUP4 PUSH2 0x239B JUMP JUMPDEST SWAP2 POP PUSH2 0x2AAF DUP3 PUSH2 0x2A6E JUMP JUMPDEST PUSH1 0x20 DUP3 ADD SWAP1 POP SWAP2 SWAP1 POP JUMP JUMPDEST PUSH1 0x0 PUSH1 0x20 DUP3 ADD SWAP1 POP DUP2 DUP2 SUB PUSH1 0x0 DUP4 ADD MSTORE PUSH2 0x2AD3 DUP2 PUSH2 0x2A97 JUMP JUMPDEST SWAP1 POP SWAP2 SWAP1 POP JUMP JUMPDEST PUSH32 0x5769746864726177207472616E73666572206661696C65640000000000000000 PUSH1 0x0 DUP3 ADD MSTORE POP JUMP JUMPDEST PUSH1 0x0 PUSH2 0x2B10 PUSH1 0x18 DUP4 PUSH2 0x239B JUMP JUMPDEST SWAP2 POP PUSH2 0x2B1B DUP3 PUSH2 0x2ADA JUMP JUMPDEST PUSH1 0x20 DUP3 ADD SWAP1 POP SWAP2 SWAP1 POP JUMP JUMPDEST PUSH1 0x0 PUSH1 0x20 DUP3 ADD SWAP1 POP DUP2 DUP2 SUB PUSH1 0x0 DUP4 ADD MSTORE PUSH2 0x2B3F DUP2 PUSH2 0x2B03 JUMP JUMPDEST SWAP1 POP SWAP2 SWAP1 POP JUMP JUMPDEST PUSH32 0x4F776E61626C653A206E6577206F776E657220697320746865207A65726F2061 PUSH1 0x0 DUP3 ADD MSTORE PUSH32 0x6464726573730000000000000000000000000000000000000000000000000000 PUSH1 0x20 DUP3 ADD MSTORE POP JUMP JUMPDEST PUSH1 0x0 PUSH2 0x2BA2 PUSH1 0x26 DUP4 PUSH2 0x239B JUMP JUMPDEST SWAP2 POP PUSH2 0x2BAD DUP3 PUSH2 0x2B46 JUMP JUMPDEST PUSH1 0x40 DUP3 ADD SWAP1 POP SWAP2 SWAP1 POP JUMP JUMPDEST PUSH1 0x0 PUSH1 0x20 DUP3 ADD SWAP1 POP DUP2 DUP2 SUB PUSH1 0x0 DUP4 ADD MSTORE PUSH2 0x2BD1 DUP2 PUSH2 0x2B95 JUMP JUMPDEST SWAP1 POP SWAP2 SWAP1 POP JUMP INVALID LOG2 PUSH5 0x6970667358 0x22 SLT KECCAK256 XOR PUSH24 0x303251704622711D7819C1A0421C9874BD8348660AC7E70E SSTORE GASPRICE PUSH30 0xF6DB5464736F6C6343000818003300000000000000000000000000000000 "},"methodIdentifiers":{"_feeAmount()":"5a9e497d","cancelOption(string)":"694b3367","casinoChips()":"621bbef7","changeFeeReceiver(address)":"7c08b964","contractOwner()":"ce606ee0","feeTo()":"017e7e58","getOrderInfo(string)":"15eb3f30","initialize(address,address)":"485cc955","isOwner()":"8f32d59b","optionStatus(string)":"320979a2","payoutNumerators(string,uint256)":"1062d861","payoutPosition(string)":"8dcd9503","placeOrder(string,uint256,uint256)":"88b922d5","prepareCondition(string,uint256)":"83d7cd95","renounceOwnership()":"715018a6","reportPayouts(string,uint256)":"9ba829f7","setCasinoChips(address)":"466cf93a","setFeeAmount(uint256)":"6b392680","totalAmountBet(string)":"2762b602","transferOwnership(address)":"f2fde38b"}}}}}