{
  "_format": "hh-sol-artifact-1",
  "contractName": "Option",
  "sourceName": "contracts/Prediction/polyv3.sol",
  "abi": [
    {
      "inputs": [
        {
          "internalType": "address",
          "name": "account",
          "type": "address"
        }
      ],
      "name": "UnauthorizedAccount",
      "type": "error"
    },
    {
      "anonymous": false,
      "inputs": [
        {
          "indexed": true,
          "internalType": "string",
          "name": "conditionId",
          "type": "string"
        },
        {
          "indexed": true,
          "internalType": "uint256",
          "name": "position",
          "type": "uint256"
        },
        {
          "indexed": false,
          "internalType": "address",
          "name": "payoutAddress",
          "type": "address"
        }
      ],
      "name": "ConditionPayout",
      "type": "event"
    },
    {
      "anonymous": false,
      "inputs": [
        {
          "indexed": true,
          "internalType": "string",
          "name": "conditionId",
          "type": "string"
        },
        {
          "indexed": true,
          "internalType": "uint256",
          "name": "position",
          "type": "uint256"
        },
        {
          "indexed": false,
          "internalType": "uint256",
          "name": "amount",
          "type": "uint256"
        }
      ],
      "name": "ConditionPlace",
      "type": "event"
    },
    {
      "anonymous": false,
      "inputs": [
        {
          "indexed": true,
          "internalType": "string",
          "name": "conditionId",
          "type": "string"
        },
        {
          "indexed": false,
          "internalType": "uint256",
          "name": "outcomeSlotCount",
          "type": "uint256"
        }
      ],
      "name": "ConditionPreparation",
      "type": "event"
    },
    {
      "anonymous": false,
      "inputs": [
        {
          "indexed": true,
          "internalType": "address",
          "name": "previousOwner",
          "type": "address"
        },
        {
          "indexed": true,
          "internalType": "address",
          "name": "newOwner",
          "type": "address"
        }
      ],
      "name": "OwnershipTransferred",
      "type": "event"
    },
    {
      "anonymous": false,
      "inputs": [
        {
          "indexed": false,
          "internalType": "address",
          "name": "olderToken",
          "type": "address"
        },
        {
          "indexed": false,
          "internalType": "address",
          "name": "newToken",
          "type": "address"
        }
      ],
      "name": "casinoChipsChanged",
      "type": "event"
    },
    {
      "anonymous": false,
      "inputs": [
        {
          "indexed": false,
          "internalType": "uint256",
          "name": "feeAmount",
          "type": "uint256"
        }
      ],
      "name": "feeAmountChanged",
      "type": "event"
    },
    {
      "anonymous": false,
      "inputs": [
        {
          "indexed": false,
          "internalType": "address",
          "name": "olderReceiver",
          "type": "address"
        },
        {
          "indexed": false,
          "internalType": "address",
          "name": "newReceiver",
          "type": "address"
        }
      ],
      "name": "feeReceiverChanged",
      "type": "event"
    },
    {
      "anonymous": false,
      "inputs": [
        {
          "indexed": true,
          "internalType": "string",
          "name": "conditionId",
          "type": "string"
        }
      ],
      "name": "optionCanceled",
      "type": "event"
    },
    {
      "inputs": [],
      "name": "_feeAmount",
      "outputs": [
        {
          "internalType": "uint256",
          "name": "",
          "type": "uint256"
        }
      ],
      "stateMutability": "view",
      "type": "function"
    },
    {
      "inputs": [
        {
          "internalType": "string",
          "name": "conditionId",
          "type": "string"
        }
      ],
      "name": "cancelOption",
      "outputs": [],
      "stateMutability": "nonpayable",
      "type": "function"
    },
    {
      "inputs": [],
      "name": "casinoChips",
      "outputs": [
        {
          "internalType": "address",
          "name": "",
          "type": "address"
        }
      ],
      "stateMutability": "view",
      "type": "function"
    },
    {
      "inputs": [
        {
          "internalType": "address",
          "name": "_newFeeReceiver",
          "type": "address"
        }
      ],
      "name": "changeFeeReceiver",
      "outputs": [],
      "stateMutability": "nonpayable",
      "type": "function"
    },
    {
      "inputs": [],
      "name": "contractOwner",
      "outputs": [
        {
          "internalType": "address",
          "name": "",
          "type": "address"
        }
      ],
      "stateMutability": "view",
      "type": "function"
    },
    {
      "inputs": [],
      "name": "feeTo",
      "outputs": [
        {
          "internalType": "address",
          "name": "",
          "type": "address"
        }
      ],
      "stateMutability": "view",
      "type": "function"
    },
    {
      "inputs": [
        {
          "internalType": "string",
          "name": "conditionId",
          "type": "string"
        }
      ],
      "name": "getOrderInfo",
      "outputs": [
        {
          "internalType": "uint256",
          "name": "total",
          "type": "uint256"
        },
        {
          "components": [
            {
              "internalType": "uint256",
              "name": "amount",
              "type": "uint256"
            },
            {
              "internalType": "uint256",
              "name": "toWin",
              "type": "uint256"
            }
          ],
          "internalType": "struct Option.conditionInfo[]",
          "name": "details",
          "type": "tuple[]"
        }
      ],
      "stateMutability": "view",
      "type": "function"
    },
    {
      "inputs": [
        {
          "internalType": "address",
          "name": "token",
          "type": "address"
        },
        {
          "internalType": "address",
          "name": "_feeTo",
          "type": "address"
        }
      ],
      "name": "initialize",
      "outputs": [],
      "stateMutability": "nonpayable",
      "type": "function"
    },
    {
      "inputs": [],
      "name": "isOwner",
      "outputs": [
        {
          "internalType": "bool",
          "name": "",
          "type": "bool"
        }
      ],
      "stateMutability": "view",
      "type": "function"
    },
    {
      "inputs": [
        {
          "internalType": "string",
          "name": "",
          "type": "string"
        }
      ],
      "name": "optionStatus",
      "outputs": [
        {
          "internalType": "uint256",
          "name": "",
          "type": "uint256"
        }
      ],
      "stateMutability": "view",
      "type": "function"
    },
    {
      "inputs": [
        {
          "internalType": "string",
          "name": "",
          "type": "string"
        },
        {
          "internalType": "uint256",
          "name": "",
          "type": "uint256"
        }
      ],
      "name": "payoutNumerators",
      "outputs": [
        {
          "internalType": "uint256",
          "name": "",
          "type": "uint256"
        }
      ],
      "stateMutability": "view",
      "type": "function"
    },
    {
      "inputs": [
        {
          "internalType": "string",
          "name": "",
          "type": "string"
        }
      ],
      "name": "payoutPosition",
      "outputs": [
        {
          "internalType": "address",
          "name": "",
          "type": "address"
        }
      ],
      "stateMutability": "view",
      "type": "function"
    },
    {
      "inputs": [
        {
          "internalType": "string",
          "name": "conditionId",
          "type": "string"
        },
        {
          "internalType": "uint256",
          "name": "position",
          "type": "uint256"
        },
        {
          "internalType": "uint256",
          "name": "amount",
          "type": "uint256"
        }
      ],
      "name": "placeOrder",
      "outputs": [],
      "stateMutability": "nonpayable",
      "type": "function"
    },
    {
      "inputs": [
        {
          "internalType": "string",
          "name": "conditionId",
          "type": "string"
        },
        {
          "internalType": "uint256",
          "name": "outcomeSlotCount",
          "type": "uint256"
        }
      ],
      "name": "prepareCondition",
      "outputs": [],
      "stateMutability": "nonpayable",
      "type": "function"
    },
    {
      "inputs": [],
      "name": "renounceOwnership",
      "outputs": [],
      "stateMutability": "nonpayable",
      "type": "function"
    },
    {
      "inputs": [
        {
          "internalType": "string",
          "name": "conditionId",
          "type": "string"
        },
        {
          "internalType": "uint256",
          "name": "position",
          "type": "uint256"
        }
      ],
      "name": "reportPayouts",
      "outputs": [],
      "stateMutability": "nonpayable",
      "type": "function"
    },
    {
      "inputs": [
        {
          "internalType": "address",
          "name": "_newTokenAddr",
          "type": "address"
        }
      ],
      "name": "setCasinoChips",
      "outputs": [],
      "stateMutability": "nonpayable",
      "type": "function"
    },
    {
      "inputs": [
        {
          "internalType": "uint256",
          "name": "_fee",
          "type": "uint256"
        }
      ],
      "name": "setFeeAmount",
      "outputs": [],
      "stateMutability": "nonpayable",
      "type": "function"
    },
    {
      "inputs": [
        {
          "internalType": "string",
          "name": "",
          "type": "string"
        }
      ],
      "name": "totalAmountBet",
      "outputs": [
        {
          "internalType": "uint256",
          "name": "",
          "type": "uint256"
        }
      ],
      "stateMutability": "view",
      "type": "function"
    },
    {
      "inputs": [
        {
          "internalType": "address",
          "name": "newOwner",
          "type": "address"
        }
      ],
      "name": "transferOwnership",
      "outputs": [],
      "stateMutability": "nonpayable",
      "type": "function"
    }
  ],
  "bytecode": "0x608060405234801561001057600080fd5b50612c0e806100206000396000f3fe608060405234801561001057600080fd5b506004361061012c5760003560e01c80636b392680116100ad5780638dcd9503116100715780638dcd95031461031a5780638f32d59b1461034a5780639ba829f714610368578063ce606ee014610384578063f2fde38b146103a25761012c565b80636b392680146102a0578063715018a6146102bc5780637c08b964146102c657806383d7cd95146102e257806388b922d5146102fe5761012c565b8063466cf93a116100f4578063466cf93a14610210578063485cc9551461022c5780635a9e497d14610248578063621bbef714610266578063694b3367146102845761012c565b8063017e7e58146101315780631062d8611461014f57806315eb3f301461017f5780632762b602146101b0578063320979a2146101e0575b600080fd5b6101396103be565b6040516101469190611c3e565b60405180910390f35b61016960048036038101906101649190611de9565b6103e4565b6040516101769190611e54565b60405180910390f35b61019960048036038101906101949190611ecf565b61042b565b6040516101a7929190612009565b60405180910390f35b6101ca60048036038101906101c59190612039565b6105f6565b6040516101d79190611e54565b60405180910390f35b6101fa60048036038101906101f59190612039565b610624565b6040516102079190611e54565b60405180910390f35b61022a600480360381019061022591906120ae565b610652565b005b610246600480360381019061024191906120db565b6107ad565b005b6102506108ca565b60405161025d9190611e54565b60405180910390f35b61026e6108d0565b60405161027b9190611c3e565b60405180910390f35b61029e60048036038101906102999190611ecf565b6108f6565b005b6102ba60048036038101906102b5919061211b565b610b35565b005b6102c4610bca565b005b6102e060048036038101906102db91906120ae565b610cd2565b005b6102fc60048036038101906102f79190612148565b610e2d565b005b610318600480360381019061031391906121a8565b611085565b005b610334600480360381019061032f9190612039565b611412565b6040516103419190611c3e565b60405180910390f35b61035261145b565b60405161035f9190612237565b60405180910390f35b610382600480360381019061037d9190612148565b6114b3565b005b61038c611667565b6040516103999190611c3e565b60405180910390f35b6103bc60048036038101906103b791906120ae565b611691565b005b600860009054906101000a900473ffffffffffffffffffffffffffffffffffffffff1681565b600382805160208101820180518482526020830160208501208183528095505050505050818154811061041657600080fd5b90600052602060002001600091509150505481565b6000606060048484604051610441929190612282565b9081526020016040518091039020549150600060038585604051610466929190612282565b90815260200160405180910390208054806020026020016040519081016040528092919081815260200182805480156104be57602002820191906000526020600020905b8154815260200190600101908083116104aa575b50505050509050805167ffffffffffffffff8111156104e0576104df611c88565b5b60405190808252806020026020018201604052801561051957816020015b610506611b79565b8152602001906001900390816104fe5790505b50915060005b81518110156105ed57600082828151811061053d5761053c61229b565b5b6020026020010151146105e05781818151811061055d5761055c61229b565b5b60200260200101518382815181106105785761057761229b565b5b6020026020010151600001818152505081818151811061059b5761059a61229b565b5b6020026020010151620f4240856105b291906122f9565b6105bc919061236a565b8382815181106105cf576105ce61229b565b5b602002602001015160200181815250505b808060010191505061051f565b50509250929050565b6004818051602081018201805184825260208301602085012081835280955050505050506000915090505481565b6006818051602081018201805184825260208301602085012081835280955050505050506000915090505481565b61065a61145b565b610699576040517f08c379a0000000000000000000000000000000000000000000000000000000008152600401610690906123f8565b60405180910390fd5b600073ffffffffffffffffffffffffffffffffffffffff168173ffffffffffffffffffffffffffffffffffffffff1603610708576040517f08c379a00000000000000000000000000000000000000000000000000000000081526004016106ff90612464565b60405180910390fd5b6000600760009054906101000a900473ffffffffffffffffffffffffffffffffffffffff16905081600760006101000a81548173ffffffffffffffffffffffffffffffffffffffff021916908373ffffffffffffffffffffffffffffffffffffffff1602179055507f47bbed8023ac1a0fe3025394c8f6b641a067058c37bc4eb3b7ccd0c68a7606b881836040516107a1929190612484565b60405180910390a15050565b600073ffffffffffffffffffffffffffffffffffffffff1660008054906101000a900473ffffffffffffffffffffffffffffffffffffffff1673ffffffffffffffffffffffffffffffffffffffff160361083c576040517f08c379a0000000000000000000000000000000000000000000000000000000008152600401610833906124f9565b60405180910390fd5b6108446116e4565b81600760006101000a81548173ffffffffffffffffffffffffffffffffffffffff021916908373ffffffffffffffffffffffffffffffffffffffff16021790555080600860006101000a81548173ffffffffffffffffffffffffffffffffffffffff021916908373ffffffffffffffffffffffffffffffffffffffff1602179055505050565b60095481565b600760009054906101000a900473ffffffffffffffffffffffffffffffffffffffff1681565b6108fe61145b565b61093d576040517f08c379a0000000000000000000000000000000000000000000000000000000008152600401610934906123f8565b60405180910390fd5b600160068383604051610951929190612282565b908152602001604051809103902054146109a0576040517f08c379a000000000000000000000000000000000000000000000000000000000815260040161099790612565565b60405180910390fd5b6003600683836040516109b4929190612282565b9081526020016040518091039020819055506000600483836040516109da929190612282565b9081526020016040518091039020549050600760009054906101000a900473ffffffffffffffffffffffffffffffffffffffff1673ffffffffffffffffffffffffffffffffffffffff1663a9059cbb600860009054906101000a900473ffffffffffffffffffffffffffffffffffffffff16836040518363ffffffff1660e01b8152600401610a6a929190612585565b6020604051808303816000875af1158015610a89573d6000803e3d6000fd5b505050506040513d601f19601f82011682018060405250810190610aad91906125da565b610aec576040517f08c379a0000000000000000000000000000000000000000000000000000000008152600401610ae390612653565b60405180910390fd5b8282604051610afc929190612282565b60405180910390207fde1e9c86643c2400be5c0076c1fe395547c541d659999212b4e9f05639975b6f60405160405180910390a2505050565b610b3d61145b565b610b7c576040517f08c379a0000000000000000000000000000000000000000000000000000000008152600401610b73906123f8565b60405180910390fd5b6000811015610bc0576040517f08c379a0000000000000000000000000000000000000000000000000000000008152600401610bb7906126bf565b60405180910390fd5b8060098190555050565b610bd261145b565b610c11576040517f08c379a0000000000000000000000000000000000000000000000000000000008152600401610c08906123f8565b60405180910390fd5b600073ffffffffffffffffffffffffffffffffffffffff16600260009054906101000a900473ffffffffffffffffffffffffffffffffffffffff1673ffffffffffffffffffffffffffffffffffffffff167f8be0079c531659141344cd1fd0a4f28419497f9722a3daafe3b4186f6b6457e060405160405180910390a36000600260006101000a81548173ffffffffffffffffffffffffffffffffffffffff021916908373ffffffffffffffffffffffffffffffffffffffff160217905550565b610cda61145b565b610d19576040517f08c379a0000000000000000000000000000000000000000000000000000000008152600401610d10906123f8565b60405180910390fd5b600073ffffffffffffffffffffffffffffffffffffffff168173ffffffffffffffffffffffffffffffffffffffff1603610d88576040517f08c379a0000000000000000000000000000000000000000000000000000000008152600401610d7f90612464565b60405180910390fd5b6000600860009054906101000a900473ffffffffffffffffffffffffffffffffffffffff16905081600860006101000a81548173ffffffffffffffffffffffffffffffffffffffff021916908373ffffffffffffffffffffffffffffffffffffffff1602179055507f47bbed8023ac1a0fe3025394c8f6b641a067058c37bc4eb3b7ccd0c68a7606b88183604051610e21929190612484565b60405180910390a15050565b610e3561145b565b610e74576040517f08c379a0000000000000000000000000000000000000000000000000000000008152600401610e6b906123f8565b60405180910390fd5b610100811115610eb9576040517f08c379a0000000000000000000000000000000000000000000000000000000008152600401610eb09061272b565b60405180910390fd5b60018111610efc576040517f08c379a0000000000000000000000000000000000000000000000000000000008152600401610ef3906127bd565b60405180910390fd5b600060038484604051610f10929190612282565b908152602001604051809103902080549050148015610f4f5750600060068484604051610f3e929190612282565b908152602001604051809103902054145b610f8e576040517f08c379a0000000000000000000000000000000000000000000000000000000008152600401610f8590612829565b60405180910390fd5b600160068484604051610fa2929190612282565b9081526020016040518091039020819055508067ffffffffffffffff811115610fce57610fcd611c88565b5b604051908082528060200260200182016040528015610ffc5781602001602082028036833780820191505090505b506003848460405161100f929190612282565b90815260200160405180910390209080519060200190611030929190611b93565b508282604051611041929190612282565b60405180910390207fa32de6189e144edec4436e11cc70ceffd6475771373eb877b6368f066bde691e826040516110789190611e54565b60405180910390a2505050565b61108d61145b565b6110cc576040517f08c379a00000000000000000000000000000000000000000000000000000000081526004016110c3906123f8565b60405180910390fd5b6001600685856040516110e0929190612282565b9081526020016040518091039020541461112f576040517f08c379a000000000000000000000000000000000000000000000000000000000815260040161112690612895565b60405180910390fd5b80600760009054906101000a900473ffffffffffffffffffffffffffffffffffffffff1673ffffffffffffffffffffffffffffffffffffffff166370a08231600260009054906101000a900473ffffffffffffffffffffffffffffffffffffffff166040518263ffffffff1660e01b81526004016111ad9190611c3e565b602060405180830381865afa1580156111ca573d6000803e3d6000fd5b505050506040513d601f19601f820116820180604052508101906111ee91906128ca565b101561122f576040517f08c379a000000000000000000000000000000000000000000000000000000000815260040161122690612943565b60405180910390fd5b600760009054906101000a900473ffffffffffffffffffffffffffffffffffffffff1673ffffffffffffffffffffffffffffffffffffffff166323b872dd600260009054906101000a900473ffffffffffffffffffffffffffffffffffffffff1630846040518463ffffffff1660e01b81526004016112b093929190612963565b6020604051808303816000875af11580156112cf573d6000803e3d6000fd5b505050506040513d601f19601f820116820180604052508101906112f391906125da565b611332576040517f08c379a0000000000000000000000000000000000000000000000000000000008152600401611329906129e6565b60405180910390fd5b8060048585604051611345929190612282565b908152602001604051809103902060008282546113629190612a06565b92505081905550806003858560405161137c929190612282565b9081526020016040518091039020838154811061139c5761139b61229b565b5b9060005260206000200160008282546113b59190612a06565b925050819055508184846040516113cd929190612282565b60405180910390207f9b6a62a6be19f8204c05044b3e9d17d2b27487807e7e76b5e279ba0d6531a946836040516114049190611e54565b60405180910390a350505050565b6005818051602081018201805184825260208301602085012081835280955050505050506000915054906101000a900473ffffffffffffffffffffffffffffffffffffffff1681565b6000600260009054906101000a900473ffffffffffffffffffffffffffffffffffffffff1673ffffffffffffffffffffffffffffffffffffffff163373ffffffffffffffffffffffffffffffffffffffff1614905090565b6114bb61145b565b6114fa576040517f08c379a00000000000000000000000000000000000000000000000000000000081526004016114f1906123f8565b60405180910390fd5b60006003848460405161150e929190612282565b9081526020016040518091039020805490501415801561154e575060016006848460405161153d929190612282565b908152602001604051809103902054145b61158d576040517f08c379a000000000000000000000000000000000000000000000000000000000815260040161158490612565565b60405180910390fd5b6002600684846040516115a1929190612282565b908152602001604051809103902081905550600260009054906101000a900473ffffffffffffffffffffffffffffffffffffffff16600584846040516115e8929190612282565b908152602001604051809103902060006101000a81548173ffffffffffffffffffffffffffffffffffffffff021916908373ffffffffffffffffffffffffffffffffffffffff1602179055506116628383600260009054906101000a900473ffffffffffffffffffffffffffffffffffffffff16846117a4565b505050565b6000600260009054906101000a900473ffffffffffffffffffffffffffffffffffffffff16905090565b61169961145b565b6116d8576040517f08c379a00000000000000000000000000000000000000000000000000000000081526004016116cf906123f8565b60405180910390fd5b6116e181611a4a565b50565b33600260006101000a81548173ffffffffffffffffffffffffffffffffffffffff021916908373ffffffffffffffffffffffffffffffffffffffff160217905550600260009054906101000a900473ffffffffffffffffffffffffffffffffffffffff1673ffffffffffffffffffffffffffffffffffffffff16600073ffffffffffffffffffffffffffffffffffffffff167f8be0079c531659141344cd1fd0a4f28419497f9722a3daafe3b4186f6b6457e060405160405180910390a3565b60006064600954600487876040516117bd929190612282565b9081526020016040518091039020546117d691906122f9565b6117e0919061236a565b9050600081600487876040516117f7929190612282565b9081526020016040518091039020546118109190612a3a565b9050600760009054906101000a900473ffffffffffffffffffffffffffffffffffffffff1673ffffffffffffffffffffffffffffffffffffffff1663a9059cbb600860009054906101000a900473ffffffffffffffffffffffffffffffffffffffff16846040518363ffffffff1660e01b8152600401611891929190612585565b6020604051808303816000875af11580156118b0573d6000803e3d6000fd5b505050506040513d601f19601f820116820180604052508101906118d491906125da565b611913576040517f08c379a000000000000000000000000000000000000000000000000000000000815260040161190a90612aba565b60405180910390fd5b600760009054906101000a900473ffffffffffffffffffffffffffffffffffffffff1673ffffffffffffffffffffffffffffffffffffffff1663a9059cbb85836040518363ffffffff1660e01b8152600401611970929190612585565b6020604051808303816000875af115801561198f573d6000803e3d6000fd5b505050506040513d601f19601f820116820180604052508101906119b391906125da565b6119f2576040517f08c379a00000000000000000000000000000000000000000000000000000000081526004016119e990612b26565b60405180910390fd5b828686604051611a03929190612282565b60405180910390207f8fde3b360b5e31dab83d1d7f31a1766b7a8b1a7791a9fb92851c3554b42c3fe486604051611a3a9190611c3e565b60405180910390a3505050505050565b600073ffffffffffffffffffffffffffffffffffffffff168173ffffffffffffffffffffffffffffffffffffffff1603611ab9576040517f08c379a0000000000000000000000000000000000000000000000000000000008152600401611ab090612bb8565b60405180910390fd5b8073ffffffffffffffffffffffffffffffffffffffff16600260009054906101000a900473ffffffffffffffffffffffffffffffffffffffff1673ffffffffffffffffffffffffffffffffffffffff167f8be0079c531659141344cd1fd0a4f28419497f9722a3daafe3b4186f6b6457e060405160405180910390a380600260006101000a81548173ffffffffffffffffffffffffffffffffffffffff021916908373ffffffffffffffffffffffffffffffffffffffff16021790555050565b604051806040016040528060008152602001600081525090565b828054828255906000526020600020908101928215611bcf579160200282015b82811115611bce578251825591602001919060010190611bb3565b5b509050611bdc9190611be0565b5090565b5b80821115611bf9576000816000905550600101611be1565b5090565b600073ffffffffffffffffffffffffffffffffffffffff82169050919050565b6000611c2882611bfd565b9050919050565b611c3881611c1d565b82525050565b6000602082019050611c536000830184611c2f565b92915050565b6000604051905090565b600080fd5b600080fd5b600080fd5b600080fd5b6000601f19601f8301169050919050565b7f4e487b7100000000000000000000000000000000000000000000000000000000600052604160045260246000fd5b611cc082611c77565b810181811067ffffffffffffffff82111715611cdf57611cde611c88565b5b80604052505050565b6000611cf2611c59565b9050611cfe8282611cb7565b919050565b600067ffffffffffffffff821115611d1e57611d1d611c88565b5b611d2782611c77565b9050602081019050919050565b82818337600083830152505050565b6000611d56611d5184611d03565b611ce8565b905082815260208101848484011115611d7257611d71611c72565b5b611d7d848285611d34565b509392505050565b600082601f830112611d9a57611d99611c6d565b5b8135611daa848260208601611d43565b91505092915050565b6000819050919050565b611dc681611db3565b8114611dd157600080fd5b50565b600081359050611de381611dbd565b92915050565b60008060408385031215611e0057611dff611c63565b5b600083013567ffffffffffffffff811115611e1e57611e1d611c68565b5b611e2a85828601611d85565b9250506020611e3b85828601611dd4565b9150509250929050565b611e4e81611db3565b82525050565b6000602082019050611e696000830184611e45565b92915050565b600080fd5b600080fd5b60008083601f840112611e8f57611e8e611c6d565b5b8235905067ffffffffffffffff811115611eac57611eab611e6f565b5b602083019150836001820283011115611ec857611ec7611e74565b5b9250929050565b60008060208385031215611ee657611ee5611c63565b5b600083013567ffffffffffffffff811115611f0457611f03611c68565b5b611f1085828601611e79565b92509250509250929050565b600081519050919050565b600082825260208201905092915050565b6000819050602082019050919050565b611f5181611db3565b82525050565b604082016000820151611f6d6000850182611f48565b506020820151611f806020850182611f48565b50505050565b6000611f928383611f57565b60408301905092915050565b6000602082019050919050565b6000611fb682611f1c565b611fc08185611f27565b9350611fcb83611f38565b8060005b83811015611ffc578151611fe38882611f86565b9750611fee83611f9e565b925050600181019050611fcf565b5085935050505092915050565b600060408201905061201e6000830185611e45565b81810360208301526120308184611fab565b90509392505050565b60006020828403121561204f5761204e611c63565b5b600082013567ffffffffffffffff81111561206d5761206c611c68565b5b61207984828501611d85565b91505092915050565b61208b81611c1d565b811461209657600080fd5b50565b6000813590506120a881612082565b92915050565b6000602082840312156120c4576120c3611c63565b5b60006120d284828501612099565b91505092915050565b600080604083850312156120f2576120f1611c63565b5b600061210085828601612099565b925050602061211185828601612099565b9150509250929050565b60006020828403121561213157612130611c63565b5b600061213f84828501611dd4565b91505092915050565b60008060006040848603121561216157612160611c63565b5b600084013567ffffffffffffffff81111561217f5761217e611c68565b5b61218b86828701611e79565b9350935050602061219e86828701611dd4565b9150509250925092565b600080600080606085870312156121c2576121c1611c63565b5b600085013567ffffffffffffffff8111156121e0576121df611c68565b5b6121ec87828801611e79565b945094505060206121ff87828801611dd4565b925050604061221087828801611dd4565b91505092959194509250565b60008115159050919050565b6122318161221c565b82525050565b600060208201905061224c6000830184612228565b92915050565b600081905092915050565b60006122698385612252565b9350612276838584611d34565b82840190509392505050565b600061228f82848661225d565b91508190509392505050565b7f4e487b7100000000000000000000000000000000000000000000000000000000600052603260045260246000fd5b7f4e487b7100000000000000000000000000000000000000000000000000000000600052601160045260246000fd5b600061230482611db3565b915061230f83611db3565b925082820261231d81611db3565b91508282048414831517612334576123336122ca565b5b5092915050565b7f4e487b7100000000000000000000000000000000000000000000000000000000600052601260045260246000fd5b600061237582611db3565b915061238083611db3565b9250826123905761238f61233b565b5b828204905092915050565b600082825260208201905092915050565b7f4f776e61626c653a2063616c6c6572206973206e6f7420746865206f776e6572600082015250565b60006123e260208361239b565b91506123ed826123ac565b602082019050919050565b60006020820190508181036000830152612411816123d5565b9050919050565b7f496e76616c696420616464726573733a207a65726f2061646472657373000000600082015250565b600061244e601d8361239b565b915061245982612418565b602082019050919050565b6000602082019050818103600083015261247d81612441565b9050919050565b60006040820190506124996000830185611c2f565b6124a66020830184611c2f565b9392505050565b7f4d75737420626520696e697469616c697a65642066726f6d2070726f78790000600082015250565b60006124e3601e8361239b565b91506124ee826124ad565b602082019050919050565b60006020820190508181036000830152612512816124d6565b9050919050565b7f636f6e646974696f6e206e6f7420707265706172656400000000000000000000600082015250565b600061254f60168361239b565b915061255a82612519565b602082019050919050565b6000602082019050818103600083015261257e81612542565b9050919050565b600060408201905061259a6000830185611c2f565b6125a76020830184611e45565b9392505050565b6125b78161221c565b81146125c257600080fd5b50565b6000815190506125d4816125ae565b92915050565b6000602082840312156125f0576125ef611c63565b5b60006125fe848285016125c5565b91505092915050565b7f5472616e73666572206661696c65640000000000000000000000000000000000600082015250565b600061263d600f8361239b565b915061264882612607565b602082019050919050565b6000602082019050818103600083015261266c81612630565b9050919050565b7f4665652063616e6e6f74206265206c657373207468616e203000000000000000600082015250565b60006126a960198361239b565b91506126b482612673565b602082019050919050565b600060208201905081810360008301526126d88161269c565b9050919050565b7f746f6f206d616e79206f7574636f6d6520736c6f747300000000000000000000600082015250565b600061271560168361239b565b9150612720826126df565b602082019050919050565b6000602082019050818103600083015261274481612708565b9050919050565b7f74686572652073686f756c64206265206d6f7265207468616e206f6e65206f7560008201527f74636f6d6520736c6f7400000000000000000000000000000000000000000000602082015250565b60006127a7602a8361239b565b91506127b28261274b565b604082019050919050565b600060208201905081810360008301526127d68161279a565b9050919050565b7f636f6e646974696f6e20616c7265616479207072657061726564000000000000600082015250565b6000612813601a8361239b565b915061281e826127dd565b602082019050919050565b6000602082019050818103600083015261284281612806565b9050919050565b7f6e6f742070726570617265640000000000000000000000000000000000000000600082015250565b600061287f600c8361239b565b915061288a82612849565b602082019050919050565b600060208201905081810360008301526128ae81612872565b9050919050565b6000815190506128c481611dbd565b92915050565b6000602082840312156128e0576128df611c63565b5b60006128ee848285016128b5565b91505092915050565b7f496e73756666696369656e7420746f6b656e2062616c616e6365000000000000600082015250565b600061292d601a8361239b565b9150612938826128f7565b602082019050919050565b6000602082019050818103600083015261295c81612920565b9050919050565b60006060820190506129786000830186611c2f565b6129856020830185611c2f565b6129926040830184611e45565b949350505050565b7f546f6b656e207472616e73666572206661696c65640000000000000000000000600082015250565b60006129d060158361239b565b91506129db8261299a565b602082019050919050565b600060208201905081810360008301526129ff816129c3565b9050919050565b6000612a1182611db3565b9150612a1c83611db3565b9250828201905080821115612a3457612a336122ca565b5b92915050565b6000612a4582611db3565b9150612a5083611db3565b9250828203905081811115612a6857612a676122ca565b5b92915050565b7f466565207472616e73666572206661696c656400000000000000000000000000600082015250565b6000612aa460138361239b565b9150612aaf82612a6e565b602082019050919050565b60006020820190508181036000830152612ad381612a97565b9050919050565b7f5769746864726177207472616e73666572206661696c65640000000000000000600082015250565b6000612b1060188361239b565b9150612b1b82612ada565b602082019050919050565b60006020820190508181036000830152612b3f81612b03565b9050919050565b7f4f776e61626c653a206e6577206f776e657220697320746865207a65726f206160008201527f6464726573730000000000000000000000000000000000000000000000000000602082015250565b6000612ba260268361239b565b9150612bad82612b46565b604082019050919050565b60006020820190508181036000830152612bd181612b95565b905091905056fea26469706673582212201877303251704622711d7819c1a0421c9874bd8348660ac7e70e553a7df6db5464736f6c63430008180033",
  "linkReferences": {},
  "deployedLinkReferences": {}
}