{
  "_format": "hh-sol-artifact-1",
  "contractName": "PCC",
  "sourceName": "contracts/CarbonAssets/PCC.sol",
  "abi": [
    {
      "inputs": [
        {
          "internalType": "address",
          "name": "spender",
          "type": "address"
        },
        {
          "internalType": "uint256",
          "name": "allowance",
          "type": "uint256"
        },
        {
          "internalType": "uint256",
          "name": "needed",
          "type": "uint256"
        }
      ],
      "name": "ERC20InsufficientAllowance",
      "type": "error"
    },
    {
      "inputs": [
        {
          "internalType": "address",
          "name": "sender",
          "type": "address"
        },
        {
          "internalType": "uint256",
          "name": "balance",
          "type": "uint256"
        },
        {
          "internalType": "uint256",
          "name": "needed",
          "type": "uint256"
        }
      ],
      "name": "ERC20InsufficientBalance",
      "type": "error"
    },
    {
      "inputs": [
        {
          "internalType": "address",
          "name": "approver",
          "type": "address"
        }
      ],
      "name": "ERC20InvalidApprover",
      "type": "error"
    },
    {
      "inputs": [
        {
          "internalType": "address",
          "name": "receiver",
          "type": "address"
        }
      ],
      "name": "ERC20InvalidReceiver",
      "type": "error"
    },
    {
      "inputs": [
        {
          "internalType": "address",
          "name": "sender",
          "type": "address"
        }
      ],
      "name": "ERC20InvalidSender",
      "type": "error"
    },
    {
      "inputs": [
        {
          "internalType": "address",
          "name": "spender",
          "type": "address"
        }
      ],
      "name": "ERC20InvalidSpender",
      "type": "error"
    },
    {
      "inputs": [],
      "name": "EnforcedPause",
      "type": "error"
    },
    {
      "inputs": [],
      "name": "ExpectedPause",
      "type": "error"
    },
    {
      "inputs": [
        {
          "internalType": "uint256",
          "name": "requested",
          "type": "uint256"
        },
        {
          "internalType": "uint256",
          "name": "available",
          "type": "uint256"
        }
      ],
      "name": "InsufficientBalance",
      "type": "error"
    },
    {
      "inputs": [],
      "name": "InvalidInitialization",
      "type": "error"
    },
    {
      "inputs": [],
      "name": "NotInitializing",
      "type": "error"
    },
    {
      "inputs": [
        {
          "internalType": "uint256",
          "name": "minBalance",
          "type": "uint256"
        },
        {
          "internalType": "uint256",
          "name": "recipientAfterTransfer",
          "type": "uint256"
        }
      ],
      "name": "RecipientLessThanMinBalance",
      "type": "error"
    },
    {
      "inputs": [
        {
          "internalType": "uint256",
          "name": "minBalance",
          "type": "uint256"
        },
        {
          "internalType": "uint256",
          "name": "senderAfterTransfer",
          "type": "uint256"
        }
      ],
      "name": "SenderLessThanMinBalance",
      "type": "error"
    },
    {
      "anonymous": false,
      "inputs": [
        {
          "indexed": true,
          "internalType": "address",
          "name": "_user",
          "type": "address"
        }
      ],
      "name": "AddedBlackList",
      "type": "event"
    },
    {
      "anonymous": false,
      "inputs": [
        {
          "indexed": true,
          "internalType": "address",
          "name": "owner",
          "type": "address"
        },
        {
          "indexed": true,
          "internalType": "address",
          "name": "spender",
          "type": "address"
        },
        {
          "indexed": false,
          "internalType": "uint256",
          "name": "value",
          "type": "uint256"
        }
      ],
      "name": "Approval",
      "type": "event"
    },
    {
      "anonymous": false,
      "inputs": [
        {
          "indexed": false,
          "internalType": "uint64",
          "name": "version",
          "type": "uint64"
        }
      ],
      "name": "Initialized",
      "type": "event"
    },
    {
      "anonymous": false,
      "inputs": [
        {
          "indexed": true,
          "internalType": "address",
          "name": "addr1",
          "type": "address"
        },
        {
          "indexed": false,
          "internalType": "uint256",
          "name": "amount",
          "type": "uint256"
        }
      ],
      "name": "Issue",
      "type": "event"
    },
    {
      "anonymous": false,
      "inputs": [
        {
          "indexed": true,
          "internalType": "address",
          "name": "previousOwner",
          "type": "address"
        },
        {
          "indexed": true,
          "internalType": "address",
          "name": "newOwner",
          "type": "address"
        }
      ],
      "name": "OwnershipTransferred",
      "type": "event"
    },
    {
      "anonymous": false,
      "inputs": [
        {
          "indexed": false,
          "internalType": "address",
          "name": "account",
          "type": "address"
        }
      ],
      "name": "Paused",
      "type": "event"
    },
    {
      "anonymous": false,
      "inputs": [
        {
          "indexed": true,
          "internalType": "address",
          "name": "addr1",
          "type": "address"
        },
        {
          "indexed": false,
          "internalType": "uint256",
          "name": "amount",
          "type": "uint256"
        }
      ],
      "name": "Redeem",
      "type": "event"
    },
    {
      "anonymous": false,
      "inputs": [
        {
          "indexed": true,
          "internalType": "address",
          "name": "_user",
          "type": "address"
        }
      ],
      "name": "RemovedBlackList",
      "type": "event"
    },
    {
      "anonymous": false,
      "inputs": [
        {
          "indexed": true,
          "internalType": "address",
          "name": "addr1",
          "type": "address"
        },
        {
          "indexed": false,
          "internalType": "uint256",
          "name": "amount",
          "type": "uint256"
        }
      ],
      "name": "TokenConvert",
      "type": "event"
    },
    {
      "anonymous": false,
      "inputs": [
        {
          "indexed": true,
          "internalType": "address",
          "name": "from",
          "type": "address"
        },
        {
          "indexed": true,
          "internalType": "address",
          "name": "to",
          "type": "address"
        },
        {
          "indexed": false,
          "internalType": "uint256",
          "name": "value",
          "type": "uint256"
        }
      ],
      "name": "Transfer",
      "type": "event"
    },
    {
      "anonymous": false,
      "inputs": [
        {
          "indexed": false,
          "internalType": "address",
          "name": "account",
          "type": "address"
        }
      ],
      "name": "Unpaused",
      "type": "event"
    },
    {
      "inputs": [],
      "name": "Min_Balance",
      "outputs": [
        {
          "internalType": "uint128",
          "name": "",
          "type": "uint128"
        }
      ],
      "stateMutability": "view",
      "type": "function"
    },
    {
      "inputs": [],
      "name": "Ratio_CCT",
      "outputs": [
        {
          "internalType": "uint128",
          "name": "",
          "type": "uint128"
        }
      ],
      "stateMutability": "view",
      "type": "function"
    },
    {
      "inputs": [],
      "name": "Version",
      "outputs": [
        {
          "internalType": "string",
          "name": "",
          "type": "string"
        }
      ],
      "stateMutability": "view",
      "type": "function"
    },
    {
      "inputs": [],
      "name": "_CCT",
      "outputs": [
        {
          "internalType": "address",
          "name": "",
          "type": "address"
        }
      ],
      "stateMutability": "view",
      "type": "function"
    },
    {
      "inputs": [],
      "name": "_CDC",
      "outputs": [
        {
          "internalType": "address",
          "name": "",
          "type": "address"
        }
      ],
      "stateMutability": "view",
      "type": "function"
    },
    {
      "inputs": [
        {
          "internalType": "address",
          "name": "_evilUser",
          "type": "address"
        }
      ],
      "name": "addBlackList",
      "outputs": [],
      "stateMutability": "nonpayable",
      "type": "function"
    },
    {
      "inputs": [
        {
          "internalType": "address",
          "name": "owner",
          "type": "address"
        },
        {
          "internalType": "address",
          "name": "spender",
          "type": "address"
        }
      ],
      "name": "allowance",
      "outputs": [
        {
          "internalType": "uint256",
          "name": "",
          "type": "uint256"
        }
      ],
      "stateMutability": "view",
      "type": "function"
    },
    {
      "inputs": [
        {
          "internalType": "address",
          "name": "spender",
          "type": "address"
        },
        {
          "internalType": "uint256",
          "name": "value",
          "type": "uint256"
        }
      ],
      "name": "approve",
      "outputs": [
        {
          "internalType": "bool",
          "name": "",
          "type": "bool"
        }
      ],
      "stateMutability": "nonpayable",
      "type": "function"
    },
    {
      "inputs": [
        {
          "internalType": "address",
          "name": "account",
          "type": "address"
        }
      ],
      "name": "balanceOf",
      "outputs": [
        {
          "internalType": "uint256",
          "name": "",
          "type": "uint256"
        }
      ],
      "stateMutability": "view",
      "type": "function"
    },
    {
      "inputs": [],
      "name": "contractOwner",
      "outputs": [
        {
          "internalType": "address",
          "name": "",
          "type": "address"
        }
      ],
      "stateMutability": "view",
      "type": "function"
    },
    {
      "inputs": [
        {
          "internalType": "address",
          "name": "recipient",
          "type": "address"
        },
        {
          "internalType": "uint256",
          "name": "amount",
          "type": "uint256"
        }
      ],
      "name": "convert",
      "outputs": [],
      "stateMutability": "nonpayable",
      "type": "function"
    },
    {
      "inputs": [],
      "name": "decimals",
      "outputs": [
        {
          "internalType": "uint8",
          "name": "",
          "type": "uint8"
        }
      ],
      "stateMutability": "pure",
      "type": "function"
    },
    {
      "inputs": [
        {
          "internalType": "string",
          "name": "name",
          "type": "string"
        },
        {
          "internalType": "string",
          "name": "symbol",
          "type": "string"
        },
        {
          "internalType": "address",
          "name": "initOwner",
          "type": "address"
        },
        {
          "internalType": "address",
          "name": "_cdc",
          "type": "address"
        },
        {
          "internalType": "address",
          "name": "_cct",
          "type": "address"
        }
      ],
      "name": "initialize",
      "outputs": [],
      "stateMutability": "nonpayable",
      "type": "function"
    },
    {
      "inputs": [
        {
          "internalType": "address",
          "name": "",
          "type": "address"
        }
      ],
      "name": "isBlackListed",
      "outputs": [
        {
          "internalType": "bool",
          "name": "",
          "type": "bool"
        }
      ],
      "stateMutability": "view",
      "type": "function"
    },
    {
      "inputs": [],
      "name": "isOwner",
      "outputs": [
        {
          "internalType": "bool",
          "name": "",
          "type": "bool"
        }
      ],
      "stateMutability": "view",
      "type": "function"
    },
    {
      "inputs": [
        {
          "internalType": "address",
          "name": "account",
          "type": "address"
        },
        {
          "internalType": "uint256",
          "name": "amount",
          "type": "uint256"
        }
      ],
      "name": "issue",
      "outputs": [],
      "stateMutability": "nonpayable",
      "type": "function"
    },
    {
      "inputs": [],
      "name": "name",
      "outputs": [
        {
          "internalType": "string",
          "name": "",
          "type": "string"
        }
      ],
      "stateMutability": "view",
      "type": "function"
    },
    {
      "inputs": [],
      "name": "pause",
      "outputs": [],
      "stateMutability": "nonpayable",
      "type": "function"
    },
    {
      "inputs": [],
      "name": "paused",
      "outputs": [
        {
          "internalType": "bool",
          "name": "",
          "type": "bool"
        }
      ],
      "stateMutability": "view",
      "type": "function"
    },
    {
      "inputs": [
        {
          "internalType": "address",
          "name": "account",
          "type": "address"
        },
        {
          "internalType": "uint256",
          "name": "amount",
          "type": "uint256"
        }
      ],
      "name": "redeem",
      "outputs": [],
      "stateMutability": "nonpayable",
      "type": "function"
    },
    {
      "inputs": [
        {
          "internalType": "address",
          "name": "_clearedUser",
          "type": "address"
        }
      ],
      "name": "removeBlackList",
      "outputs": [],
      "stateMutability": "nonpayable",
      "type": "function"
    },
    {
      "inputs": [],
      "name": "renounceOwnership",
      "outputs": [],
      "stateMutability": "nonpayable",
      "type": "function"
    },
    {
      "inputs": [
        {
          "internalType": "address",
          "name": "_cdc",
          "type": "address"
        },
        {
          "internalType": "address",
          "name": "_cct",
          "type": "address"
        }
      ],
      "name": "setAuthedContractAddress",
      "outputs": [],
      "stateMutability": "nonpayable",
      "type": "function"
    },
    {
      "inputs": [
        {
          "internalType": "uint128",
          "name": "_minBalance",
          "type": "uint128"
        }
      ],
      "name": "setMinBalance",
      "outputs": [],
      "stateMutability": "nonpayable",
      "type": "function"
    },
    {
      "inputs": [
        {
          "internalType": "uint128",
          "name": "_cctRatio",
          "type": "uint128"
        }
      ],
      "name": "setRatio",
      "outputs": [],
      "stateMutability": "nonpayable",
      "type": "function"
    },
    {
      "inputs": [],
      "name": "symbol",
      "outputs": [
        {
          "internalType": "string",
          "name": "",
          "type": "string"
        }
      ],
      "stateMutability": "view",
      "type": "function"
    },
    {
      "inputs": [],
      "name": "totalSupply",
      "outputs": [
        {
          "internalType": "uint256",
          "name": "",
          "type": "uint256"
        }
      ],
      "stateMutability": "view",
      "type": "function"
    },
    {
      "inputs": [
        {
          "internalType": "address",
          "name": "recipient",
          "type": "address"
        },
        {
          "internalType": "uint256",
          "name": "amount",
          "type": "uint256"
        }
      ],
      "name": "transfer",
      "outputs": [
        {
          "internalType": "bool",
          "name": "",
          "type": "bool"
        }
      ],
      "stateMutability": "nonpayable",
      "type": "function"
    },
    {
      "inputs": [
        {
          "internalType": "address",
          "name": "sender",
          "type": "address"
        },
        {
          "internalType": "address",
          "name": "recipient",
          "type": "address"
        },
        {
          "internalType": "uint256",
          "name": "amount",
          "type": "uint256"
        }
      ],
      "name": "transferFrom",
      "outputs": [
        {
          "internalType": "bool",
          "name": "",
          "type": "bool"
        }
      ],
      "stateMutability": "nonpayable",
      "type": "function"
    },
    {
      "inputs": [
        {
          "internalType": "address",
          "name": "newOwner",
          "type": "address"
        }
      ],
      "name": "transferOwnership",
      "outputs": [],
      "stateMutability": "nonpayable",
      "type": "function"
    },
    {
      "inputs": [],
      "name": "unpause",
      "outputs": [],
      "stateMutability": "nonpayable",
      "type": "function"
    }
  ],
  "bytecode": "0x608060405234801561001057600080fd5b506132de806100206000396000f3fe608060405234801561001057600080fd5b50600436106101e55760003560e01c80638f32d59b1161010f578063d89f1d0b116100a2578063e47d606011610071578063e47d606014610522578063e4997dc514610552578063f2fde38b1461056e578063f95947d91461058a576101e5565b8063d89f1d0b1461049e578063db0ed6a0146104ba578063dca934a0146104d6578063dd62ed3e146104f2576101e5565b8063aebc15a6116100de578063aebc15a614610426578063bb62860d14610444578063be539fc714610462578063ce606ee014610480576101e5565b80638f32d59b1461039e57806395d89b41146103bc5780639ab15377146103da578063a9059cbb146103f6576101e5565b80633f4ba83a1161018757806370a082311161015657806370a082311461033e578063715018a61461036e5780638456cb5914610378578063867904b414610382576101e5565b80633f4ba83a146102dc57806351f924fa146102e65780635c975abb1461030457806367c6e39c14610322576101e5565b806318160ddd116101c357806318160ddd146102545780631e9a69501461027257806323b872dd1461028e578063313ce567146102be576101e5565b806306fdde03146101ea578063095ea7b3146102085780630ecb93c014610238575b600080fd5b6101f26105a8565b6040516101ff9190612440565b60405180910390f35b610222600480360381019061021d919061250a565b610649565b60405161022f9190612565565b60405180910390f35b610252600480360381019061024d9190612580565b61066c565b005b61025c610751565b60405161026991906125bc565b60405180910390f35b61028c6004803603810190610287919061250a565b610769565b005b6102a860048036038101906102a391906125d7565b610857565b6040516102b59190612565565b60405180910390f35b6102c6610894565b6040516102d39190612646565b60405180910390f35b6102e461089d565b005b6102ee6108ee565b6040516102fb9190612670565b60405180910390f35b61030c610914565b6040516103199190612565565b60405180910390f35b61033c6004803603810190610337919061250a565b610939565b005b61035860048036038101906103539190612580565b610aba565b60405161036591906125bc565b60405180910390f35b610376610b11565b005b610380610c19565b005b61039c6004803603810190610397919061250a565b610c6a565b005b6103a6610d93565b6040516103b39190612565565b60405180910390f35b6103c4610deb565b6040516103d19190612440565b60405180910390f35b6103f460048036038101906103ef919061268b565b610e8c565b005b610410600480360381019061040b919061250a565b610f59565b60405161041d9190612565565b60405180910390f35b61042e611257565b60405161043b91906126f6565b60405180910390f35b61044c611279565b6040516104599190612440565b60405180910390f35b61046a6112b2565b60405161047791906126f6565b60405180910390f35b6104886112d4565b6040516104959190612670565b60405180910390f35b6104b860048036038101906104b3919061273d565b6112fe565b005b6104d460048036038101906104cf919061289f565b611381565b005b6104f060048036038101906104eb919061273d565b611637565b005b61050c6004803603810190610507919061268b565b6116ba565b60405161051991906125bc565b60405180910390f35b61053c60048036038101906105379190612580565b61174f565b6040516105499190612565565b60405180910390f35b61056c60048036038101906105679190612580565b61176f565b005b61058860048036038101906105839190612580565b611854565b005b6105926118a7565b60405161059f9190612670565b60405180910390f35b606060006105b46118cd565b90508060030180546105c590612981565b80601f01602080910402602001604051908101604052809291908181526020018280546105f190612981565b801561063e5780601f106106135761010080835404028352916020019161063e565b820191906000526020600020905b81548152906001019060200180831161062157829003601f168201915b505050505091505090565b6000806106546118f5565b90506106618185856118fd565b600191505092915050565b610674610d93565b6106b3576040517f08c379a00000000000000000000000000000000000000000000000000000000081526004016106aa906129fe565b60405180910390fd5b6001600360008373ffffffffffffffffffffffffffffffffffffffff1673ffffffffffffffffffffffffffffffffffffffff16815260200190815260200160002060006101000a81548160ff0219169083151502179055508073ffffffffffffffffffffffffffffffffffffffff167f42e160154868087d6bfdc0ca23d96a1c1cfa32f1b72ba9ba27b69b98a0d819dc60405160405180910390a250565b60008061075c6118cd565b9050806002015491505090565b610771610d93565b6107b0576040517f08c379a00000000000000000000000000000000000000000000000000000000081526004016107a7906129fe565b60405180910390fd5b806107ba83610aba565b10156107fb576040517f08c379a00000000000000000000000000000000000000000000000000000000081526004016107f290612a6a565b60405180910390fd5b610805828261190f565b8173ffffffffffffffffffffffffffffffffffffffff167f222838db2794d11532d940e8dec38ae307ed0b63cd97c233322e221f998767a68260405161084b91906125bc565b60405180910390a25050565b60006040517f08c379a000000000000000000000000000000000000000000000000000000000815260040161088b90612ad6565b60405180910390fd5b60006006905090565b6108a5610d93565b6108e4576040517f08c379a00000000000000000000000000000000000000000000000000000000081526004016108db906129fe565b60405180910390fd5b6108ec611991565b565b600460009054906101000a900473ffffffffffffffffffffffffffffffffffffffff1681565b60008061091f611a03565b90508060000160009054906101000a900460ff1691505090565b610941610d93565b610980576040517f08c379a0000000000000000000000000000000000000000000000000000000008152600401610977906129fe565b60405180910390fd5b61098a828261190f565b6000620f4240600660009054906101000a90046fffffffffffffffffffffffffffffffff166fffffffffffffffffffffffffffffffff16836109cc9190612b25565b6109d69190612b96565b9050600560009054906101000a900473ffffffffffffffffffffffffffffffffffffffff1673ffffffffffffffffffffffffffffffffffffffff1663867904b484836040518363ffffffff1660e01b8152600401610a35929190612bc7565b600060405180830381600087803b158015610a4f57600080fd5b505af1158015610a63573d6000803e3d6000fd5b505050508273ffffffffffffffffffffffffffffffffffffffff167fd70750cc9955670445a5f7237cdb899d0143efb57690190da8d96ffc149ded6983604051610aad91906125bc565b60405180910390a2505050565b600080610ac56118cd565b90508060000160008473ffffffffffffffffffffffffffffffffffffffff1673ffffffffffffffffffffffffffffffffffffffff16815260200190815260200160002054915050919050565b610b19610d93565b610b58576040517f08c379a0000000000000000000000000000000000000000000000000000000008152600401610b4f906129fe565b60405180910390fd5b600073ffffffffffffffffffffffffffffffffffffffff16600260009054906101000a900473ffffffffffffffffffffffffffffffffffffffff1673ffffffffffffffffffffffffffffffffffffffff167f8be0079c531659141344cd1fd0a4f28419497f9722a3daafe3b4186f6b6457e060405160405180910390a36000600260006101000a81548173ffffffffffffffffffffffffffffffffffffffff021916908373ffffffffffffffffffffffffffffffffffffffff160217905550565b610c21610d93565b610c60576040517f08c379a0000000000000000000000000000000000000000000000000000000008152600401610c57906129fe565b60405180910390fd5b610c68611a2b565b565b610c726112d4565b73ffffffffffffffffffffffffffffffffffffffff163373ffffffffffffffffffffffffffffffffffffffff161480610cf85750600460009054906101000a900473ffffffffffffffffffffffffffffffffffffffff1673ffffffffffffffffffffffffffffffffffffffff163373ffffffffffffffffffffffffffffffffffffffff16145b610d37576040517f08c379a0000000000000000000000000000000000000000000000000000000008152600401610d2e90612c3c565b60405180910390fd5b610d418282611a9d565b8173ffffffffffffffffffffffffffffffffffffffff167fc65a3f767206d2fdcede0b094a4840e01c0dd0be1888b5ba800346eaa0123c1682604051610d8791906125bc565b60405180910390a25050565b6000600260009054906101000a900473ffffffffffffffffffffffffffffffffffffffff1673ffffffffffffffffffffffffffffffffffffffff163373ffffffffffffffffffffffffffffffffffffffff1614905090565b60606000610df76118cd565b9050806004018054610e0890612981565b80601f0160208091040260200160405190810160405280929190818152602001828054610e3490612981565b8015610e815780601f10610e5657610100808354040283529160200191610e81565b820191906000526020600020905b815481529060010190602001808311610e6457829003601f168201915b505050505091505090565b610e94610d93565b610ed3576040517f08c379a0000000000000000000000000000000000000000000000000000000008152600401610eca906129fe565b60405180910390fd5b81600460006101000a81548173ffffffffffffffffffffffffffffffffffffffff021916908373ffffffffffffffffffffffffffffffffffffffff16021790555080600560006101000a81548173ffffffffffffffffffffffffffffffffffffffff021916908373ffffffffffffffffffffffffffffffffffffffff1602179055505050565b6000610f63611b1f565b60001515600360003373ffffffffffffffffffffffffffffffffffffffff1673ffffffffffffffffffffffffffffffffffffffff16815260200190815260200160002060009054906101000a900460ff16151514610ff6576040517f08c379a0000000000000000000000000000000000000000000000000000000008152600401610fed90612ca8565b60405180910390fd5b600061100133610aba565b90508281101561104a5782816040517fcf479181000000000000000000000000000000000000000000000000000000008152600401611041929190612cc8565b60405180910390fd5b600083826110589190612cf1565b905060008461106687610aba565b6110709190612d25565b905060008083036110d3576110858787611b60565b9050806110c7576040517f08c379a00000000000000000000000000000000000000000000000000000000081526004016110be90612da5565b60405180910390fd5b80945050505050611251565b600660109054906101000a90046fffffffffffffffffffffffffffffffff166fffffffffffffffffffffffffffffffff1683101561116857600660109054906101000a90046fffffffffffffffffffffffffffffffff16836040517f136fade400000000000000000000000000000000000000000000000000000000815260040161115f929190612e00565b60405180910390fd5b600660109054906101000a90046fffffffffffffffffffffffffffffffff166fffffffffffffffffffffffffffffffff168210156111fd57600660109054906101000a90046fffffffffffffffffffffffffffffffff16826040517f890f0c2c0000000000000000000000000000000000000000000000000000000081526004016111f4929190612e00565b60405180910390fd5b6112078787611b60565b905080611249576040517f08c379a000000000000000000000000000000000000000000000000000000000815260040161124090612e75565b60405180910390fd5b809450505050505b92915050565b600660009054906101000a90046fffffffffffffffffffffffffffffffff1681565b6040518060400160405280600181526020017f340000000000000000000000000000000000000000000000000000000000000081525081565b600660109054906101000a90046fffffffffffffffffffffffffffffffff1681565b6000600260009054906101000a900473ffffffffffffffffffffffffffffffffffffffff16905090565b611306610d93565b611345576040517f08c379a000000000000000000000000000000000000000000000000000000000815260040161133c906129fe565b60405180910390fd5b80600660106101000a8154816fffffffffffffffffffffffffffffffff02191690836fffffffffffffffffffffffffffffffff16021790555050565b600061138b611b83565b905060008160000160089054906101000a900460ff1615905060008260000160009054906101000a900467ffffffffffffffff1690506000808267ffffffffffffffff161480156113d95750825b9050600060018367ffffffffffffffff1614801561140e575060003073ffffffffffffffffffffffffffffffffffffffff163b145b90508115801561141c575080155b15611453576040517ff92ee8a900000000000000000000000000000000000000000000000000000000815260040160405180910390fd5b60018560000160006101000a81548167ffffffffffffffff021916908367ffffffffffffffff16021790555083156114a35760018560000160086101000a81548160ff0219169083151502179055505b600073ffffffffffffffffffffffffffffffffffffffff1660008054906101000a900473ffffffffffffffffffffffffffffffffffffffff1673ffffffffffffffffffffffffffffffffffffffff1603611532576040517f08c379a000000000000000000000000000000000000000000000000000000000815260040161152990612ee1565b60405180910390fd5b61153a611bab565b6115448a8a611bb5565b61154d88611bcb565b86600460006101000a81548173ffffffffffffffffffffffffffffffffffffffff021916908373ffffffffffffffffffffffffffffffffffffffff16021790555085600560006101000a81548173ffffffffffffffffffffffffffffffffffffffff021916908373ffffffffffffffffffffffffffffffffffffffff160217905550831561162b5760008560000160086101000a81548160ff0219169083151502179055507fc7f505b2f371ae2175ee4913f4499e1f2633a7b5936321eed1cdaeb6115181d260016040516116229190612f50565b60405180910390a15b50505050505050505050565b61163f610d93565b61167e576040517f08c379a0000000000000000000000000000000000000000000000000000000008152600401611675906129fe565b60405180910390fd5b80600660006101000a8154816fffffffffffffffffffffffffffffffff02191690836fffffffffffffffffffffffffffffffff16021790555050565b6000806116c56118cd565b90508060010160008573ffffffffffffffffffffffffffffffffffffffff1673ffffffffffffffffffffffffffffffffffffffff16815260200190815260200160002060008473ffffffffffffffffffffffffffffffffffffffff1673ffffffffffffffffffffffffffffffffffffffff1681526020019081526020016000205491505092915050565b60036020528060005260406000206000915054906101000a900460ff1681565b611777610d93565b6117b6576040517f08c379a00000000000000000000000000000000000000000000000000000000081526004016117ad906129fe565b60405180910390fd5b6000600360008373ffffffffffffffffffffffffffffffffffffffff1673ffffffffffffffffffffffffffffffffffffffff16815260200190815260200160002060006101000a81548160ff0219169083151502179055508073ffffffffffffffffffffffffffffffffffffffff167fd7e9ec6e6ecd65492dce6bf513cd6867560d49544421d0783ddf06e76c24470c60405160405180910390a250565b61185c610d93565b61189b576040517f08c379a0000000000000000000000000000000000000000000000000000000008152600401611892906129fe565b60405180910390fd5b6118a481611bcb565b50565b600560009054906101000a900473ffffffffffffffffffffffffffffffffffffffff1681565b60007f52c63247e1f47db19d5ce0460030c497f067ca4cebf71ba98eeadabe20bace00905090565b600033905090565b61190a8383836001611cfa565b505050565b600073ffffffffffffffffffffffffffffffffffffffff168273ffffffffffffffffffffffffffffffffffffffff16036119815760006040517f96c6fd1e0000000000000000000000000000000000000000000000000000000081526004016119789190612670565b60405180910390fd5b61198d82600083611ee0565b5050565b61199961211f565b60006119a3611a03565b905060008160000160006101000a81548160ff0219169083151502179055507f5db9ee0a495bf2e6ff9c91a7834c1ba4fdd244a5e8aa4e537bd38aeae4b073aa6119eb6118f5565b6040516119f89190612670565b60405180910390a150565b60007fcd5ed15c6e187e77e9aee88184c21f4f2182ab5827cb3b7e07fbedcd63f03300905090565b611a33611b1f565b6000611a3d611a03565b905060018160000160006101000a81548160ff0219169083151502179055507f62e78cea01bee320cd4e420270b5ea74000d11b0c9f74754ebdbfc544b05a258611a856118f5565b604051611a929190612670565b60405180910390a150565b600073ffffffffffffffffffffffffffffffffffffffff168273ffffffffffffffffffffffffffffffffffffffff1603611b0f5760006040517fec442f05000000000000000000000000000000000000000000000000000000008152600401611b069190612670565b60405180910390fd5b611b1b60008383611ee0565b5050565b611b27610914565b15611b5e576040517fd93c066500000000000000000000000000000000000000000000000000000000815260040160405180910390fd5b565b600080611b6b6118f5565b9050611b7881858561215f565b600191505092915050565b60007ff0c57e16840df040f15088dc2f81fe391c3923bec73e23a9662efc9c229c6a00905090565b611bb3612253565b565b611bbd612313565b611bc78282612353565b5050565b600073ffffffffffffffffffffffffffffffffffffffff168173ffffffffffffffffffffffffffffffffffffffff1603611c3a576040517f08c379a0000000000000000000000000000000000000000000000000000000008152600401611c3190612fdd565b60405180910390fd5b8073ffffffffffffffffffffffffffffffffffffffff16600260009054906101000a900473ffffffffffffffffffffffffffffffffffffffff1673ffffffffffffffffffffffffffffffffffffffff167f8be0079c531659141344cd1fd0a4f28419497f9722a3daafe3b4186f6b6457e060405160405180910390a380600260006101000a81548173ffffffffffffffffffffffffffffffffffffffff021916908373ffffffffffffffffffffffffffffffffffffffff16021790555050565b6000611d046118cd565b9050600073ffffffffffffffffffffffffffffffffffffffff168573ffffffffffffffffffffffffffffffffffffffff1603611d785760006040517fe602df05000000000000000000000000000000000000000000000000000000008152600401611d6f9190612670565b60405180910390fd5b600073ffffffffffffffffffffffffffffffffffffffff168473ffffffffffffffffffffffffffffffffffffffff1603611dea5760006040517f94280d62000000000000000000000000000000000000000000000000000000008152600401611de19190612670565b60405180910390fd5b828160010160008773ffffffffffffffffffffffffffffffffffffffff1673ffffffffffffffffffffffffffffffffffffffff16815260200190815260200160002060008673ffffffffffffffffffffffffffffffffffffffff1673ffffffffffffffffffffffffffffffffffffffff168152602001908152602001600020819055508115611ed9578373ffffffffffffffffffffffffffffffffffffffff168573ffffffffffffffffffffffffffffffffffffffff167f8c5be1e5ebec7d5bd14f71427d1e84f3dd0314c0f7b2291e5b200ac8c7c3b92585604051611ed091906125bc565b60405180910390a35b5050505050565b6000611eea6118cd565b9050600073ffffffffffffffffffffffffffffffffffffffff168473ffffffffffffffffffffffffffffffffffffffff1603611f405781816002016000828254611f349190612d25565b92505081905550612019565b60008160000160008673ffffffffffffffffffffffffffffffffffffffff1673ffffffffffffffffffffffffffffffffffffffff16815260200190815260200160002054905082811015611fcf578481846040517fe450d38c000000000000000000000000000000000000000000000000000000008152600401611fc693929190612ffd565b60405180910390fd5b8281038260000160008773ffffffffffffffffffffffffffffffffffffffff1673ffffffffffffffffffffffffffffffffffffffff16815260200190815260200160002081905550505b600073ffffffffffffffffffffffffffffffffffffffff168373ffffffffffffffffffffffffffffffffffffffff1603612064578181600201600082825403925050819055506120b4565b818160000160008573ffffffffffffffffffffffffffffffffffffffff1673ffffffffffffffffffffffffffffffffffffffff168152602001908152602001600020600082825401925050819055505b8273ffffffffffffffffffffffffffffffffffffffff168473ffffffffffffffffffffffffffffffffffffffff167fddf252ad1be2c89b69c2b068fc378daa952ba7f163c4a11628f55a4df523b3ef8460405161211191906125bc565b60405180910390a350505050565b612127610914565b61215d576040517f8dfc202b00000000000000000000000000000000000000000000000000000000815260040160405180910390fd5b565b600073ffffffffffffffffffffffffffffffffffffffff168373ffffffffffffffffffffffffffffffffffffffff16036121d15760006040517f96c6fd1e0000000000000000000000000000000000000000000000000000000081526004016121c89190612670565b60405180910390fd5b600073ffffffffffffffffffffffffffffffffffffffff168273ffffffffffffffffffffffffffffffffffffffff16036122435760006040517fec442f0500000000000000000000000000000000000000000000000000000000815260040161223a9190612670565b60405180910390fd5b61224e838383611ee0565b505050565b33600260006101000a81548173ffffffffffffffffffffffffffffffffffffffff021916908373ffffffffffffffffffffffffffffffffffffffff160217905550600260009054906101000a900473ffffffffffffffffffffffffffffffffffffffff1673ffffffffffffffffffffffffffffffffffffffff16600073ffffffffffffffffffffffffffffffffffffffff167f8be0079c531659141344cd1fd0a4f28419497f9722a3daafe3b4186f6b6457e060405160405180910390a3565b61231b612390565b612351576040517fd7e6bcf800000000000000000000000000000000000000000000000000000000815260040160405180910390fd5b565b61235b612313565b60006123656118cd565b90508281600301908161237891906131d6565b508181600401908161238a91906131d6565b50505050565b600061239a611b83565b60000160089054906101000a900460ff16905090565b600081519050919050565b600082825260208201905092915050565b60005b838110156123ea5780820151818401526020810190506123cf565b60008484015250505050565b6000601f19601f8301169050919050565b6000612412826123b0565b61241c81856123bb565b935061242c8185602086016123cc565b612435816123f6565b840191505092915050565b6000602082019050818103600083015261245a8184612407565b905092915050565b6000604051905090565b600080fd5b600080fd5b600073ffffffffffffffffffffffffffffffffffffffff82169050919050565b60006124a182612476565b9050919050565b6124b181612496565b81146124bc57600080fd5b50565b6000813590506124ce816124a8565b92915050565b6000819050919050565b6124e7816124d4565b81146124f257600080fd5b50565b600081359050612504816124de565b92915050565b600080604083850312156125215761252061246c565b5b600061252f858286016124bf565b9250506020612540858286016124f5565b9150509250929050565b60008115159050919050565b61255f8161254a565b82525050565b600060208201905061257a6000830184612556565b92915050565b6000602082840312156125965761259561246c565b5b60006125a4848285016124bf565b91505092915050565b6125b6816124d4565b82525050565b60006020820190506125d160008301846125ad565b92915050565b6000806000606084860312156125f0576125ef61246c565b5b60006125fe868287016124bf565b935050602061260f868287016124bf565b9250506040612620868287016124f5565b9150509250925092565b600060ff82169050919050565b6126408161262a565b82525050565b600060208201905061265b6000830184612637565b92915050565b61266a81612496565b82525050565b60006020820190506126856000830184612661565b92915050565b600080604083850312156126a2576126a161246c565b5b60006126b0858286016124bf565b92505060206126c1858286016124bf565b9150509250929050565b60006fffffffffffffffffffffffffffffffff82169050919050565b6126f0816126cb565b82525050565b600060208201905061270b60008301846126e7565b92915050565b61271a816126cb565b811461272557600080fd5b50565b60008135905061273781612711565b92915050565b6000602082840312156127535761275261246c565b5b600061276184828501612728565b91505092915050565b600080fd5b600080fd5b7f4e487b7100000000000000000000000000000000000000000000000000000000600052604160045260246000fd5b6127ac826123f6565b810181811067ffffffffffffffff821117156127cb576127ca612774565b5b80604052505050565b60006127de612462565b90506127ea82826127a3565b919050565b600067ffffffffffffffff82111561280a57612809612774565b5b612813826123f6565b9050602081019050919050565b82818337600083830152505050565b600061284261283d846127ef565b6127d4565b90508281526020810184848401111561285e5761285d61276f565b5b612869848285612820565b509392505050565b600082601f8301126128865761288561276a565b5b813561289684826020860161282f565b91505092915050565b600080600080600060a086880312156128bb576128ba61246c565b5b600086013567ffffffffffffffff8111156128d9576128d8612471565b5b6128e588828901612871565b955050602086013567ffffffffffffffff81111561290657612905612471565b5b61291288828901612871565b9450506040612923888289016124bf565b9350506060612934888289016124bf565b9250506080612945888289016124bf565b9150509295509295909350565b7f4e487b7100000000000000000000000000000000000000000000000000000000600052602260045260246000fd5b6000600282049050600182168061299957607f821691505b6020821081036129ac576129ab612952565b5b50919050565b7f4f776e61626c653a2063616c6c6572206973206e6f7420746865206f776e6572600082015250565b60006129e86020836123bb565b91506129f3826129b2565b602082019050919050565b60006020820190508181036000830152612a17816129db565b9050919050565b7f496e73756666696369656e7420746f6b656e0000000000000000000000000000600082015250565b6000612a546012836123bb565b9150612a5f82612a1e565b602082019050919050565b60006020820190508181036000830152612a8381612a47565b9050919050565b7f6e6f7420737570706f7274000000000000000000000000000000000000000000600082015250565b6000612ac0600b836123bb565b9150612acb82612a8a565b602082019050919050565b60006020820190508181036000830152612aef81612ab3565b9050919050565b7f4e487b7100000000000000000000000000000000000000000000000000000000600052601160045260246000fd5b6000612b30826124d4565b9150612b3b836124d4565b9250828202612b49816124d4565b91508282048414831517612b6057612b5f612af6565b5b5092915050565b7f4e487b7100000000000000000000000000000000000000000000000000000000600052601260045260246000fd5b6000612ba1826124d4565b9150612bac836124d4565b925082612bbc57612bbb612b67565b5b828204905092915050565b6000604082019050612bdc6000830185612661565b612be960208301846125ad565b9392505050565b7f697373756520504343206d75737420626520617574686f72697a656400000000600082015250565b6000612c26601c836123bb565b9150612c3182612bf0565b602082019050919050565b60006020820190508181036000830152612c5581612c19565b9050919050565b7f63616e742062652074686520626c61636b4c6973740000000000000000000000600082015250565b6000612c926015836123bb565b9150612c9d82612c5c565b602082019050919050565b60006020820190508181036000830152612cc181612c85565b9050919050565b6000604082019050612cdd60008301856125ad565b612cea60208301846125ad565b9392505050565b6000612cfc826124d4565b9150612d07836124d4565b9250828203905081811115612d1f57612d1e612af6565b5b92915050565b6000612d30826124d4565b9150612d3b836124d4565b9250828201905080821115612d5357612d52612af6565b5b92915050565b7f7472616e73666572206661696c2c756e4b6e6f776e206572726f720000000000600082015250565b6000612d8f601b836123bb565b9150612d9a82612d59565b602082019050919050565b60006020820190508181036000830152612dbe81612d82565b9050919050565b6000819050919050565b6000612dea612de5612de0846126cb565b612dc5565b6124d4565b9050919050565b612dfa81612dcf565b82525050565b6000604082019050612e156000830185612df1565b612e2260208301846125ad565b9392505050565b7f756e4b6e6f776e206572726f7200000000000000000000000000000000000000600082015250565b6000612e5f600d836123bb565b9150612e6a82612e29565b602082019050919050565b60006020820190508181036000830152612e8e81612e52565b9050919050565b7f4d75737420626520696e697469616c697a65642066726f6d2070726f78790000600082015250565b6000612ecb601e836123bb565b9150612ed682612e95565b602082019050919050565b60006020820190508181036000830152612efa81612ebe565b9050919050565b6000819050919050565b600067ffffffffffffffff82169050919050565b6000612f3a612f35612f3084612f01565b612dc5565b612f0b565b9050919050565b612f4a81612f1f565b82525050565b6000602082019050612f656000830184612f41565b92915050565b7f4f776e61626c653a206e6577206f776e657220697320746865207a65726f206160008201527f6464726573730000000000000000000000000000000000000000000000000000602082015250565b6000612fc76026836123bb565b9150612fd282612f6b565b604082019050919050565b60006020820190508181036000830152612ff681612fba565b9050919050565b60006060820190506130126000830186612661565b61301f60208301856125ad565b61302c60408301846125ad565b949350505050565b60008190508160005260206000209050919050565b60006020601f8301049050919050565b600082821b905092915050565b6000600883026130967fffffffffffffffffffffffffffffffffffffffffffffffffffffffffffffffff82613059565b6130a08683613059565b95508019841693508086168417925050509392505050565b60006130d36130ce6130c9846124d4565b612dc5565b6124d4565b9050919050565b6000819050919050565b6130ed836130b8565b6131016130f9826130da565b848454613066565b825550505050565b600090565b613116613109565b6131218184846130e4565b505050565b5b818110156131455761313a60008261310e565b600181019050613127565b5050565b601f82111561318a5761315b81613034565b61316484613049565b81016020851015613173578190505b61318761317f85613049565b830182613126565b50505b505050565b600082821c905092915050565b60006131ad6000198460080261318f565b1980831691505092915050565b60006131c6838361319c565b9150826002028217905092915050565b6131df826123b0565b67ffffffffffffffff8111156131f8576131f7612774565b5b6132028254612981565b61320d828285613149565b600060209050601f831160018114613240576000841561322e578287015190505b61323885826131ba565b8655506132a0565b601f19841661324e86613034565b60005b8281101561327657848901518255600182019150602085019450602081019050613251565b86831015613293578489015161328f601f89168261319c565b8355505b6001600288020188555050505b50505050505056fea264697066735822122038fc0dd6d14caae751745d8fcb95ec2584fa501b778809e3d60186cce129bda864736f6c63430008180033",
  "linkReferences": {},
  "deployedLinkReferences": {}
}